{
  "_format": "hh-sol-artifact-1",
  "contractName": "NFTMarket",
  "sourceName": "contracts/NFTMarket.sol",
  "abi": [
    {
      "inputs": [],
      "stateMutability": "nonpayable",
      "type": "constructor"
    },
    {
      "anonymous": false,
      "inputs": [
        {
          "indexed": true,
          "internalType": "uint256",
          "name": "itemId",
          "type": "uint256"
        },
        {
          "indexed": true,
          "internalType": "address",
          "name": "nftContract",
          "type": "address"
        },
        {
          "indexed": true,
          "internalType": "uint256",
          "name": "tokenId",
          "type": "uint256"
        },
        {
          "indexed": false,
          "internalType": "address payable",
          "name": "seller",
          "type": "address"
        },
        {
          "indexed": false,
          "internalType": "address payable",
          "name": "owner",
          "type": "address"
        },
        {
          "indexed": false,
          "internalType": "uint256",
          "name": "price",
          "type": "uint256"
        },
        {
          "indexed": false,
          "internalType": "bool",
          "name": "sold",
          "type": "bool"
        }
      ],
      "name": "MarketItemCreated",
      "type": "event"
    },
    {
      "inputs": [
        {
          "internalType": "address",
          "name": "nftContract",
          "type": "address"
        },
        {
          "internalType": "uint256",
          "name": "tokenId",
          "type": "uint256"
        },
        {
          "internalType": "uint256",
          "name": "price",
          "type": "uint256"
        }
      ],
      "name": "createMarketItem",
      "outputs": [],
      "stateMutability": "payable",
      "type": "function"
    },
    {
      "inputs": [
        {
          "internalType": "address",
          "name": "nftContract",
          "type": "address"
        },
        {
          "internalType": "uint256",
          "name": "itemId",
          "type": "uint256"
        }
      ],
      "name": "createMarketSale",
      "outputs": [],
      "stateMutability": "payable",
      "type": "function"
    },
    {
      "inputs": [],
      "name": "fetchItemsCreated",
      "outputs": [
        {
          "components": [
            {
              "internalType": "uint256",
              "name": "itemId",
              "type": "uint256"
            },
            {
              "internalType": "address",
              "name": "nftContract",
              "type": "address"
            },
            {
              "internalType": "uint256",
              "name": "tokenId",
              "type": "uint256"
            },
            {
              "internalType": "address payable",
              "name": "seller",
              "type": "address"
            },
            {
              "internalType": "address payable",
              "name": "owner",
              "type": "address"
            },
            {
              "internalType": "uint256",
              "name": "price",
              "type": "uint256"
            },
            {
              "internalType": "bool",
              "name": "sold",
              "type": "bool"
            }
          ],
          "internalType": "struct NFTMarket.MarketItem[]",
          "name": "",
          "type": "tuple[]"
        }
      ],
      "stateMutability": "view",
      "type": "function"
    },
    {
      "inputs": [],
      "name": "fetchMarketItems",
      "outputs": [
        {
          "components": [
            {
              "internalType": "uint256",
              "name": "itemId",
              "type": "uint256"
            },
            {
              "internalType": "address",
              "name": "nftContract",
              "type": "address"
            },
            {
              "internalType": "uint256",
              "name": "tokenId",
              "type": "uint256"
            },
            {
              "internalType": "address payable",
              "name": "seller",
              "type": "address"
            },
            {
              "internalType": "address payable",
              "name": "owner",
              "type": "address"
            },
            {
              "internalType": "uint256",
              "name": "price",
              "type": "uint256"
            },
            {
              "internalType": "bool",
              "name": "sold",
              "type": "bool"
            }
          ],
          "internalType": "struct NFTMarket.MarketItem[]",
          "name": "",
          "type": "tuple[]"
        }
      ],
      "stateMutability": "view",
      "type": "function"
    },
    {
      "inputs": [],
      "name": "fetchMyNfts",
      "outputs": [
        {
          "components": [
            {
              "internalType": "uint256",
              "name": "itemId",
              "type": "uint256"
            },
            {
              "internalType": "address",
              "name": "nftContract",
              "type": "address"
            },
            {
              "internalType": "uint256",
              "name": "tokenId",
              "type": "uint256"
            },
            {
              "internalType": "address payable",
              "name": "seller",
              "type": "address"
            },
            {
              "internalType": "address payable",
              "name": "owner",
              "type": "address"
            },
            {
              "internalType": "uint256",
              "name": "price",
              "type": "uint256"
            },
            {
              "internalType": "bool",
              "name": "sold",
              "type": "bool"
            }
          ],
          "internalType": "struct NFTMarket.MarketItem[]",
          "name": "",
          "type": "tuple[]"
        }
      ],
      "stateMutability": "view",
      "type": "function"
    },
    {
      "inputs": [],
      "name": "getListingPrice",
      "outputs": [
        {
          "internalType": "uint256",
          "name": "",
          "type": "uint256"
        }
      ],
      "stateMutability": "view",
      "type": "function"
    },
    {
      "inputs": [
        {
          "internalType": "uint256",
          "name": "_itemId",
          "type": "uint256"
        }
      ],
      "name": "getMarketItemById",
      "outputs": [
        {
          "components": [
            {
              "internalType": "uint256",
              "name": "itemId",
              "type": "uint256"
            },
            {
              "internalType": "address",
              "name": "nftContract",
              "type": "address"
            },
            {
              "internalType": "uint256",
              "name": "tokenId",
              "type": "uint256"
            },
            {
              "internalType": "address payable",
              "name": "seller",
              "type": "address"
            },
            {
              "internalType": "address payable",
              "name": "owner",
              "type": "address"
            },
            {
              "internalType": "uint256",
              "name": "price",
              "type": "uint256"
            },
            {
              "internalType": "bool",
              "name": "sold",
              "type": "bool"
            }
          ],
          "internalType": "struct NFTMarket.MarketItem",
          "name": "",
          "type": "tuple"
        }
      ],
      "stateMutability": "view",
      "type": "function"
    },
    {
      "inputs": [
        {
          "internalType": "uint256",
          "name": "_listingPrice",
          "type": "uint256"
        }
      ],
      "name": "updateListingPrice",
      "outputs": [],
      "stateMutability": "payable",
      "type": "function"
    }
  ],
  "bytecode": "0x6080604052600060035534801561001557600080fd5b50600160008190555033600460006101000a81548173ffffffffffffffffffffffffffffffffffffffff021916908373ffffffffffffffffffffffffffffffffffffffff160217905550611d368061006e6000396000f3fe60806040526004361061007b5760003560e01c806358eb2df51161004e57806358eb2df51461013e578063ae677aa31461015a578063c23b139e14610176578063f064c32e146101925761007b565b80630f08efe014610080578063128ae712146100ab57806312e85585146100d657806353dbceb114610101575b600080fd5b34801561008c57600080fd5b506100956101bd565b6040516100a291906118f5565b60405180910390f35b3480156100b757600080fd5b506100c06104e8565b6040516100cd91906118f5565b60405180910390f35b3480156100e257600080fd5b506100eb610898565b6040516100f891906119d2565b60405180910390f35b34801561010d57600080fd5b5061012860048036038101906101239190611597565b6108a2565b60405161013591906119b7565b60405180910390f35b61015860048036038101906101539190611548565b610a0a565b005b610174600480360381019061016f9190611597565b610d26565b005b610190600480360381019061018b919061150c565b610dc0565b005b34801561019e57600080fd5b506101a7611033565b6040516101b491906118f5565b60405180910390f35b606060006101cb60016113e3565b905060006101d960026113e3565b6101e360016113e3565b6101ed9190611a8d565b90506000808267ffffffffffffffff811115610232577f4e487b7100000000000000000000000000000000000000000000000000000000600052604160045260246000fd5b60405190808252806020026020018201604052801561026b57816020015b610258611461565b8152602001906001900390816102505790505b50905060005b848110156104dd573073ffffffffffffffffffffffffffffffffffffffff16600560006001846102a19190611a37565b815260200190815260200160002060040160009054906101000a900473ffffffffffffffffffffffffffffffffffffffff1673ffffffffffffffffffffffffffffffffffffffff1614156104ca576000600560006001846103029190611a37565b81526020019081526020016000206000015490506000600560008381526020019081526020016000209050806040518060e0016040529081600082015481526020016001820160009054906101000a900473ffffffffffffffffffffffffffffffffffffffff1673ffffffffffffffffffffffffffffffffffffffff1673ffffffffffffffffffffffffffffffffffffffff168152602001600282015481526020016003820160009054906101000a900473ffffffffffffffffffffffffffffffffffffffff1673ffffffffffffffffffffffffffffffffffffffff1673ffffffffffffffffffffffffffffffffffffffff1681526020016004820160009054906101000a900473ffffffffffffffffffffffffffffffffffffffff1673ffffffffffffffffffffffffffffffffffffffff1673ffffffffffffffffffffffffffffffffffffffff168152602001600582015481526020016006820160009054906101000a900460ff1615151515815250508486815181106104ad577f4e487b7100000000000000000000000000000000000000000000000000000000600052603260045260246000fd5b60200260200101819052506001856104c59190611a37565b945050505b80806104d590611b1b565b915050610271565b508094505050505090565b606060006104f660016113e3565b905060008060005b8381101561059f573373ffffffffffffffffffffffffffffffffffffffff166005600060018461052e9190611a37565b815260200190815260200160002060040160009054906101000a900473ffffffffffffffffffffffffffffffffffffffff1673ffffffffffffffffffffffffffffffffffffffff16141561058c576001836105899190611a37565b92505b808061059790611b1b565b9150506104fe565b5060008267ffffffffffffffff8111156105e2577f4e487b7100000000000000000000000000000000000000000000000000000000600052604160045260246000fd5b60405190808252806020026020018201604052801561061b57816020015b610608611461565b8152602001906001900390816106005790505b50905060005b8481101561088d573373ffffffffffffffffffffffffffffffffffffffff16600560006001846106519190611a37565b815260200190815260200160002060040160009054906101000a900473ffffffffffffffffffffffffffffffffffffffff1673ffffffffffffffffffffffffffffffffffffffff16141561087a576000600560006001846106b29190611a37565b81526020019081526020016000206000015490506000600560008381526020019081526020016000209050806040518060e0016040529081600082015481526020016001820160009054906101000a900473ffffffffffffffffffffffffffffffffffffffff1673ffffffffffffffffffffffffffffffffffffffff1673ffffffffffffffffffffffffffffffffffffffff168152602001600282015481526020016003820160009054906101000a900473ffffffffffffffffffffffffffffffffffffffff1673ffffffffffffffffffffffffffffffffffffffff1673ffffffffffffffffffffffffffffffffffffffff1681526020016004820160009054906101000a900473ffffffffffffffffffffffffffffffffffffffff1673ffffffffffffffffffffffffffffffffffffffff1673ffffffffffffffffffffffffffffffffffffffff168152602001600582015481526020016006820160009054906101000a900460ff16151515158152505084868151811061085d577f4e487b7100000000000000000000000000000000000000000000000000000000600052603260045260246000fd5b60200260200101819052506001856108759190611a37565b945050505b808061088590611b1b565b915050610621565b508094505050505090565b6000600354905090565b6108aa611461565b600560008381526020019081526020016000206040518060e0016040529081600082015481526020016001820160009054906101000a900473ffffffffffffffffffffffffffffffffffffffff1673ffffffffffffffffffffffffffffffffffffffff1673ffffffffffffffffffffffffffffffffffffffff168152602001600282015481526020016003820160009054906101000a900473ffffffffffffffffffffffffffffffffffffffff1673ffffffffffffffffffffffffffffffffffffffff1673ffffffffffffffffffffffffffffffffffffffff1681526020016004820160009054906101000a900473ffffffffffffffffffffffffffffffffffffffff1673ffffffffffffffffffffffffffffffffffffffff1673ffffffffffffffffffffffffffffffffffffffff168152602001600582015481526020016006820160009054906101000a900460ff1615151515815250509050919050565b610a126113f1565b60008111610a55576040517f08c379a0000000000000000000000000000000000000000000000000000000008152600401610a4c90611977565b60405180910390fd5b6003543414610a99576040517f08c379a0000000000000000000000000000000000000000000000000000000008152600401610a9090611917565b60405180910390fd5b610aa36001611441565b6000610aaf60016113e3565b90506040518060e001604052808281526020018573ffffffffffffffffffffffffffffffffffffffff1681526020018481526020013373ffffffffffffffffffffffffffffffffffffffff1681526020013073ffffffffffffffffffffffffffffffffffffffff16815260200183815260200160001515815250600560008581526020019081526020016000206000820151816000015560208201518160010160006101000a81548173ffffffffffffffffffffffffffffffffffffffff021916908373ffffffffffffffffffffffffffffffffffffffff1602179055506040820151816002015560608201518160030160006101000a81548173ffffffffffffffffffffffffffffffffffffffff021916908373ffffffffffffffffffffffffffffffffffffffff16021790555060808201518160040160006101000a81548173ffffffffffffffffffffffffffffffffffffffff021916908373ffffffffffffffffffffffffffffffffffffffff16021790555060a0820151816005015560c08201518160060160006101000a81548160ff0219169083151502179055509050508373ffffffffffffffffffffffffffffffffffffffff166323b872dd3330866040518463ffffffff1660e01b8152600401610c8f939291906118be565b600060405180830381600087803b158015610ca957600080fd5b505af1158015610cbd573d6000803e3d6000fd5b50505050828473ffffffffffffffffffffffffffffffffffffffff16827f045dfa01dcba2b36aba1d3dc4a874f4b0c5d2fbeb8d2c4b34a7d88c8d8f929d13330876000604051610d109493929190611879565b60405180910390a450610d21611457565b505050565b3373ffffffffffffffffffffffffffffffffffffffff16600460009054906101000a900473ffffffffffffffffffffffffffffffffffffffff1673ffffffffffffffffffffffffffffffffffffffff1614610db6576040517f08c379a0000000000000000000000000000000000000000000000000000000008152600401610dad90611937565b60405180910390fd5b8060038190555050565b610dc86113f1565b600060056000838152602001908152602001600020600501549050600060056000848152602001908152602001600020600201549050813414610e40576040517f08c379a0000000000000000000000000000000000000000000000000000000008152600401610e3790611997565b60405180910390fd5b6005600084815260200190815260200160002060030160009054906101000a900473ffffffffffffffffffffffffffffffffffffffff1673ffffffffffffffffffffffffffffffffffffffff166108fc349081150290604051600060405180830381858888f19350505050158015610ebc573d6000803e3d6000fd5b508373ffffffffffffffffffffffffffffffffffffffff166323b872dd3033846040518463ffffffff1660e01b8152600401610efa939291906118be565b600060405180830381600087803b158015610f1457600080fd5b505af1158015610f28573d6000803e3d6000fd5b50505050336005600085815260200190815260200160002060040160006101000a81548173ffffffffffffffffffffffffffffffffffffffff021916908373ffffffffffffffffffffffffffffffffffffffff16021790555060016005600085815260200190815260200160002060060160006101000a81548160ff021916908315150217905550610fba6002611441565b600460009054906101000a900473ffffffffffffffffffffffffffffffffffffffff1673ffffffffffffffffffffffffffffffffffffffff166108fc6003549081150290604051600060405180830381858888f19350505050158015611024573d6000803e3d6000fd5b50505061102f611457565b5050565b6060600061104160016113e3565b905060008060005b838110156110ea573373ffffffffffffffffffffffffffffffffffffffff16600560006001846110799190611a37565b815260200190815260200160002060030160009054906101000a900473ffffffffffffffffffffffffffffffffffffffff1673ffffffffffffffffffffffffffffffffffffffff1614156110d7576001836110d49190611a37565b92505b80806110e290611b1b565b915050611049565b5060008267ffffffffffffffff81111561112d577f4e487b7100000000000000000000000000000000000000000000000000000000600052604160045260246000fd5b60405190808252806020026020018201604052801561116657816020015b611153611461565b81526020019060019003908161114b5790505b50905060005b848110156113d8573373ffffffffffffffffffffffffffffffffffffffff166005600060018461119c9190611a37565b815260200190815260200160002060030160009054906101000a900473ffffffffffffffffffffffffffffffffffffffff1673ffffffffffffffffffffffffffffffffffffffff1614156113c5576000600560006001846111fd9190611a37565b81526020019081526020016000206000015490506000600560008381526020019081526020016000209050806040518060e0016040529081600082015481526020016001820160009054906101000a900473ffffffffffffffffffffffffffffffffffffffff1673ffffffffffffffffffffffffffffffffffffffff1673ffffffffffffffffffffffffffffffffffffffff168152602001600282015481526020016003820160009054906101000a900473ffffffffffffffffffffffffffffffffffffffff1673ffffffffffffffffffffffffffffffffffffffff1673ffffffffffffffffffffffffffffffffffffffff1681526020016004820160009054906101000a900473ffffffffffffffffffffffffffffffffffffffff1673ffffffffffffffffffffffffffffffffffffffff1673ffffffffffffffffffffffffffffffffffffffff168152602001600582015481526020016006820160009054906101000a900460ff1615151515815250508486815181106113a8577f4e487b7100000000000000000000000000000000000000000000000000000000600052603260045260246000fd5b60200260200101819052506001856113c09190611a37565b945050505b80806113d090611b1b565b91505061116c565b508094505050505090565b600081600001549050919050565b60026000541415611437576040517f08c379a000000000000000000000000000000000000000000000000000000000815260040161142e90611957565b60405180910390fd5b6002600081905550565b6001816000016000828254019250508190555050565b6001600081905550565b6040518060e0016040528060008152602001600073ffffffffffffffffffffffffffffffffffffffff16815260200160008152602001600073ffffffffffffffffffffffffffffffffffffffff168152602001600073ffffffffffffffffffffffffffffffffffffffff168152602001600081526020016000151581525090565b6000813590506114f181611cd2565b92915050565b60008135905061150681611ce9565b92915050565b6000806040838503121561151f57600080fd5b600061152d858286016114e2565b925050602061153e858286016114f7565b9150509250929050565b60008060006060848603121561155d57600080fd5b600061156b868287016114e2565b935050602061157c868287016114f7565b925050604061158d868287016114f7565b9150509250925092565b6000602082840312156115a957600080fd5b60006115b7848285016114f7565b91505092915050565b60006115cc838361173f565b60e08301905092915050565b6115e181611ad3565b82525050565b6115f081611ad3565b82525050565b6115ff81611ac1565b82525050565b61160e81611ac1565b82525050565b600061161f826119fd565b6116298185611a15565b9350611634836119ed565b8060005b8381101561166557815161164c88826115c0565b975061165783611a08565b925050600181019050611638565b5085935050505092915050565b61167b81611ae5565b82525050565b61168a81611ae5565b82525050565b600061169d602483611a26565b91506116a882611b93565b604082019050919050565b60006116c0603083611a26565b91506116cb82611be2565b604082019050919050565b60006116e3601f83611a26565b91506116ee82611c31565b602082019050919050565b6000611706601c83611a26565b915061171182611c5a565b602082019050919050565b6000611729603383611a26565b915061173482611c83565b604082019050919050565b60e082016000820151611755600085018261185b565b50602082015161176860208501826115f6565b50604082015161177b604085018261185b565b50606082015161178e60608501826115d8565b5060808201516117a160808501826115d8565b5060a08201516117b460a085018261185b565b5060c08201516117c760c0850182611672565b50505050565b60e0820160008201516117e3600085018261185b565b5060208201516117f660208501826115f6565b506040820151611809604085018261185b565b50606082015161181c60608501826115d8565b50608082015161182f60808501826115d8565b5060a082015161184260a085018261185b565b5060c082015161185560c0850182611672565b50505050565b61186481611b11565b82525050565b61187381611b11565b82525050565b600060808201905061188e60008301876115e7565b61189b60208301866115e7565b6118a8604083018561186a565b6118b56060830184611681565b95945050505050565b60006060820190506118d36000830186611605565b6118e06020830185611605565b6118ed604083018461186a565b949350505050565b6000602082019050818103600083015261190f8184611614565b905092915050565b6000602082019050818103600083015261193081611690565b9050919050565b60006020820190508181036000830152611950816116b3565b9050919050565b60006020820190508181036000830152611970816116d6565b9050919050565b60006020820190508181036000830152611990816116f9565b9050919050565b600060208201905081810360008301526119b08161171c565b9050919050565b600060e0820190506119cc60008301846117cd565b92915050565b60006020820190506119e7600083018461186a565b92915050565b6000819050602082019050919050565b600081519050919050565b6000602082019050919050565b600082825260208201905092915050565b600082825260208201905092915050565b6000611a4282611b11565b9150611a4d83611b11565b9250827fffffffffffffffffffffffffffffffffffffffffffffffffffffffffffffffff03821115611a8257611a81611b64565b5b828201905092915050565b6000611a9882611b11565b9150611aa383611b11565b925082821015611ab657611ab5611b64565b5b828203905092915050565b6000611acc82611af1565b9050919050565b6000611ade82611af1565b9050919050565b60008115159050919050565b600073ffffffffffffffffffffffffffffffffffffffff82169050919050565b6000819050919050565b6000611b2682611b11565b91507fffffffffffffffffffffffffffffffffffffffffffffffffffffffffffffffff821415611b5957611b58611b64565b5b600182019050919050565b7f4e487b7100000000000000000000000000000000000000000000000000000000600052601160045260246000fd5b7f5072696365206d75737420626520657175616c20746f206c697374696e67207060008201527f7269636500000000000000000000000000000000000000000000000000000000602082015250565b7f4f6e6c79206d61726b6574706c616365206f776e65722063616e20757064617460008201527f65206c697374696e672070726963652e00000000000000000000000000000000602082015250565b7f5265656e7472616e637947756172643a207265656e7472616e742063616c6c00600082015250565b7f5072696365206d757374206265206174206c6561737420312077656900000000600082015250565b7f496e76696120696c207072657a7a6f2072696368696573746f2070657220636f60008201527f6d706c6574617265206c27616371756973746f00000000000000000000000000602082015250565b611cdb81611ac1565b8114611ce657600080fd5b50565b611cf281611b11565b8114611cfd57600080fd5b5056fea2646970667358221220d512187b693499fb325778ae8bf1f547cb985ec63b99887fd145e521780ee33564736f6c63430008040033",
  "linkReferences": {},
  "deployedLinkReferences": {}
}