{
  "_format": "hh-sol-artifact-1",
  "contractName": "NFTMarket",
  "sourceName": "contracts/NFTMarket.sol",
  "abi": [
    {
      "inputs": [],
      "stateMutability": "nonpayable",
      "type": "constructor"
    },
    {
      "anonymous": false,
      "inputs": [
        {
          "indexed": true,
          "internalType": "address",
          "name": "owner",
          "type": "address"
        },
        {
          "indexed": true,
          "internalType": "address",
          "name": "approved",
          "type": "address"
        },
        {
          "indexed": true,
          "internalType": "uint256",
          "name": "tokenId",
          "type": "uint256"
        }
      ],
      "name": "Approval",
      "type": "event"
    },
    {
      "anonymous": false,
      "inputs": [
        {
          "indexed": true,
          "internalType": "address",
          "name": "owner",
          "type": "address"
        },
        {
          "indexed": true,
          "internalType": "address",
          "name": "operator",
          "type": "address"
        },
        {
          "indexed": false,
          "internalType": "bool",
          "name": "approved",
          "type": "bool"
        }
      ],
      "name": "ApprovalForAll",
      "type": "event"
    },
    {
      "anonymous": false,
      "inputs": [
        {
          "indexed": false,
          "internalType": "uint256",
          "name": "_fromTokenId",
          "type": "uint256"
        },
        {
          "indexed": false,
          "internalType": "uint256",
          "name": "_toTokenId",
          "type": "uint256"
        }
      ],
      "name": "BatchMetadataUpdate",
      "type": "event"
    },
    {
      "anonymous": false,
      "inputs": [
        {
          "indexed": true,
          "internalType": "uint256",
          "name": "tokenId",
          "type": "uint256"
        },
        {
          "indexed": false,
          "internalType": "address",
          "name": "seller",
          "type": "address"
        },
        {
          "indexed": false,
          "internalType": "address",
          "name": "owner",
          "type": "address"
        },
        {
          "indexed": false,
          "internalType": "uint256",
          "name": "price",
          "type": "uint256"
        },
        {
          "indexed": false,
          "internalType": "bool",
          "name": "sold",
          "type": "bool"
        }
      ],
      "name": "MarketItemCreated",
      "type": "event"
    },
    {
      "anonymous": false,
      "inputs": [
        {
          "indexed": false,
          "internalType": "uint256",
          "name": "_tokenId",
          "type": "uint256"
        }
      ],
      "name": "MetadataUpdate",
      "type": "event"
    },
    {
      "anonymous": false,
      "inputs": [
        {
          "indexed": true,
          "internalType": "address",
          "name": "from",
          "type": "address"
        },
        {
          "indexed": true,
          "internalType": "address",
          "name": "to",
          "type": "address"
        },
        {
          "indexed": true,
          "internalType": "uint256",
          "name": "tokenId",
          "type": "uint256"
        }
      ],
      "name": "Transfer",
      "type": "event"
    },
    {
      "inputs": [
        {
          "internalType": "address",
          "name": "to",
          "type": "address"
        },
        {
          "internalType": "uint256",
          "name": "tokenId",
          "type": "uint256"
        }
      ],
      "name": "approve",
      "outputs": [],
      "stateMutability": "nonpayable",
      "type": "function"
    },
    {
      "inputs": [
        {
          "internalType": "address",
          "name": "owner",
          "type": "address"
        }
      ],
      "name": "balanceOf",
      "outputs": [
        {
          "internalType": "uint256",
          "name": "",
          "type": "uint256"
        }
      ],
      "stateMutability": "view",
      "type": "function"
    },
    {
      "inputs": [
        {
          "internalType": "uint256",
          "name": "tokenId",
          "type": "uint256"
        },
        {
          "internalType": "uint256",
          "name": "price",
          "type": "uint256"
        }
      ],
      "name": "createMarketItem",
      "outputs": [],
      "stateMutability": "payable",
      "type": "function"
    },
    {
      "inputs": [
        {
          "internalType": "uint256",
          "name": "tokenId",
          "type": "uint256"
        }
      ],
      "name": "createMarketSale",
      "outputs": [],
      "stateMutability": "payable",
      "type": "function"
    },
    {
      "inputs": [
        {
          "internalType": "string",
          "name": "tokenURI",
          "type": "string"
        },
        {
          "internalType": "uint256",
          "name": "price",
          "type": "uint256"
        }
      ],
      "name": "createToken",
      "outputs": [
        {
          "internalType": "uint256",
          "name": "",
          "type": "uint256"
        }
      ],
      "stateMutability": "payable",
      "type": "function"
    },
    {
      "inputs": [],
      "name": "fetchItemsListed",
      "outputs": [
        {
          "components": [
            {
              "internalType": "uint256",
              "name": "tokenId",
              "type": "uint256"
            },
            {
              "internalType": "address payable",
              "name": "seller",
              "type": "address"
            },
            {
              "internalType": "address payable",
              "name": "owner",
              "type": "address"
            },
            {
              "internalType": "uint256",
              "name": "price",
              "type": "uint256"
            },
            {
              "internalType": "bool",
              "name": "sold",
              "type": "bool"
            }
          ],
          "internalType": "struct NFTMarket.MarketItem[]",
          "name": "",
          "type": "tuple[]"
        }
      ],
      "stateMutability": "view",
      "type": "function"
    },
    {
      "inputs": [],
      "name": "fetchMarketItems",
      "outputs": [
        {
          "components": [
            {
              "internalType": "uint256",
              "name": "tokenId",
              "type": "uint256"
            },
            {
              "internalType": "address payable",
              "name": "seller",
              "type": "address"
            },
            {
              "internalType": "address payable",
              "name": "owner",
              "type": "address"
            },
            {
              "internalType": "uint256",
              "name": "price",
              "type": "uint256"
            },
            {
              "internalType": "bool",
              "name": "sold",
              "type": "bool"
            }
          ],
          "internalType": "struct NFTMarket.MarketItem[]",
          "name": "",
          "type": "tuple[]"
        }
      ],
      "stateMutability": "view",
      "type": "function"
    },
    {
      "inputs": [],
      "name": "fetchMyNFTs",
      "outputs": [
        {
          "components": [
            {
              "internalType": "uint256",
              "name": "tokenId",
              "type": "uint256"
            },
            {
              "internalType": "address payable",
              "name": "seller",
              "type": "address"
            },
            {
              "internalType": "address payable",
              "name": "owner",
              "type": "address"
            },
            {
              "internalType": "uint256",
              "name": "price",
              "type": "uint256"
            },
            {
              "internalType": "bool",
              "name": "sold",
              "type": "bool"
            }
          ],
          "internalType": "struct NFTMarket.MarketItem[]",
          "name": "",
          "type": "tuple[]"
        }
      ],
      "stateMutability": "view",
      "type": "function"
    },
    {
      "inputs": [
        {
          "internalType": "uint256",
          "name": "tokenId",
          "type": "uint256"
        }
      ],
      "name": "getApproved",
      "outputs": [
        {
          "internalType": "address",
          "name": "",
          "type": "address"
        }
      ],
      "stateMutability": "view",
      "type": "function"
    },
    {
      "inputs": [],
      "name": "getListingPrice",
      "outputs": [
        {
          "internalType": "uint256",
          "name": "",
          "type": "uint256"
        }
      ],
      "stateMutability": "view",
      "type": "function"
    },
    {
      "inputs": [
        {
          "internalType": "uint256",
          "name": "tokenId",
          "type": "uint256"
        }
      ],
      "name": "getMarketItemById",
      "outputs": [
        {
          "components": [
            {
              "internalType": "uint256",
              "name": "tokenId",
              "type": "uint256"
            },
            {
              "internalType": "address payable",
              "name": "seller",
              "type": "address"
            },
            {
              "internalType": "address payable",
              "name": "owner",
              "type": "address"
            },
            {
              "internalType": "uint256",
              "name": "price",
              "type": "uint256"
            },
            {
              "internalType": "bool",
              "name": "sold",
              "type": "bool"
            }
          ],
          "internalType": "struct NFTMarket.MarketItem",
          "name": "",
          "type": "tuple"
        }
      ],
      "stateMutability": "view",
      "type": "function"
    },
    {
      "inputs": [
        {
          "internalType": "address",
          "name": "owner",
          "type": "address"
        },
        {
          "internalType": "address",
          "name": "operator",
          "type": "address"
        }
      ],
      "name": "isApprovedForAll",
      "outputs": [
        {
          "internalType": "bool",
          "name": "",
          "type": "bool"
        }
      ],
      "stateMutability": "view",
      "type": "function"
    },
    {
      "inputs": [],
      "name": "name",
      "outputs": [
        {
          "internalType": "string",
          "name": "",
          "type": "string"
        }
      ],
      "stateMutability": "view",
      "type": "function"
    },
    {
      "inputs": [
        {
          "internalType": "uint256",
          "name": "tokenId",
          "type": "uint256"
        }
      ],
      "name": "ownerOf",
      "outputs": [
        {
          "internalType": "address",
          "name": "",
          "type": "address"
        }
      ],
      "stateMutability": "view",
      "type": "function"
    },
    {
      "inputs": [
        {
          "internalType": "uint256",
          "name": "tokenId",
          "type": "uint256"
        },
        {
          "internalType": "uint256",
          "name": "price",
          "type": "uint256"
        }
      ],
      "name": "resellToken",
      "outputs": [],
      "stateMutability": "payable",
      "type": "function"
    },
    {
      "inputs": [
        {
          "internalType": "address",
          "name": "from",
          "type": "address"
        },
        {
          "internalType": "address",
          "name": "to",
          "type": "address"
        },
        {
          "internalType": "uint256",
          "name": "tokenId",
          "type": "uint256"
        }
      ],
      "name": "safeTransferFrom",
      "outputs": [],
      "stateMutability": "nonpayable",
      "type": "function"
    },
    {
      "inputs": [
        {
          "internalType": "address",
          "name": "from",
          "type": "address"
        },
        {
          "internalType": "address",
          "name": "to",
          "type": "address"
        },
        {
          "internalType": "uint256",
          "name": "tokenId",
          "type": "uint256"
        },
        {
          "internalType": "bytes",
          "name": "data",
          "type": "bytes"
        }
      ],
      "name": "safeTransferFrom",
      "outputs": [],
      "stateMutability": "nonpayable",
      "type": "function"
    },
    {
      "inputs": [
        {
          "internalType": "address",
          "name": "operator",
          "type": "address"
        },
        {
          "internalType": "bool",
          "name": "approved",
          "type": "bool"
        }
      ],
      "name": "setApprovalForAll",
      "outputs": [],
      "stateMutability": "nonpayable",
      "type": "function"
    },
    {
      "inputs": [
        {
          "internalType": "bytes4",
          "name": "interfaceId",
          "type": "bytes4"
        }
      ],
      "name": "supportsInterface",
      "outputs": [
        {
          "internalType": "bool",
          "name": "",
          "type": "bool"
        }
      ],
      "stateMutability": "view",
      "type": "function"
    },
    {
      "inputs": [],
      "name": "symbol",
      "outputs": [
        {
          "internalType": "string",
          "name": "",
          "type": "string"
        }
      ],
      "stateMutability": "view",
      "type": "function"
    },
    {
      "inputs": [
        {
          "internalType": "uint256",
          "name": "tokenId",
          "type": "uint256"
        }
      ],
      "name": "tokenURI",
      "outputs": [
        {
          "internalType": "string",
          "name": "",
          "type": "string"
        }
      ],
      "stateMutability": "view",
      "type": "function"
    },
    {
      "inputs": [
        {
          "internalType": "address",
          "name": "from",
          "type": "address"
        },
        {
          "internalType": "address",
          "name": "to",
          "type": "address"
        },
        {
          "internalType": "uint256",
          "name": "tokenId",
          "type": "uint256"
        }
      ],
      "name": "transferFrom",
      "outputs": [],
      "stateMutability": "nonpayable",
      "type": "function"
    },
    {
      "inputs": [
        {
          "internalType": "uint256",
          "name": "_listingPrice",
          "type": "uint256"
        }
      ],
      "name": "updateListingPrice",
      "outputs": [],
      "stateMutability": "payable",
      "type": "function"
    }
  ],
  "bytecode": "0x608060405260006009553480156200001657600080fd5b506040518060400160405280601081526020017f4d657461766572736520546f6b656e73000000000000000000000000000000008152506040518060400160405280600481526020017f4d4554540000000000000000000000000000000000000000000000000000000081525081600090805190602001906200009b929190620000fe565b508060019080519060200190620000b4929190620000fe565b50505033600a60006101000a81548173ffffffffffffffffffffffffffffffffffffffff021916908373ffffffffffffffffffffffffffffffffffffffff16021790555062000213565b8280546200010c90620001ae565b90600052602060002090601f0160209004810192826200013057600085556200017c565b82601f106200014b57805160ff19168380011785556200017c565b828001600101855582156200017c579182015b828111156200017b5782518255916020019190600101906200015e565b5b5090506200018b91906200018f565b5090565b5b80821115620001aa57600081600090555060010162000190565b5090565b60006002820490506001821680620001c757607f821691505b60208210811415620001de57620001dd620001e4565b5b50919050565b7f4e487b7100000000000000000000000000000000000000000000000000000000600052602260045260246000fd5b6144a880620002236000396000f3fe6080604052600436106101405760003560e01c806353dbceb1116100b6578063ae677aa31161006f578063ae677aa314610468578063b88d4fde14610484578063be9af536146104ad578063c87b56dd146104c9578063e219fc7514610506578063e985e9c51461052257610140565b806353dbceb11461032d5780636352211e1461036a57806370a08231146103a757806372b3b620146103e457806395d89b4114610414578063a22cb4651461043f57610140565b806312e855851161010857806312e855851461023e578063202e37401461026957806323b872dd14610294578063361c1995146102bd57806342842e0e146102d957806345f8fa801461030257610140565b806301ffc9a71461014557806306fdde0314610182578063081812fc146101ad578063095ea7b3146101ea5780630f08efe014610213575b600080fd5b34801561015157600080fd5b5061016c60048036038101906101679190613264565b61055f565b604051610179919061391a565b60405180910390f35b34801561018e57600080fd5b506101976105c0565b6040516101a49190613935565b60405180910390f35b3480156101b957600080fd5b506101d460048036038101906101cf919061330a565b610652565b6040516101e1919061384c565b60405180910390f35b3480156101f657600080fd5b50610211600480360381019061020c9190613228565b610698565b005b34801561021f57600080fd5b506102286107b0565b60405161023591906138f8565b60405180910390f35b34801561024a57600080fd5b50610253610a65565b6040516102609190613bb2565b60405180910390f35b34801561027557600080fd5b5061027e610a6f565b60405161028b91906138f8565b60405180910390f35b3480156102a057600080fd5b506102bb60048036038101906102b69190613122565b610da9565b005b6102d760048036038101906102d29190613333565b610e09565b005b3480156102e557600080fd5b5061030060048036038101906102fb9190613122565b61100c565b005b34801561030e57600080fd5b5061031761102c565b60405161032491906138f8565b60405180910390f35b34801561033957600080fd5b50610354600480360381019061034f919061330a565b611366565b6040516103619190613b97565b60405180910390f35b34801561037657600080fd5b50610391600480360381019061038c919061330a565b61146e565b60405161039e919061384c565b60405180910390f35b3480156103b357600080fd5b506103ce60048036038101906103c991906130bd565b6114f5565b6040516103db9190613bb2565b60405180910390f35b6103fe60048036038101906103f991906132b6565b6115ad565b60405161040b9190613bb2565b60405180910390f35b34801561042057600080fd5b506104296115ef565b6040516104369190613935565b60405180910390f35b34801561044b57600080fd5b50610466600480360381019061046191906131ec565b611681565b005b610482600480360381019061047d919061330a565b611697565b005b34801561049057600080fd5b506104ab60048036038101906104a69190613171565b611731565b005b6104c760048036038101906104c2919061330a565b611793565b005b3480156104d557600080fd5b506104f060048036038101906104eb919061330a565b6119d1565b6040516104fd9190613935565b60405180910390f35b610520600480360381019061051b9190613333565b611ae4565b005b34801561052e57600080fd5b50610549600480360381019061054491906130e6565b611cd9565b604051610556919061391a565b60405180910390f35b6000634906490660e01b7bffffffffffffffffffffffffffffffffffffffffffffffffffffffff1916827bffffffffffffffffffffffffffffffffffffffffffffffffffffffff191614806105b957506105b882611d6d565b5b9050919050565b6060600080546105cf90613e22565b80601f01602080910402602001604051908101604052809291908181526020018280546105fb90613e22565b80156106485780601f1061061d57610100808354040283529160200191610648565b820191906000526020600020905b81548152906001019060200180831161062b57829003601f168201915b5050505050905090565b600061065d82611e4f565b6004600083815260200190815260200160002060009054906101000a900473ffffffffffffffffffffffffffffffffffffffff169050919050565b60006106a38261146e565b90508073ffffffffffffffffffffffffffffffffffffffff168373ffffffffffffffffffffffffffffffffffffffff161415610714576040517f08c379a000000000000000000000000000000000000000000000000000000000815260040161070b90613af7565b60405180910390fd5b8073ffffffffffffffffffffffffffffffffffffffff16610733611e9a565b73ffffffffffffffffffffffffffffffffffffffff16148061076257506107618161075c611e9a565b611cd9565b5b6107a1576040517f08c379a000000000000000000000000000000000000000000000000000000000815260040161079890613b37565b60405180910390fd5b6107ab8383611ea2565b505050565b606060006107be6007611f5b565b905060006107cc6008611f5b565b6107d66007611f5b565b6107e09190613d26565b90506000808267ffffffffffffffff811115610825577f4e487b7100000000000000000000000000000000000000000000000000000000600052604160045260246000fd5b60405190808252806020026020018201604052801561085e57816020015b61084b612e84565b8152602001906001900390816108435790505b50905060005b84811015610a5a573073ffffffffffffffffffffffffffffffffffffffff16600b60006001846108949190613cd0565b815260200190815260200160002060020160009054906101000a900473ffffffffffffffffffffffffffffffffffffffff1673ffffffffffffffffffffffffffffffffffffffff161415610a475760006001826108f19190613cd0565b90506000600b60008381526020019081526020016000209050806040518060a0016040529081600082015481526020016001820160009054906101000a900473ffffffffffffffffffffffffffffffffffffffff1673ffffffffffffffffffffffffffffffffffffffff1673ffffffffffffffffffffffffffffffffffffffff1681526020016002820160009054906101000a900473ffffffffffffffffffffffffffffffffffffffff1673ffffffffffffffffffffffffffffffffffffffff1673ffffffffffffffffffffffffffffffffffffffff168152602001600382015481526020016004820160009054906101000a900460ff161515151581525050848681518110610a2a577f4e487b7100000000000000000000000000000000000000000000000000000000600052603260045260246000fd5b6020026020010181905250600185610a429190613cd0565b945050505b8080610a5290613e85565b915050610864565b508094505050505090565b6000600954905090565b60606000610a7d6007611f5b565b905060008060005b83811015610b26573373ffffffffffffffffffffffffffffffffffffffff16600b6000600184610ab59190613cd0565b815260200190815260200160002060020160009054906101000a900473ffffffffffffffffffffffffffffffffffffffff1673ffffffffffffffffffffffffffffffffffffffff161415610b1357600183610b109190613cd0565b92505b8080610b1e90613e85565b915050610a85565b5060008267ffffffffffffffff811115610b69577f4e487b7100000000000000000000000000000000000000000000000000000000600052604160045260246000fd5b604051908082528060200260200182016040528015610ba257816020015b610b8f612e84565b815260200190600190039081610b875790505b50905060005b84811015610d9e573373ffffffffffffffffffffffffffffffffffffffff16600b6000600184610bd89190613cd0565b815260200190815260200160002060020160009054906101000a900473ffffffffffffffffffffffffffffffffffffffff1673ffffffffffffffffffffffffffffffffffffffff161415610d8b576000600182610c359190613cd0565b90506000600b60008381526020019081526020016000209050806040518060a0016040529081600082015481526020016001820160009054906101000a900473ffffffffffffffffffffffffffffffffffffffff1673ffffffffffffffffffffffffffffffffffffffff1673ffffffffffffffffffffffffffffffffffffffff1681526020016002820160009054906101000a900473ffffffffffffffffffffffffffffffffffffffff1673ffffffffffffffffffffffffffffffffffffffff1673ffffffffffffffffffffffffffffffffffffffff168152602001600382015481526020016004820160009054906101000a900460ff161515151581525050848681518110610d6e577f4e487b7100000000000000000000000000000000000000000000000000000000600052603260045260246000fd5b6020026020010181905250600185610d869190613cd0565b945050505b8080610d9690613e85565b915050610ba8565b508094505050505090565b610dba610db4611e9a565b82611f69565b610df9576040517f08c379a0000000000000000000000000000000000000000000000000000000008152600401610df090613957565b60405180910390fd5b610e04838383611ffe565b505050565b60008111610e4c576040517f08c379a0000000000000000000000000000000000000000000000000000000008152600401610e4390613b77565b60405180910390fd5b6009543414610e90576040517f08c379a0000000000000000000000000000000000000000000000000000000008152600401610e8790613b17565b60405180910390fd5b6040518060a001604052808381526020013373ffffffffffffffffffffffffffffffffffffffff1681526020013073ffffffffffffffffffffffffffffffffffffffff16815260200182815260200160001515815250600b60008481526020019081526020016000206000820151816000015560208201518160010160006101000a81548173ffffffffffffffffffffffffffffffffffffffff021916908373ffffffffffffffffffffffffffffffffffffffff16021790555060408201518160020160006101000a81548173ffffffffffffffffffffffffffffffffffffffff021916908373ffffffffffffffffffffffffffffffffffffffff1602179055506060820151816003015560808201518160040160006101000a81548160ff021916908315150217905550905050610fc9333084611ffe565b817fb640004f1d14576d0c209e240cad0410e0d8c0c33a09375861fbadae2588a98d33308460006040516110009493929190613867565b60405180910390a25050565b61102783838360405180602001604052806000815250611731565b505050565b6060600061103a6007611f5b565b905060008060005b838110156110e3573373ffffffffffffffffffffffffffffffffffffffff16600b60006001846110729190613cd0565b815260200190815260200160002060010160009054906101000a900473ffffffffffffffffffffffffffffffffffffffff1673ffffffffffffffffffffffffffffffffffffffff1614156110d0576001836110cd9190613cd0565b92505b80806110db90613e85565b915050611042565b5060008267ffffffffffffffff811115611126577f4e487b7100000000000000000000000000000000000000000000000000000000600052604160045260246000fd5b60405190808252806020026020018201604052801561115f57816020015b61114c612e84565b8152602001906001900390816111445790505b50905060005b8481101561135b573373ffffffffffffffffffffffffffffffffffffffff16600b60006001846111959190613cd0565b815260200190815260200160002060010160009054906101000a900473ffffffffffffffffffffffffffffffffffffffff1673ffffffffffffffffffffffffffffffffffffffff1614156113485760006001826111f29190613cd0565b90506000600b60008381526020019081526020016000209050806040518060a0016040529081600082015481526020016001820160009054906101000a900473ffffffffffffffffffffffffffffffffffffffff1673ffffffffffffffffffffffffffffffffffffffff1673ffffffffffffffffffffffffffffffffffffffff1681526020016002820160009054906101000a900473ffffffffffffffffffffffffffffffffffffffff1673ffffffffffffffffffffffffffffffffffffffff1673ffffffffffffffffffffffffffffffffffffffff168152602001600382015481526020016004820160009054906101000a900460ff16151515158152505084868151811061132b577f4e487b7100000000000000000000000000000000000000000000000000000000600052603260045260246000fd5b60200260200101819052506001856113439190613cd0565b945050505b808061135390613e85565b915050611165565b508094505050505090565b61136e612e84565b600b60008381526020019081526020016000206040518060a0016040529081600082015481526020016001820160009054906101000a900473ffffffffffffffffffffffffffffffffffffffff1673ffffffffffffffffffffffffffffffffffffffff1673ffffffffffffffffffffffffffffffffffffffff1681526020016002820160009054906101000a900473ffffffffffffffffffffffffffffffffffffffff1673ffffffffffffffffffffffffffffffffffffffff1673ffffffffffffffffffffffffffffffffffffffff168152602001600382015481526020016004820160009054906101000a900460ff1615151515815250509050919050565b60008061147a836122f8565b9050600073ffffffffffffffffffffffffffffffffffffffff168173ffffffffffffffffffffffffffffffffffffffff1614156114ec576040517f08c379a00000000000000000000000000000000000000000000000000000000081526004016114e390613ad7565b60405180910390fd5b80915050919050565b60008073ffffffffffffffffffffffffffffffffffffffff168273ffffffffffffffffffffffffffffffffffffffff161415611566576040517f08c379a000000000000000000000000000000000000000000000000000000000815260040161155d90613a37565b60405180910390fd5b600360008373ffffffffffffffffffffffffffffffffffffffff1673ffffffffffffffffffffffffffffffffffffffff168152602001908152602001600020549050919050565b60006115b96007612335565b60006115c56007611f5b565b90506115d1338261234b565b6115db8185612569565b6115e58184610e09565b8091505092915050565b6060600180546115fe90613e22565b80601f016020809104026020016040519081016040528092919081815260200182805461162a90613e22565b80156116775780601f1061164c57610100808354040283529160200191611677565b820191906000526020600020905b81548152906001019060200180831161165a57829003601f168201915b5050505050905090565b61169361168c611e9a565b8383612614565b5050565b3373ffffffffffffffffffffffffffffffffffffffff16600a60009054906101000a900473ffffffffffffffffffffffffffffffffffffffff1673ffffffffffffffffffffffffffffffffffffffff1614611727576040517f08c379a000000000000000000000000000000000000000000000000000000000815260040161171e90613b57565b60405180910390fd5b8060098190555050565b61174261173c611e9a565b83611f69565b611781576040517f08c379a000000000000000000000000000000000000000000000000000000000815260040161177890613957565b60405180910390fd5b61178d84848484612781565b50505050565b6000600b60008381526020019081526020016000206003015490506000600b600084815260200190815260200160002060010160009054906101000a900473ffffffffffffffffffffffffffffffffffffffff16905081341461182b576040517f08c379a000000000000000000000000000000000000000000000000000000000815260040161182290613a77565b60405180910390fd5b33600b600085815260200190815260200160002060020160006101000a81548173ffffffffffffffffffffffffffffffffffffffff021916908373ffffffffffffffffffffffffffffffffffffffff1602179055506001600b600085815260200190815260200160002060040160006101000a81548160ff0219169083151502179055506000600b600085815260200190815260200160002060010160006101000a81548173ffffffffffffffffffffffffffffffffffffffff021916908373ffffffffffffffffffffffffffffffffffffffff16021790555061190f6008612335565b61191a303385611ffe565b600a60009054906101000a900473ffffffffffffffffffffffffffffffffffffffff1673ffffffffffffffffffffffffffffffffffffffff166108fc6009549081150290604051600060405180830381858888f19350505050158015611984573d6000803e3d6000fd5b508073ffffffffffffffffffffffffffffffffffffffff166108fc349081150290604051600060405180830381858888f193505050501580156119cb573d6000803e3d6000fd5b50505050565b60606119dc82611e4f565b60006006600084815260200190815260200160002080546119fc90613e22565b80601f0160208091040260200160405190810160405280929190818152602001828054611a2890613e22565b8015611a755780601f10611a4a57610100808354040283529160200191611a75565b820191906000526020600020905b815481529060010190602001808311611a5857829003601f168201915b505050505090506000611a866127dd565b9050600081511415611a9c578192505050611adf565b600082511115611ad1578082604051602001611ab9929190613828565b60405160208183030381529060405292505050611adf565b611ada846127f4565b925050505b919050565b3373ffffffffffffffffffffffffffffffffffffffff16600b600084815260200190815260200160002060020160009054906101000a900473ffffffffffffffffffffffffffffffffffffffff1673ffffffffffffffffffffffffffffffffffffffff1614611b88576040517f08c379a0000000000000000000000000000000000000000000000000000000008152600401611b7f90613ab7565b60405180910390fd5b6009543414611bcc576040517f08c379a0000000000000000000000000000000000000000000000000000000008152600401611bc390613b17565b60405180910390fd5b6000600b600084815260200190815260200160002060040160006101000a81548160ff02191690831515021790555080600b60008481526020019081526020016000206003018190555033600b600084815260200190815260200160002060010160006101000a81548173ffffffffffffffffffffffffffffffffffffffff021916908373ffffffffffffffffffffffffffffffffffffffff16021790555030600b600084815260200190815260200160002060020160006101000a81548173ffffffffffffffffffffffffffffffffffffffff021916908373ffffffffffffffffffffffffffffffffffffffff160217905550611cca600861285c565b611cd5333084611ffe565b5050565b6000600560008473ffffffffffffffffffffffffffffffffffffffff1673ffffffffffffffffffffffffffffffffffffffff16815260200190815260200160002060008373ffffffffffffffffffffffffffffffffffffffff1673ffffffffffffffffffffffffffffffffffffffff16815260200190815260200160002060009054906101000a900460ff16905092915050565b60007f80ac58cd000000000000000000000000000000000000000000000000000000007bffffffffffffffffffffffffffffffffffffffffffffffffffffffff1916827bffffffffffffffffffffffffffffffffffffffffffffffffffffffff19161480611e3857507f5b5e139f000000000000000000000000000000000000000000000000000000007bffffffffffffffffffffffffffffffffffffffffffffffffffffffff1916827bffffffffffffffffffffffffffffffffffffffffffffffffffffffff1916145b80611e485750611e47826128b8565b5b9050919050565b611e5881612922565b611e97576040517f08c379a0000000000000000000000000000000000000000000000000000000008152600401611e8e90613ad7565b60405180910390fd5b50565b600033905090565b816004600083815260200190815260200160002060006101000a81548173ffffffffffffffffffffffffffffffffffffffff021916908373ffffffffffffffffffffffffffffffffffffffff160217905550808273ffffffffffffffffffffffffffffffffffffffff16611f158361146e565b73ffffffffffffffffffffffffffffffffffffffff167f8c5be1e5ebec7d5bd14f71427d1e84f3dd0314c0f7b2291e5b200ac8c7c3b92560405160405180910390a45050565b600081600001549050919050565b600080611f758361146e565b90508073ffffffffffffffffffffffffffffffffffffffff168473ffffffffffffffffffffffffffffffffffffffff161480611fb75750611fb68185611cd9565b5b80611ff557508373ffffffffffffffffffffffffffffffffffffffff16611fdd84610652565b73ffffffffffffffffffffffffffffffffffffffff16145b91505092915050565b8273ffffffffffffffffffffffffffffffffffffffff1661201e8261146e565b73ffffffffffffffffffffffffffffffffffffffff1614612074576040517f08c379a000000000000000000000000000000000000000000000000000000000815260040161206b906139b7565b60405180910390fd5b600073ffffffffffffffffffffffffffffffffffffffff168273ffffffffffffffffffffffffffffffffffffffff1614156120e4576040517f08c379a00000000000000000000000000000000000000000000000000000000081526004016120db906139f7565b60405180910390fd5b6120f18383836001612963565b8273ffffffffffffffffffffffffffffffffffffffff166121118261146e565b73ffffffffffffffffffffffffffffffffffffffff1614612167576040517f08c379a000000000000000000000000000000000000000000000000000000000815260040161215e906139b7565b60405180910390fd5b6004600082815260200190815260200160002060006101000a81549073ffffffffffffffffffffffffffffffffffffffff02191690556001600360008573ffffffffffffffffffffffffffffffffffffffff1673ffffffffffffffffffffffffffffffffffffffff168152602001908152602001600020600082825403925050819055506001600360008473ffffffffffffffffffffffffffffffffffffffff1673ffffffffffffffffffffffffffffffffffffffff16815260200190815260200160002060008282540192505081905550816002600083815260200190815260200160002060006101000a81548173ffffffffffffffffffffffffffffffffffffffff021916908373ffffffffffffffffffffffffffffffffffffffff160217905550808273ffffffffffffffffffffffffffffffffffffffff168473ffffffffffffffffffffffffffffffffffffffff167fddf252ad1be2c89b69c2b068fc378daa952ba7f163c4a11628f55a4df523b3ef60405160405180910390a46122f38383836001612969565b505050565b60006002600083815260200190815260200160002060009054906101000a900473ffffffffffffffffffffffffffffffffffffffff169050919050565b6001816000016000828254019250508190555050565b600073ffffffffffffffffffffffffffffffffffffffff168273ffffffffffffffffffffffffffffffffffffffff1614156123bb576040517f08c379a00000000000000000000000000000000000000000000000000000000081526004016123b290613a97565b60405180910390fd5b6123c481612922565b15612404576040517f08c379a00000000000000000000000000000000000000000000000000000000081526004016123fb906139d7565b60405180910390fd5b612412600083836001612963565b61241b81612922565b1561245b576040517f08c379a0000000000000000000000000000000000000000000000000000000008152600401612452906139d7565b60405180910390fd5b6001600360008473ffffffffffffffffffffffffffffffffffffffff1673ffffffffffffffffffffffffffffffffffffffff16815260200190815260200160002060008282540192505081905550816002600083815260200190815260200160002060006101000a81548173ffffffffffffffffffffffffffffffffffffffff021916908373ffffffffffffffffffffffffffffffffffffffff160217905550808273ffffffffffffffffffffffffffffffffffffffff16600073ffffffffffffffffffffffffffffffffffffffff167fddf252ad1be2c89b69c2b068fc378daa952ba7f163c4a11628f55a4df523b3ef60405160405180910390a4612565600083836001612969565b5050565b61257282612922565b6125b1576040517f08c379a00000000000000000000000000000000000000000000000000000000081526004016125a890613a57565b60405180910390fd5b806006600084815260200190815260200160002090805190602001906125d8929190612ee1565b507ff8e1a15aba9398e019f0b49df1a4fde98ee17ae345cb5f6b5e2c27f5033e8ce7826040516126089190613bb2565b60405180910390a15050565b8173ffffffffffffffffffffffffffffffffffffffff168373ffffffffffffffffffffffffffffffffffffffff161415612683576040517f08c379a000000000000000000000000000000000000000000000000000000000815260040161267a90613a17565b60405180910390fd5b80600560008573ffffffffffffffffffffffffffffffffffffffff1673ffffffffffffffffffffffffffffffffffffffff16815260200190815260200160002060008473ffffffffffffffffffffffffffffffffffffffff1673ffffffffffffffffffffffffffffffffffffffff16815260200190815260200160002060006101000a81548160ff0219169083151502179055508173ffffffffffffffffffffffffffffffffffffffff168373ffffffffffffffffffffffffffffffffffffffff167f17307eab39ab6107e8899845ad3d59bd9653f200f220920489ca2b5937696c3183604051612774919061391a565b60405180910390a3505050565b61278c848484611ffe565b6127988484848461296f565b6127d7576040517f08c379a00000000000000000000000000000000000000000000000000000000081526004016127ce90613997565b60405180910390fd5b50505050565b606060405180602001604052806000815250905090565b60606127ff82611e4f565b60006128096127dd565b905060008151116128295760405180602001604052806000815250612854565b8061283384612b06565b604051602001612844929190613828565b6040516020818303038152906040525b915050919050565b600081600001549050600081116128a8576040517f08c379a000000000000000000000000000000000000000000000000000000000815260040161289f90613977565b60405180910390fd5b6001810382600001819055505050565b60007f01ffc9a7000000000000000000000000000000000000000000000000000000007bffffffffffffffffffffffffffffffffffffffffffffffffffffffff1916827bffffffffffffffffffffffffffffffffffffffffffffffffffffffff1916149050919050565b60008073ffffffffffffffffffffffffffffffffffffffff16612944836122f8565b73ffffffffffffffffffffffffffffffffffffffff1614159050919050565b50505050565b50505050565b60006129908473ffffffffffffffffffffffffffffffffffffffff16612c2a565b15612af9578373ffffffffffffffffffffffffffffffffffffffff1663150b7a026129b9611e9a565b8786866040518563ffffffff1660e01b81526004016129db94939291906138ac565b602060405180830381600087803b1580156129f557600080fd5b505af1925050508015612a2657506040513d601f19601f82011682018060405250810190612a23919061328d565b60015b612aa9573d8060008114612a56576040519150601f19603f3d011682016040523d82523d6000602084013e612a5b565b606091505b50600081511415612aa1576040517f08c379a0000000000000000000000000000000000000000000000000000000008152600401612a9890613997565b60405180910390fd5b805181602001fd5b63150b7a0260e01b7bffffffffffffffffffffffffffffffffffffffffffffffffffffffff1916817bffffffffffffffffffffffffffffffffffffffffffffffffffffffff191614915050612afe565b600190505b949350505050565b606060006001612b1584612c4d565b01905060008167ffffffffffffffff811115612b5a577f4e487b7100000000000000000000000000000000000000000000000000000000600052604160045260246000fd5b6040519080825280601f01601f191660200182016040528015612b8c5781602001600182028036833780820191505090505b509050600082602001820190505b600115612c1f578080600190039150507f3031323334353637383961626364656600000000000000000000000000000000600a86061a8153600a8581612c09577f4e487b7100000000000000000000000000000000000000000000000000000000600052601260045260246000fd5b0494506000851415612c1a57612c1f565b612b9a565b819350505050919050565b6000808273ffffffffffffffffffffffffffffffffffffffff163b119050919050565b600080600090507a184f03e93ff9f4daa797ed6e38ed64bf6a1f0100000000000000008310612cd1577a184f03e93ff9f4daa797ed6e38ed64bf6a1f0100000000000000008381612cc7577f4e487b7100000000000000000000000000000000000000000000000000000000600052601260045260246000fd5b0492506040810190505b6d04ee2d6d415b85acef81000000008310612d34576d04ee2d6d415b85acef81000000008381612d2a577f4e487b7100000000000000000000000000000000000000000000000000000000600052601260045260246000fd5b0492506020810190505b662386f26fc100008310612d8957662386f26fc100008381612d7f577f4e487b7100000000000000000000000000000000000000000000000000000000600052601260045260246000fd5b0492506010810190505b6305f5e1008310612dd8576305f5e1008381612dce577f4e487b7100000000000000000000000000000000000000000000000000000000600052601260045260246000fd5b0492506008810190505b6127108310612e23576127108381612e19577f4e487b7100000000000000000000000000000000000000000000000000000000600052601260045260246000fd5b0492506004810190505b60648310612e6c5760648381612e62577f4e487b7100000000000000000000000000000000000000000000000000000000600052601260045260246000fd5b0492506002810190505b600a8310612e7b576001810190505b80915050919050565b6040518060a0016040528060008152602001600073ffffffffffffffffffffffffffffffffffffffff168152602001600073ffffffffffffffffffffffffffffffffffffffff168152602001600081526020016000151581525090565b828054612eed90613e22565b90600052602060002090601f016020900481019282612f0f5760008555612f56565b82601f10612f2857805160ff1916838001178555612f56565b82800160010185558215612f56579182015b82811115612f55578251825591602001919060010190612f3a565b5b509050612f639190612f67565b5090565b5b80821115612f80576000816000905550600101612f68565b5090565b6000612f97612f9284613bf2565b613bcd565b905082815260208101848484011115612faf57600080fd5b612fba848285613de0565b509392505050565b6000612fd5612fd084613c23565b613bcd565b905082815260208101848484011115612fed57600080fd5b612ff8848285613de0565b509392505050565b60008135905061300f81614416565b92915050565b6000813590506130248161442d565b92915050565b60008135905061303981614444565b92915050565b60008151905061304e81614444565b92915050565b600082601f83011261306557600080fd5b8135613075848260208601612f84565b91505092915050565b600082601f83011261308f57600080fd5b813561309f848260208601612fc2565b91505092915050565b6000813590506130b78161445b565b92915050565b6000602082840312156130cf57600080fd5b60006130dd84828501613000565b91505092915050565b600080604083850312156130f957600080fd5b600061310785828601613000565b925050602061311885828601613000565b9150509250929050565b60008060006060848603121561313757600080fd5b600061314586828701613000565b935050602061315686828701613000565b9250506040613167868287016130a8565b9150509250925092565b6000806000806080858703121561318757600080fd5b600061319587828801613000565b94505060206131a687828801613000565b93505060406131b7878288016130a8565b925050606085013567ffffffffffffffff8111156131d457600080fd5b6131e087828801613054565b91505092959194509250565b600080604083850312156131ff57600080fd5b600061320d85828601613000565b925050602061321e85828601613015565b9150509250929050565b6000806040838503121561323b57600080fd5b600061324985828601613000565b925050602061325a858286016130a8565b9150509250929050565b60006020828403121561327657600080fd5b60006132848482850161302a565b91505092915050565b60006020828403121561329f57600080fd5b60006132ad8482850161303f565b91505092915050565b600080604083850312156132c957600080fd5b600083013567ffffffffffffffff8111156132e357600080fd5b6132ef8582860161307e565b9250506020613300858286016130a8565b9150509250929050565b60006020828403121561331c57600080fd5b600061332a848285016130a8565b91505092915050565b6000806040838503121561334657600080fd5b6000613354858286016130a8565b9250506020613365858286016130a8565b9150509250929050565b600061337b838361373a565b60a08301905092915050565b61339081613d6c565b82525050565b61339f81613d5a565b82525050565b60006133b082613c64565b6133ba8185613c92565b93506133c583613c54565b8060005b838110156133f65781516133dd888261336f565b97506133e883613c85565b9250506001810190506133c9565b5085935050505092915050565b61340c81613d7e565b82525050565b61341b81613d7e565b82525050565b600061342c82613c6f565b6134368185613ca3565b9350613446818560208601613def565b61344f81613f5b565b840191505092915050565b600061346582613c7a565b61346f8185613cb4565b935061347f818560208601613def565b61348881613f5b565b840191505092915050565b600061349e82613c7a565b6134a88185613cc5565b93506134b8818560208601613def565b80840191505092915050565b60006134d1602d83613cb4565b91506134dc82613f6c565b604082019050919050565b60006134f4601b83613cb4565b91506134ff82613fbb565b602082019050919050565b6000613517603283613cb4565b915061352282613fe4565b604082019050919050565b600061353a602583613cb4565b915061354582614033565b604082019050919050565b600061355d601c83613cb4565b915061356882614082565b602082019050919050565b6000613580602483613cb4565b915061358b826140ab565b604082019050919050565b60006135a3601983613cb4565b91506135ae826140fa565b602082019050919050565b60006135c6602983613cb4565b91506135d182614123565b604082019050919050565b60006135e9602e83613cb4565b91506135f482614172565b604082019050919050565b600061360c604083613cb4565b9150613617826141c1565b604082019050919050565b600061362f602083613cb4565b915061363a82614210565b602082019050919050565b6000613652602a83613cb4565b915061365d82614239565b604082019050919050565b6000613675601883613cb4565b915061368082614288565b602082019050919050565b6000613698602183613cb4565b91506136a3826142b1565b604082019050919050565b60006136bb602483613cb4565b91506136c682614300565b604082019050919050565b60006136de603d83613cb4565b91506136e98261434f565b604082019050919050565b6000613701603083613cb4565b915061370c8261439e565b604082019050919050565b6000613724601c83613cb4565b915061372f826143ed565b602082019050919050565b60a082016000820151613750600085018261380a565b5060208201516137636020850182613387565b5060408201516137766040850182613387565b506060820151613789606085018261380a565b50608082015161379c6080850182613403565b50505050565b60a0820160008201516137b8600085018261380a565b5060208201516137cb6020850182613387565b5060408201516137de6040850182613387565b5060608201516137f1606085018261380a565b5060808201516138046080850182613403565b50505050565b61381381613dd6565b82525050565b61382281613dd6565b82525050565b60006138348285613493565b91506138408284613493565b91508190509392505050565b60006020820190506138616000830184613396565b92915050565b600060808201905061387c6000830187613396565b6138896020830186613396565b6138966040830185613819565b6138a36060830184613412565b95945050505050565b60006080820190506138c16000830187613396565b6138ce6020830186613396565b6138db6040830185613819565b81810360608301526138ed8184613421565b905095945050505050565b6000602082019050818103600083015261391281846133a5565b905092915050565b600060208201905061392f6000830184613412565b92915050565b6000602082019050818103600083015261394f818461345a565b905092915050565b60006020820190508181036000830152613970816134c4565b9050919050565b60006020820190508181036000830152613990816134e7565b9050919050565b600060208201905081810360008301526139b08161350a565b9050919050565b600060208201905081810360008301526139d08161352d565b9050919050565b600060208201905081810360008301526139f081613550565b9050919050565b60006020820190508181036000830152613a1081613573565b9050919050565b60006020820190508181036000830152613a3081613596565b9050919050565b60006020820190508181036000830152613a50816135b9565b9050919050565b60006020820190508181036000830152613a70816135dc565b9050919050565b60006020820190508181036000830152613a90816135ff565b9050919050565b60006020820190508181036000830152613ab081613622565b9050919050565b60006020820190508181036000830152613ad081613645565b9050919050565b60006020820190508181036000830152613af081613668565b9050919050565b60006020820190508181036000830152613b108161368b565b9050919050565b60006020820190508181036000830152613b30816136ae565b9050919050565b60006020820190508181036000830152613b50816136d1565b9050919050565b60006020820190508181036000830152613b70816136f4565b9050919050565b60006020820190508181036000830152613b9081613717565b9050919050565b600060a082019050613bac60008301846137a2565b92915050565b6000602082019050613bc76000830184613819565b92915050565b6000613bd7613be8565b9050613be38282613e54565b919050565b6000604051905090565b600067ffffffffffffffff821115613c0d57613c0c613f2c565b5b613c1682613f5b565b9050602081019050919050565b600067ffffffffffffffff821115613c3e57613c3d613f2c565b5b613c4782613f5b565b9050602081019050919050565b6000819050602082019050919050565b600081519050919050565b600081519050919050565b600081519050919050565b6000602082019050919050565b600082825260208201905092915050565b600082825260208201905092915050565b600082825260208201905092915050565b600081905092915050565b6000613cdb82613dd6565b9150613ce683613dd6565b9250827fffffffffffffffffffffffffffffffffffffffffffffffffffffffffffffffff03821115613d1b57613d1a613ece565b5b828201905092915050565b6000613d3182613dd6565b9150613d3c83613dd6565b925082821015613d4f57613d4e613ece565b5b828203905092915050565b6000613d6582613db6565b9050919050565b6000613d7782613db6565b9050919050565b60008115159050919050565b60007fffffffff0000000000000000000000000000000000000000000000000000000082169050919050565b600073ffffffffffffffffffffffffffffffffffffffff82169050919050565b6000819050919050565b82818337600083830152505050565b60005b83811015613e0d578082015181840152602081019050613df2565b83811115613e1c576000848401525b50505050565b60006002820490506001821680613e3a57607f821691505b60208210811415613e4e57613e4d613efd565b5b50919050565b613e5d82613f5b565b810181811067ffffffffffffffff82111715613e7c57613e7b613f2c565b5b80604052505050565b6000613e9082613dd6565b91507fffffffffffffffffffffffffffffffffffffffffffffffffffffffffffffffff821415613ec357613ec2613ece565b5b600182019050919050565b7f4e487b7100000000000000000000000000000000000000000000000000000000600052601160045260246000fd5b7f4e487b7100000000000000000000000000000000000000000000000000000000600052602260045260246000fd5b7f4e487b7100000000000000000000000000000000000000000000000000000000600052604160045260246000fd5b6000601f19601f8301169050919050565b7f4552433732313a2063616c6c6572206973206e6f7420746f6b656e206f776e6560008201527f72206f7220617070726f76656400000000000000000000000000000000000000602082015250565b7f436f756e7465723a2064656372656d656e74206f766572666c6f770000000000600082015250565b7f4552433732313a207472616e7366657220746f206e6f6e20455243373231526560008201527f63656976657220696d706c656d656e7465720000000000000000000000000000602082015250565b7f4552433732313a207472616e736665722066726f6d20696e636f72726563742060008201527f6f776e6572000000000000000000000000000000000000000000000000000000602082015250565b7f4552433732313a20746f6b656e20616c7265616479206d696e74656400000000600082015250565b7f4552433732313a207472616e7366657220746f20746865207a65726f2061646460008201527f7265737300000000000000000000000000000000000000000000000000000000602082015250565b7f4552433732313a20617070726f766520746f2063616c6c657200000000000000600082015250565b7f4552433732313a2061646472657373207a65726f206973206e6f74206120766160008201527f6c6964206f776e65720000000000000000000000000000000000000000000000602082015250565b7f45524337323155524953746f726167653a2055524920736574206f66206e6f6e60008201527f6578697374656e7420746f6b656e000000000000000000000000000000000000602082015250565b7f506c65617365207375626d6974207468652061736b696e67207072696365206960008201527f6e206f7264657220746f20636f6d706c65746520746865207075726368617365602082015250565b7f4552433732313a206d696e7420746f20746865207a65726f2061646472657373600082015250565b7f4f6e6c79206974656d206f776e65722063616e20706572666f726d207468697360008201527f206f7065726174696f6e00000000000000000000000000000000000000000000602082015250565b7f4552433732313a20696e76616c696420746f6b656e2049440000000000000000600082015250565b7f4552433732313a20617070726f76616c20746f2063757272656e74206f776e6560008201527f7200000000000000000000000000000000000000000000000000000000000000602082015250565b7f5072696365206d75737420626520657175616c20746f206c697374696e67207060008201527f7269636500000000000000000000000000000000000000000000000000000000602082015250565b7f4552433732313a20617070726f76652063616c6c6572206973206e6f7420746f60008201527f6b656e206f776e6572206f7220617070726f76656420666f7220616c6c000000602082015250565b7f4f6e6c79206d61726b6574706c616365206f776e65722063616e20757064617460008201527f65206c697374696e672070726963652e00000000000000000000000000000000602082015250565b7f5072696365206d757374206265206174206c6561737420312077656900000000600082015250565b61441f81613d5a565b811461442a57600080fd5b50565b61443681613d7e565b811461444157600080fd5b50565b61444d81613d8a565b811461445857600080fd5b50565b61446481613dd6565b811461446f57600080fd5b5056fea2646970667358221220404dfdf1acec90dc0f41a3bba90b5445b90e979ce06b32985f4fe2bcc8e248bd64736f6c63430008040033",
  "linkReferences": {},
  "deployedLinkReferences": {}
}