{
  "_format": "hh-sol-artifact-1",
  "contractName": "NFTMarket",
  "sourceName": "contracts/NFTMarket.sol",
  "abi": [
    {
      "inputs": [],
      "stateMutability": "nonpayable",
      "type": "constructor"
    },
    {
      "anonymous": false,
      "inputs": [
        {
          "indexed": true,
          "internalType": "uint256",
          "name": "itemId",
          "type": "uint256"
        },
        {
          "indexed": true,
          "internalType": "address",
          "name": "nftContract",
          "type": "address"
        },
        {
          "indexed": true,
          "internalType": "uint256",
          "name": "tokenId",
          "type": "uint256"
        },
        {
          "indexed": false,
          "internalType": "address payable",
          "name": "seller",
          "type": "address"
        },
        {
          "indexed": false,
          "internalType": "address payable",
          "name": "owner",
          "type": "address"
        },
        {
          "indexed": false,
          "internalType": "uint256",
          "name": "price",
          "type": "uint256"
        },
        {
          "indexed": false,
          "internalType": "bool",
          "name": "sold",
          "type": "bool"
        }
      ],
      "name": "MarketItemCreated",
      "type": "event"
    },
    {
      "inputs": [
        {
          "internalType": "address",
          "name": "nftContract",
          "type": "address"
        },
        {
          "internalType": "uint256",
          "name": "tokenId",
          "type": "uint256"
        },
        {
          "internalType": "uint256",
          "name": "price",
          "type": "uint256"
        }
      ],
      "name": "createMarketItem",
      "outputs": [],
      "stateMutability": "payable",
      "type": "function"
    },
    {
      "inputs": [
        {
          "internalType": "address",
          "name": "nftContract",
          "type": "address"
        },
        {
          "internalType": "uint256",
          "name": "tokenId",
          "type": "uint256"
        }
      ],
      "name": "createMarketSale",
      "outputs": [],
      "stateMutability": "payable",
      "type": "function"
    },
    {
      "inputs": [],
      "name": "fetchItemsCreated",
      "outputs": [
        {
          "components": [
            {
              "internalType": "uint256",
              "name": "itemId",
              "type": "uint256"
            },
            {
              "internalType": "address",
              "name": "nftContract",
              "type": "address"
            },
            {
              "internalType": "uint256",
              "name": "tokenId",
              "type": "uint256"
            },
            {
              "internalType": "address payable",
              "name": "seller",
              "type": "address"
            },
            {
              "internalType": "address payable",
              "name": "owner",
              "type": "address"
            },
            {
              "internalType": "uint256",
              "name": "price",
              "type": "uint256"
            },
            {
              "internalType": "bool",
              "name": "sold",
              "type": "bool"
            }
          ],
          "internalType": "struct NFTMarket.MarketItem[]",
          "name": "",
          "type": "tuple[]"
        }
      ],
      "stateMutability": "view",
      "type": "function"
    },
    {
      "inputs": [],
      "name": "fetchMarketItems",
      "outputs": [
        {
          "components": [
            {
              "internalType": "uint256",
              "name": "itemId",
              "type": "uint256"
            },
            {
              "internalType": "address",
              "name": "nftContract",
              "type": "address"
            },
            {
              "internalType": "uint256",
              "name": "tokenId",
              "type": "uint256"
            },
            {
              "internalType": "address payable",
              "name": "seller",
              "type": "address"
            },
            {
              "internalType": "address payable",
              "name": "owner",
              "type": "address"
            },
            {
              "internalType": "uint256",
              "name": "price",
              "type": "uint256"
            },
            {
              "internalType": "bool",
              "name": "sold",
              "type": "bool"
            }
          ],
          "internalType": "struct NFTMarket.MarketItem[]",
          "name": "",
          "type": "tuple[]"
        }
      ],
      "stateMutability": "view",
      "type": "function"
    },
    {
      "inputs": [],
      "name": "fetchMyNfts",
      "outputs": [
        {
          "components": [
            {
              "internalType": "uint256",
              "name": "itemId",
              "type": "uint256"
            },
            {
              "internalType": "address",
              "name": "nftContract",
              "type": "address"
            },
            {
              "internalType": "uint256",
              "name": "tokenId",
              "type": "uint256"
            },
            {
              "internalType": "address payable",
              "name": "seller",
              "type": "address"
            },
            {
              "internalType": "address payable",
              "name": "owner",
              "type": "address"
            },
            {
              "internalType": "uint256",
              "name": "price",
              "type": "uint256"
            },
            {
              "internalType": "bool",
              "name": "sold",
              "type": "bool"
            }
          ],
          "internalType": "struct NFTMarket.MarketItem[]",
          "name": "",
          "type": "tuple[]"
        }
      ],
      "stateMutability": "view",
      "type": "function"
    },
    {
      "inputs": [],
      "name": "getListingPrice",
      "outputs": [
        {
          "internalType": "uint256",
          "name": "",
          "type": "uint256"
        }
      ],
      "stateMutability": "view",
      "type": "function"
    },
    {
      "inputs": [
        {
          "internalType": "uint256",
          "name": "_itemId",
          "type": "uint256"
        }
      ],
      "name": "getMarketItemById",
      "outputs": [
        {
          "components": [
            {
              "internalType": "uint256",
              "name": "itemId",
              "type": "uint256"
            },
            {
              "internalType": "address",
              "name": "nftContract",
              "type": "address"
            },
            {
              "internalType": "uint256",
              "name": "tokenId",
              "type": "uint256"
            },
            {
              "internalType": "address payable",
              "name": "seller",
              "type": "address"
            },
            {
              "internalType": "address payable",
              "name": "owner",
              "type": "address"
            },
            {
              "internalType": "uint256",
              "name": "price",
              "type": "uint256"
            },
            {
              "internalType": "bool",
              "name": "sold",
              "type": "bool"
            }
          ],
          "internalType": "struct NFTMarket.MarketItem",
          "name": "",
          "type": "tuple"
        }
      ],
      "stateMutability": "view",
      "type": "function"
    },
    {
      "inputs": [
        {
          "internalType": "uint256",
          "name": "tokenId",
          "type": "uint256"
        }
      ],
      "name": "removeMarketItem",
      "outputs": [],
      "stateMutability": "nonpayable",
      "type": "function"
    },
    {
      "inputs": [
        {
          "internalType": "uint256",
          "name": "tokenId",
          "type": "uint256"
        },
        {
          "internalType": "uint256",
          "name": "price",
          "type": "uint256"
        }
      ],
      "name": "resellToken",
      "outputs": [],
      "stateMutability": "payable",
      "type": "function"
    },
    {
      "inputs": [
        {
          "internalType": "uint256",
          "name": "_listingPrice",
          "type": "uint256"
        }
      ],
      "name": "updateListingPrice",
      "outputs": [],
      "stateMutability": "payable",
      "type": "function"
    }
  ],
  "bytecode": "0x6080604052600060035534801561001557600080fd5b50600160008190555033600460006101000a81548173ffffffffffffffffffffffffffffffffffffffff021916908373ffffffffffffffffffffffffffffffffffffffff1602179055506125a28061006e6000396000f3fe6080604052600436106100915760003560e01c80637fb770cb116100595780637fb770cb14610170578063ae677aa314610199578063c23b139e146101b5578063e219fc75146101d1578063f064c32e146101ed57610091565b80630f08efe014610096578063128ae712146100c157806312e85585146100ec57806353dbceb11461011757806358eb2df514610154575b600080fd5b3480156100a257600080fd5b506100ab610218565b6040516100b89190611fce565b60405180910390f35b3480156100cd57600080fd5b506100d6610543565b6040516100e39190611fce565b60405180910390f35b3480156100f857600080fd5b506101016108f3565b60405161010e919061214b565b60405180910390f35b34801561012357600080fd5b5061013e60048036038101906101399190611b85565b6108fd565b60405161014b9190612130565b60405180910390f35b61016e60048036038101906101699190611b36565b610a65565b005b34801561017c57600080fd5b5061019760048036038101906101929190611b85565b610d81565b005b6101b360048036038101906101ae9190611b85565b611045565b005b6101cf60048036038101906101ca9190611afa565b6110df565b005b6101eb60048036038101906101e69190611bae565b611336565b005b3480156101f957600080fd5b506102026115c5565b60405161020f9190611fce565b60405180910390f35b606060006102266001611975565b905060006102346002611975565b61023e6001611975565b6102489190612206565b90506000808267ffffffffffffffff81111561028d577f4e487b7100000000000000000000000000000000000000000000000000000000600052604160045260246000fd5b6040519080825280602002602001820160405280156102c657816020015b6102b3611a4f565b8152602001906001900390816102ab5790505b50905060005b84811015610538573073ffffffffffffffffffffffffffffffffffffffff16600560006001846102fc91906121b0565b815260200190815260200160002060040160009054906101000a900473ffffffffffffffffffffffffffffffffffffffff1673ffffffffffffffffffffffffffffffffffffffff1614156105255760006005600060018461035d91906121b0565b81526020019081526020016000206000015490506000600560008381526020019081526020016000209050806040518060e0016040529081600082015481526020016001820160009054906101000a900473ffffffffffffffffffffffffffffffffffffffff1673ffffffffffffffffffffffffffffffffffffffff1673ffffffffffffffffffffffffffffffffffffffff168152602001600282015481526020016003820160009054906101000a900473ffffffffffffffffffffffffffffffffffffffff1673ffffffffffffffffffffffffffffffffffffffff1673ffffffffffffffffffffffffffffffffffffffff1681526020016004820160009054906101000a900473ffffffffffffffffffffffffffffffffffffffff1673ffffffffffffffffffffffffffffffffffffffff1673ffffffffffffffffffffffffffffffffffffffff168152602001600582015481526020016006820160009054906101000a900460ff161515151581525050848681518110610508577f4e487b7100000000000000000000000000000000000000000000000000000000600052603260045260246000fd5b602002602001018190525060018561052091906121b0565b945050505b808061053090612294565b9150506102cc565b508094505050505090565b606060006105516001611975565b905060008060005b838110156105fa573373ffffffffffffffffffffffffffffffffffffffff166005600060018461058991906121b0565b815260200190815260200160002060040160009054906101000a900473ffffffffffffffffffffffffffffffffffffffff1673ffffffffffffffffffffffffffffffffffffffff1614156105e7576001836105e491906121b0565b92505b80806105f290612294565b915050610559565b5060008267ffffffffffffffff81111561063d577f4e487b7100000000000000000000000000000000000000000000000000000000600052604160045260246000fd5b60405190808252806020026020018201604052801561067657816020015b610663611a4f565b81526020019060019003908161065b5790505b50905060005b848110156108e8573373ffffffffffffffffffffffffffffffffffffffff16600560006001846106ac91906121b0565b815260200190815260200160002060040160009054906101000a900473ffffffffffffffffffffffffffffffffffffffff1673ffffffffffffffffffffffffffffffffffffffff1614156108d55760006005600060018461070d91906121b0565b81526020019081526020016000206000015490506000600560008381526020019081526020016000209050806040518060e0016040529081600082015481526020016001820160009054906101000a900473ffffffffffffffffffffffffffffffffffffffff1673ffffffffffffffffffffffffffffffffffffffff1673ffffffffffffffffffffffffffffffffffffffff168152602001600282015481526020016003820160009054906101000a900473ffffffffffffffffffffffffffffffffffffffff1673ffffffffffffffffffffffffffffffffffffffff1673ffffffffffffffffffffffffffffffffffffffff1681526020016004820160009054906101000a900473ffffffffffffffffffffffffffffffffffffffff1673ffffffffffffffffffffffffffffffffffffffff1673ffffffffffffffffffffffffffffffffffffffff168152602001600582015481526020016006820160009054906101000a900460ff1615151515815250508486815181106108b8577f4e487b7100000000000000000000000000000000000000000000000000000000600052603260045260246000fd5b60200260200101819052506001856108d091906121b0565b945050505b80806108e090612294565b91505061067c565b508094505050505090565b6000600354905090565b610905611a4f565b600560008381526020019081526020016000206040518060e0016040529081600082015481526020016001820160009054906101000a900473ffffffffffffffffffffffffffffffffffffffff1673ffffffffffffffffffffffffffffffffffffffff1673ffffffffffffffffffffffffffffffffffffffff168152602001600282015481526020016003820160009054906101000a900473ffffffffffffffffffffffffffffffffffffffff1673ffffffffffffffffffffffffffffffffffffffff1673ffffffffffffffffffffffffffffffffffffffff1681526020016004820160009054906101000a900473ffffffffffffffffffffffffffffffffffffffff1673ffffffffffffffffffffffffffffffffffffffff1673ffffffffffffffffffffffffffffffffffffffff168152602001600582015481526020016006820160009054906101000a900460ff1615151515815250509050919050565b610a6d611983565b60008111610ab0576040517f08c379a0000000000000000000000000000000000000000000000000000000008152600401610aa7906120f0565b60405180910390fd5b6003543414610af4576040517f08c379a0000000000000000000000000000000000000000000000000000000008152600401610aeb90612050565b60405180910390fd5b610afe60016119d3565b6000610b0a6001611975565b90506040518060e001604052808281526020018573ffffffffffffffffffffffffffffffffffffffff1681526020018481526020013373ffffffffffffffffffffffffffffffffffffffff1681526020013073ffffffffffffffffffffffffffffffffffffffff16815260200183815260200160001515815250600560008581526020019081526020016000206000820151816000015560208201518160010160006101000a81548173ffffffffffffffffffffffffffffffffffffffff021916908373ffffffffffffffffffffffffffffffffffffffff1602179055506040820151816002015560608201518160030160006101000a81548173ffffffffffffffffffffffffffffffffffffffff021916908373ffffffffffffffffffffffffffffffffffffffff16021790555060808201518160040160006101000a81548173ffffffffffffffffffffffffffffffffffffffff021916908373ffffffffffffffffffffffffffffffffffffffff16021790555060a0820151816005015560c08201518160060160006101000a81548160ff0219169083151502179055509050508373ffffffffffffffffffffffffffffffffffffffff166323b872dd3330866040518463ffffffff1660e01b8152600401610cea93929190611f97565b600060405180830381600087803b158015610d0457600080fd5b505af1158015610d18573d6000803e3d6000fd5b50505050828473ffffffffffffffffffffffffffffffffffffffff16827f045dfa01dcba2b36aba1d3dc4a874f4b0c5d2fbeb8d2c4b34a7d88c8d8f929d13330876000604051610d6b9493929190611f52565b60405180910390a450610d7c6119e9565b505050565b610d89611983565b60006005600083815260200190815260200160002090506000816000015411610de7576040517f08c379a0000000000000000000000000000000000000000000000000000000008152600401610dde90612090565b60405180910390fd5b3373ffffffffffffffffffffffffffffffffffffffff168160030160009054906101000a900473ffffffffffffffffffffffffffffffffffffffff1673ffffffffffffffffffffffffffffffffffffffff1614610e79576040517f08c379a0000000000000000000000000000000000000000000000000000000008152600401610e70906120b0565b60405180910390fd5b8060060160009054906101000a900460ff1615610ecb576040517f08c379a0000000000000000000000000000000000000000000000000000000008152600401610ec290612030565b60405180910390fd5b8060010160009054906101000a900473ffffffffffffffffffffffffffffffffffffffff1673ffffffffffffffffffffffffffffffffffffffff166323b872dd303384600201546040518463ffffffff1660e01b8152600401610f3093929190611f97565b600060405180830381600087803b158015610f4a57600080fd5b505af1158015610f5e573d6000803e3d6000fd5b50505050336005600084815260200190815260200160002060040160006101000a81548173ffffffffffffffffffffffffffffffffffffffff021916908373ffffffffffffffffffffffffffffffffffffffff16021790555060016005600084815260200190815260200160002060060160006101000a81548160ff021916908315150217905550610ff060026119d3565b3373ffffffffffffffffffffffffffffffffffffffff166108fc6003549081150290604051600060405180830381858888f19350505050158015611038573d6000803e3d6000fd5b50506110426119e9565b50565b3373ffffffffffffffffffffffffffffffffffffffff16600460009054906101000a900473ffffffffffffffffffffffffffffffffffffffff1673ffffffffffffffffffffffffffffffffffffffff16146110d5576040517f08c379a00000000000000000000000000000000000000000000000000000000081526004016110cc90612070565b60405180910390fd5b8060038190555050565b6110e7611983565b600060056000838152602001908152602001600020600501549050803414611144576040517f08c379a000000000000000000000000000000000000000000000000000000000815260040161113b90612110565b60405180910390fd5b6005600083815260200190815260200160002060030160009054906101000a900473ffffffffffffffffffffffffffffffffffffffff1673ffffffffffffffffffffffffffffffffffffffff166108fc349081150290604051600060405180830381858888f193505050501580156111c0573d6000803e3d6000fd5b508273ffffffffffffffffffffffffffffffffffffffff166323b872dd3033856040518463ffffffff1660e01b81526004016111fe93929190611f97565b600060405180830381600087803b15801561121857600080fd5b505af115801561122c573d6000803e3d6000fd5b50505050336005600084815260200190815260200160002060040160006101000a81548173ffffffffffffffffffffffffffffffffffffffff021916908373ffffffffffffffffffffffffffffffffffffffff16021790555060016005600084815260200190815260200160002060060160006101000a81548160ff0219169083151502179055506112be60026119d3565b600460009054906101000a900473ffffffffffffffffffffffffffffffffffffffff1673ffffffffffffffffffffffffffffffffffffffff166108fc6003549081150290604051600060405180830381858888f19350505050158015611328573d6000803e3d6000fd5b50506113326119e9565b5050565b3373ffffffffffffffffffffffffffffffffffffffff166005600084815260200190815260200160002060040160009054906101000a900473ffffffffffffffffffffffffffffffffffffffff1673ffffffffffffffffffffffffffffffffffffffff16146113da576040517f08c379a00000000000000000000000000000000000000000000000000000000081526004016113d190612010565b60405180910390fd5b600354341461141e576040517f08c379a000000000000000000000000000000000000000000000000000000000815260040161141590612050565b60405180910390fd5b60006005600084815260200190815260200160002060060160006101000a81548160ff021916908315150217905550806005600084815260200190815260200160002060050181905550336005600084815260200190815260200160002060030160006101000a81548173ffffffffffffffffffffffffffffffffffffffff021916908373ffffffffffffffffffffffffffffffffffffffff160217905550306005600084815260200190815260200160002060040160006101000a81548173ffffffffffffffffffffffffffffffffffffffff021916908373ffffffffffffffffffffffffffffffffffffffff16021790555061151c60026119f3565b6005600083815260200190815260200160002060010160009054906101000a900473ffffffffffffffffffffffffffffffffffffffff1673ffffffffffffffffffffffffffffffffffffffff166323b872dd3033856040518463ffffffff1660e01b815260040161158f93929190611f97565b600060405180830381600087803b1580156115a957600080fd5b505af11580156115bd573d6000803e3d6000fd5b505050505050565b606060006115d36001611975565b905060008060005b8381101561167c573373ffffffffffffffffffffffffffffffffffffffff166005600060018461160b91906121b0565b815260200190815260200160002060030160009054906101000a900473ffffffffffffffffffffffffffffffffffffffff1673ffffffffffffffffffffffffffffffffffffffff1614156116695760018361166691906121b0565b92505b808061167490612294565b9150506115db565b5060008267ffffffffffffffff8111156116bf577f4e487b7100000000000000000000000000000000000000000000000000000000600052604160045260246000fd5b6040519080825280602002602001820160405280156116f857816020015b6116e5611a4f565b8152602001906001900390816116dd5790505b50905060005b8481101561196a573373ffffffffffffffffffffffffffffffffffffffff166005600060018461172e91906121b0565b815260200190815260200160002060030160009054906101000a900473ffffffffffffffffffffffffffffffffffffffff1673ffffffffffffffffffffffffffffffffffffffff1614156119575760006005600060018461178f91906121b0565b81526020019081526020016000206000015490506000600560008381526020019081526020016000209050806040518060e0016040529081600082015481526020016001820160009054906101000a900473ffffffffffffffffffffffffffffffffffffffff1673ffffffffffffffffffffffffffffffffffffffff1673ffffffffffffffffffffffffffffffffffffffff168152602001600282015481526020016003820160009054906101000a900473ffffffffffffffffffffffffffffffffffffffff1673ffffffffffffffffffffffffffffffffffffffff1673ffffffffffffffffffffffffffffffffffffffff1681526020016004820160009054906101000a900473ffffffffffffffffffffffffffffffffffffffff1673ffffffffffffffffffffffffffffffffffffffff1673ffffffffffffffffffffffffffffffffffffffff168152602001600582015481526020016006820160009054906101000a900460ff16151515158152505084868151811061193a577f4e487b7100000000000000000000000000000000000000000000000000000000600052603260045260246000fd5b602002602001018190525060018561195291906121b0565b945050505b808061196290612294565b9150506116fe565b508094505050505090565b600081600001549050919050565b600260005414156119c9576040517f08c379a00000000000000000000000000000000000000000000000000000000081526004016119c0906120d0565b60405180910390fd5b6002600081905550565b6001816000016000828254019250508190555050565b6001600081905550565b60008160000154905060008111611a3f576040517f08c379a0000000000000000000000000000000000000000000000000000000008152600401611a3690611ff0565b60405180910390fd5b6001810382600001819055505050565b6040518060e0016040528060008152602001600073ffffffffffffffffffffffffffffffffffffffff16815260200160008152602001600073ffffffffffffffffffffffffffffffffffffffff168152602001600073ffffffffffffffffffffffffffffffffffffffff168152602001600081526020016000151581525090565b600081359050611adf8161253e565b92915050565b600081359050611af481612555565b92915050565b60008060408385031215611b0d57600080fd5b6000611b1b85828601611ad0565b9250506020611b2c85828601611ae5565b9150509250929050565b600080600060608486031215611b4b57600080fd5b6000611b5986828701611ad0565b9350506020611b6a86828701611ae5565b9250506040611b7b86828701611ae5565b9150509250925092565b600060208284031215611b9757600080fd5b6000611ba584828501611ae5565b91505092915050565b60008060408385031215611bc157600080fd5b6000611bcf85828601611ae5565b9250506020611be085828601611ae5565b9150509250929050565b6000611bf68383611e18565b60e08301905092915050565b611c0b8161224c565b82525050565b611c1a8161224c565b82525050565b611c298161223a565b82525050565b611c388161223a565b82525050565b6000611c4982612176565b611c53818561218e565b9350611c5e83612166565b8060005b83811015611c8f578151611c768882611bea565b9750611c8183612181565b925050600181019050611c62565b5085935050505092915050565b611ca58161225e565b82525050565b611cb48161225e565b82525050565b6000611cc7601b8361219f565b9150611cd28261230c565b602082019050919050565b6000611cea602a8361219f565b9150611cf582612335565b604082019050919050565b6000611d0d60148361219f565b9150611d1882612384565b602082019050919050565b6000611d3060248361219f565b9150611d3b826123ad565b604082019050919050565b6000611d5360308361219f565b9150611d5e826123fc565b604082019050919050565b6000611d7660138361219f565b9150611d818261244b565b602082019050919050565b6000611d9960168361219f565b9150611da482612474565b602082019050919050565b6000611dbc601f8361219f565b9150611dc78261249d565b602082019050919050565b6000611ddf601c8361219f565b9150611dea826124c6565b602082019050919050565b6000611e0260338361219f565b9150611e0d826124ef565b604082019050919050565b60e082016000820151611e2e6000850182611f34565b506020820151611e416020850182611c20565b506040820151611e546040850182611f34565b506060820151611e676060850182611c02565b506080820151611e7a6080850182611c02565b5060a0820151611e8d60a0850182611f34565b5060c0820151611ea060c0850182611c9c565b50505050565b60e082016000820151611ebc6000850182611f34565b506020820151611ecf6020850182611c20565b506040820151611ee26040850182611f34565b506060820151611ef56060850182611c02565b506080820151611f086080850182611c02565b5060a0820151611f1b60a0850182611f34565b5060c0820151611f2e60c0850182611c9c565b50505050565b611f3d8161228a565b82525050565b611f4c8161228a565b82525050565b6000608082019050611f676000830187611c11565b611f746020830186611c11565b611f816040830185611f43565b611f8e6060830184611cab565b95945050505050565b6000606082019050611fac6000830186611c2f565b611fb96020830185611c2f565b611fc66040830184611f43565b949350505050565b60006020820190508181036000830152611fe88184611c3e565b905092915050565b6000602082019050818103600083015261200981611cba565b9050919050565b6000602082019050818103600083015261202981611cdd565b9050919050565b6000602082019050818103600083015261204981611d00565b9050919050565b6000602082019050818103600083015261206981611d23565b9050919050565b6000602082019050818103600083015261208981611d46565b9050919050565b600060208201905081810360008301526120a981611d69565b9050919050565b600060208201905081810360008301526120c981611d8c565b9050919050565b600060208201905081810360008301526120e981611daf565b9050919050565b6000602082019050818103600083015261210981611dd2565b9050919050565b6000602082019050818103600083015261212981611df5565b9050919050565b600060e0820190506121456000830184611ea6565b92915050565b60006020820190506121606000830184611f43565b92915050565b6000819050602082019050919050565b600081519050919050565b6000602082019050919050565b600082825260208201905092915050565b600082825260208201905092915050565b60006121bb8261228a565b91506121c68361228a565b9250827fffffffffffffffffffffffffffffffffffffffffffffffffffffffffffffffff038211156121fb576121fa6122dd565b5b828201905092915050565b60006122118261228a565b915061221c8361228a565b92508282101561222f5761222e6122dd565b5b828203905092915050565b60006122458261226a565b9050919050565b60006122578261226a565b9050919050565b60008115159050919050565b600073ffffffffffffffffffffffffffffffffffffffff82169050919050565b6000819050919050565b600061229f8261228a565b91507fffffffffffffffffffffffffffffffffffffffffffffffffffffffffffffffff8214156122d2576122d16122dd565b5b600182019050919050565b7f4e487b7100000000000000000000000000000000000000000000000000000000600052601160045260246000fd5b7f436f756e7465723a2064656372656d656e74206f766572666c6f770000000000600082015250565b7f4f6e6c79206974656d206f776e65722063616e20706572666f726d207468697360008201527f206f7065726174696f6e00000000000000000000000000000000000000000000602082015250565b7f4974656d20697320616c726561647920736f6c64000000000000000000000000600082015250565b7f5072696365206d75737420626520657175616c20746f206c697374696e67207060008201527f7269636500000000000000000000000000000000000000000000000000000000602082015250565b7f4f6e6c79206d61726b6574706c616365206f776e65722063616e20757064617460008201527f65206c697374696e672070726963652e00000000000000000000000000000000602082015250565b7f4974656d20646f6573206e6f7420657869737400000000000000000000000000600082015250565b7f596f7520617265206e6f74207468652073656c6c657200000000000000000000600082015250565b7f5265656e7472616e637947756172643a207265656e7472616e742063616c6c00600082015250565b7f5072696365206d757374206265206174206c6561737420312077656900000000600082015250565b7f496e76696120696c207072657a7a6f2072696368696573746f2070657220636f60008201527f6d706c6574617265206c27616371756973746f00000000000000000000000000602082015250565b6125478161223a565b811461255257600080fd5b50565b61255e8161228a565b811461256957600080fd5b5056fea2646970667358221220f83e930aaa449687a439ef09018a827ef4eb866af0910030f8c6abf32ae6a9dd64736f6c63430008040033",
  "linkReferences": {},
  "deployedLinkReferences": {}
}