{
  "_format": "hh-sol-artifact-1",
  "contractName": "NFTMarket",
  "sourceName": "contracts/NFTMarket.sol",
  "abi": [
    {
      "inputs": [],
      "stateMutability": "nonpayable",
      "type": "constructor"
    },
    {
      "anonymous": false,
      "inputs": [
        {
          "indexed": true,
          "internalType": "uint256",
          "name": "itemId",
          "type": "uint256"
        },
        {
          "indexed": true,
          "internalType": "address",
          "name": "nftContract",
          "type": "address"
        },
        {
          "indexed": true,
          "internalType": "uint256",
          "name": "tokenId",
          "type": "uint256"
        },
        {
          "indexed": false,
          "internalType": "address payable",
          "name": "seller",
          "type": "address"
        },
        {
          "indexed": false,
          "internalType": "address payable",
          "name": "owner",
          "type": "address"
        },
        {
          "indexed": false,
          "internalType": "uint256",
          "name": "price",
          "type": "uint256"
        },
        {
          "indexed": false,
          "internalType": "bool",
          "name": "sold",
          "type": "bool"
        }
      ],
      "name": "MarketItemCreated",
      "type": "event"
    },
    {
      "inputs": [
        {
          "internalType": "address",
          "name": "nftContract",
          "type": "address"
        },
        {
          "internalType": "uint256",
          "name": "tokenId",
          "type": "uint256"
        },
        {
          "internalType": "uint256",
          "name": "price",
          "type": "uint256"
        }
      ],
      "name": "createMarketItem",
      "outputs": [],
      "stateMutability": "payable",
      "type": "function"
    },
    {
      "inputs": [
        {
          "internalType": "address",
          "name": "nftContract",
          "type": "address"
        },
        {
          "internalType": "uint256",
          "name": "tokenId",
          "type": "uint256"
        }
      ],
      "name": "createMarketSale",
      "outputs": [],
      "stateMutability": "payable",
      "type": "function"
    },
    {
      "inputs": [],
      "name": "fetchItemsCreated",
      "outputs": [
        {
          "components": [
            {
              "internalType": "uint256",
              "name": "itemId",
              "type": "uint256"
            },
            {
              "internalType": "address",
              "name": "nftContract",
              "type": "address"
            },
            {
              "internalType": "uint256",
              "name": "tokenId",
              "type": "uint256"
            },
            {
              "internalType": "address payable",
              "name": "seller",
              "type": "address"
            },
            {
              "internalType": "address payable",
              "name": "owner",
              "type": "address"
            },
            {
              "internalType": "uint256",
              "name": "price",
              "type": "uint256"
            },
            {
              "internalType": "bool",
              "name": "sold",
              "type": "bool"
            }
          ],
          "internalType": "struct NFTMarket.MarketItem[]",
          "name": "",
          "type": "tuple[]"
        }
      ],
      "stateMutability": "view",
      "type": "function"
    },
    {
      "inputs": [],
      "name": "fetchMarketItems",
      "outputs": [
        {
          "components": [
            {
              "internalType": "uint256",
              "name": "itemId",
              "type": "uint256"
            },
            {
              "internalType": "address",
              "name": "nftContract",
              "type": "address"
            },
            {
              "internalType": "uint256",
              "name": "tokenId",
              "type": "uint256"
            },
            {
              "internalType": "address payable",
              "name": "seller",
              "type": "address"
            },
            {
              "internalType": "address payable",
              "name": "owner",
              "type": "address"
            },
            {
              "internalType": "uint256",
              "name": "price",
              "type": "uint256"
            },
            {
              "internalType": "bool",
              "name": "sold",
              "type": "bool"
            }
          ],
          "internalType": "struct NFTMarket.MarketItem[]",
          "name": "",
          "type": "tuple[]"
        }
      ],
      "stateMutability": "view",
      "type": "function"
    },
    {
      "inputs": [],
      "name": "fetchMyNfts",
      "outputs": [
        {
          "components": [
            {
              "internalType": "uint256",
              "name": "itemId",
              "type": "uint256"
            },
            {
              "internalType": "address",
              "name": "nftContract",
              "type": "address"
            },
            {
              "internalType": "uint256",
              "name": "tokenId",
              "type": "uint256"
            },
            {
              "internalType": "address payable",
              "name": "seller",
              "type": "address"
            },
            {
              "internalType": "address payable",
              "name": "owner",
              "type": "address"
            },
            {
              "internalType": "uint256",
              "name": "price",
              "type": "uint256"
            },
            {
              "internalType": "bool",
              "name": "sold",
              "type": "bool"
            }
          ],
          "internalType": "struct NFTMarket.MarketItem[]",
          "name": "",
          "type": "tuple[]"
        }
      ],
      "stateMutability": "view",
      "type": "function"
    },
    {
      "inputs": [],
      "name": "getListingPrice",
      "outputs": [
        {
          "internalType": "uint256",
          "name": "",
          "type": "uint256"
        }
      ],
      "stateMutability": "view",
      "type": "function"
    },
    {
      "inputs": [
        {
          "internalType": "uint256",
          "name": "tokenId",
          "type": "uint256"
        }
      ],
      "name": "getMarketItemById",
      "outputs": [
        {
          "components": [
            {
              "internalType": "uint256",
              "name": "itemId",
              "type": "uint256"
            },
            {
              "internalType": "address",
              "name": "nftContract",
              "type": "address"
            },
            {
              "internalType": "uint256",
              "name": "tokenId",
              "type": "uint256"
            },
            {
              "internalType": "address payable",
              "name": "seller",
              "type": "address"
            },
            {
              "internalType": "address payable",
              "name": "owner",
              "type": "address"
            },
            {
              "internalType": "uint256",
              "name": "price",
              "type": "uint256"
            },
            {
              "internalType": "bool",
              "name": "sold",
              "type": "bool"
            }
          ],
          "internalType": "struct NFTMarket.MarketItem",
          "name": "",
          "type": "tuple"
        }
      ],
      "stateMutability": "view",
      "type": "function"
    },
    {
      "inputs": [
        {
          "internalType": "uint256",
          "name": "",
          "type": "uint256"
        }
      ],
      "name": "indexOfTokenId",
      "outputs": [
        {
          "internalType": "uint256",
          "name": "",
          "type": "uint256"
        }
      ],
      "stateMutability": "view",
      "type": "function"
    },
    {
      "inputs": [
        {
          "internalType": "uint256",
          "name": "tokenId",
          "type": "uint256"
        }
      ],
      "name": "removeMarketItem",
      "outputs": [],
      "stateMutability": "nonpayable",
      "type": "function"
    },
    {
      "inputs": [
        {
          "internalType": "uint256",
          "name": "tokenId",
          "type": "uint256"
        },
        {
          "internalType": "uint256",
          "name": "price",
          "type": "uint256"
        }
      ],
      "name": "resellToken",
      "outputs": [],
      "stateMutability": "payable",
      "type": "function"
    },
    {
      "inputs": [
        {
          "internalType": "uint256",
          "name": "_listingPrice",
          "type": "uint256"
        }
      ],
      "name": "updateListingPrice",
      "outputs": [],
      "stateMutability": "payable",
      "type": "function"
    }
  ],
  "bytecode": "0x6080604052600060035534801561001557600080fd5b50600160008190555033600460006101000a81548173ffffffffffffffffffffffffffffffffffffffff021916908373ffffffffffffffffffffffffffffffffffffffff1602179055506126788061006e6000396000f3fe60806040526004361061009c5760003560e01c80636747fb2e116100645780636747fb2e1461017b5780637fb770cb146101b8578063ae677aa3146101e1578063c23b139e146101fd578063e219fc7514610219578063f064c32e146102355761009c565b80630f08efe0146100a1578063128ae712146100cc57806312e85585146100f757806353dbceb11461012257806358eb2df51461015f575b600080fd5b3480156100ad57600080fd5b506100b6610260565b6040516100c391906120a4565b60405180910390f35b3480156100d857600080fd5b506100e161058b565b6040516100ee91906120a4565b60405180910390f35b34801561010357600080fd5b5061010c61093b565b6040516101199190612221565b60405180910390f35b34801561012e57600080fd5b5061014960048036038101906101449190611c5b565b610945565b6040516101569190612206565b60405180910390f35b61017960048036038101906101749190611c0c565b610ac0565b005b34801561018757600080fd5b506101a2600480360381019061019d9190611c5b565b610df4565b6040516101af9190612221565b60405180910390f35b3480156101c457600080fd5b506101df60048036038101906101da9190611c5b565b610e0c565b005b6101fb60048036038101906101f69190611c5b565b6110e9565b005b61021760048036038101906102129190611bd0565b611183565b005b610233600480360381019061022e9190611c84565b6113f3565b005b34801561024157600080fd5b5061024a61169b565b60405161025791906120a4565b60405180910390f35b6060600061026e6001611a4b565b9050600061027c6002611a4b565b6102866001611a4b565b61029091906122dc565b90506000808267ffffffffffffffff8111156102d5577f4e487b7100000000000000000000000000000000000000000000000000000000600052604160045260246000fd5b60405190808252806020026020018201604052801561030e57816020015b6102fb611b25565b8152602001906001900390816102f35790505b50905060005b84811015610580573073ffffffffffffffffffffffffffffffffffffffff16600560006001846103449190612286565b815260200190815260200160002060040160009054906101000a900473ffffffffffffffffffffffffffffffffffffffff1673ffffffffffffffffffffffffffffffffffffffff16141561056d576000600560006001846103a59190612286565b81526020019081526020016000206000015490506000600560008381526020019081526020016000209050806040518060e0016040529081600082015481526020016001820160009054906101000a900473ffffffffffffffffffffffffffffffffffffffff1673ffffffffffffffffffffffffffffffffffffffff1673ffffffffffffffffffffffffffffffffffffffff168152602001600282015481526020016003820160009054906101000a900473ffffffffffffffffffffffffffffffffffffffff1673ffffffffffffffffffffffffffffffffffffffff1673ffffffffffffffffffffffffffffffffffffffff1681526020016004820160009054906101000a900473ffffffffffffffffffffffffffffffffffffffff1673ffffffffffffffffffffffffffffffffffffffff1673ffffffffffffffffffffffffffffffffffffffff168152602001600582015481526020016006820160009054906101000a900460ff161515151581525050848681518110610550577f4e487b7100000000000000000000000000000000000000000000000000000000600052603260045260246000fd5b60200260200101819052506001856105689190612286565b945050505b80806105789061236a565b915050610314565b508094505050505090565b606060006105996001611a4b565b905060008060005b83811015610642573373ffffffffffffffffffffffffffffffffffffffff16600560006001846105d19190612286565b815260200190815260200160002060040160009054906101000a900473ffffffffffffffffffffffffffffffffffffffff1673ffffffffffffffffffffffffffffffffffffffff16141561062f5760018361062c9190612286565b92505b808061063a9061236a565b9150506105a1565b5060008267ffffffffffffffff811115610685577f4e487b7100000000000000000000000000000000000000000000000000000000600052604160045260246000fd5b6040519080825280602002602001820160405280156106be57816020015b6106ab611b25565b8152602001906001900390816106a35790505b50905060005b84811015610930573373ffffffffffffffffffffffffffffffffffffffff16600560006001846106f49190612286565b815260200190815260200160002060040160009054906101000a900473ffffffffffffffffffffffffffffffffffffffff1673ffffffffffffffffffffffffffffffffffffffff16141561091d576000600560006001846107559190612286565b81526020019081526020016000206000015490506000600560008381526020019081526020016000209050806040518060e0016040529081600082015481526020016001820160009054906101000a900473ffffffffffffffffffffffffffffffffffffffff1673ffffffffffffffffffffffffffffffffffffffff1673ffffffffffffffffffffffffffffffffffffffff168152602001600282015481526020016003820160009054906101000a900473ffffffffffffffffffffffffffffffffffffffff1673ffffffffffffffffffffffffffffffffffffffff1673ffffffffffffffffffffffffffffffffffffffff1681526020016004820160009054906101000a900473ffffffffffffffffffffffffffffffffffffffff1673ffffffffffffffffffffffffffffffffffffffff1673ffffffffffffffffffffffffffffffffffffffff168152602001600582015481526020016006820160009054906101000a900460ff161515151581525050848681518110610900577f4e487b7100000000000000000000000000000000000000000000000000000000600052603260045260246000fd5b60200260200101819052506001856109189190612286565b945050505b80806109289061236a565b9150506106c4565b508094505050505090565b6000600354905090565b61094d611b25565b60056000600660008581526020019081526020016000205481526020019081526020016000206040518060e0016040529081600082015481526020016001820160009054906101000a900473ffffffffffffffffffffffffffffffffffffffff1673ffffffffffffffffffffffffffffffffffffffff1673ffffffffffffffffffffffffffffffffffffffff168152602001600282015481526020016003820160009054906101000a900473ffffffffffffffffffffffffffffffffffffffff1673ffffffffffffffffffffffffffffffffffffffff1673ffffffffffffffffffffffffffffffffffffffff1681526020016004820160009054906101000a900473ffffffffffffffffffffffffffffffffffffffff1673ffffffffffffffffffffffffffffffffffffffff1673ffffffffffffffffffffffffffffffffffffffff168152602001600582015481526020016006820160009054906101000a900460ff1615151515815250509050919050565b610ac8611a59565b60008111610b0b576040517f08c379a0000000000000000000000000000000000000000000000000000000008152600401610b02906121c6565b60405180910390fd5b6003543414610b4f576040517f08c379a0000000000000000000000000000000000000000000000000000000008152600401610b4690612126565b60405180910390fd5b610b596001611aa9565b6000610b656001611a4b565b90508060066000858152602001908152602001600020819055506040518060e001604052808281526020018573ffffffffffffffffffffffffffffffffffffffff1681526020018481526020013373ffffffffffffffffffffffffffffffffffffffff1681526020013073ffffffffffffffffffffffffffffffffffffffff16815260200183815260200160001515815250600560008381526020019081526020016000206000820151816000015560208201518160010160006101000a81548173ffffffffffffffffffffffffffffffffffffffff021916908373ffffffffffffffffffffffffffffffffffffffff1602179055506040820151816002015560608201518160030160006101000a81548173ffffffffffffffffffffffffffffffffffffffff021916908373ffffffffffffffffffffffffffffffffffffffff16021790555060808201518160040160006101000a81548173ffffffffffffffffffffffffffffffffffffffff021916908373ffffffffffffffffffffffffffffffffffffffff16021790555060a0820151816005015560c08201518160060160006101000a81548160ff0219169083151502179055509050508373ffffffffffffffffffffffffffffffffffffffff166323b872dd3330866040518463ffffffff1660e01b8152600401610d5d9392919061206d565b600060405180830381600087803b158015610d7757600080fd5b505af1158015610d8b573d6000803e3d6000fd5b50505050828473ffffffffffffffffffffffffffffffffffffffff16827f045dfa01dcba2b36aba1d3dc4a874f4b0c5d2fbeb8d2c4b34a7d88c8d8f929d13330876000604051610dde9493929190612028565b60405180910390a450610def611abf565b505050565b60066020528060005260406000206000915090505481565b610e14611a59565b60006006600083815260200190815260200160002054905060006005600083815260200190815260200160002090506000816000015411610e8a576040517f08c379a0000000000000000000000000000000000000000000000000000000008152600401610e8190612166565b60405180910390fd5b3373ffffffffffffffffffffffffffffffffffffffff168160030160009054906101000a900473ffffffffffffffffffffffffffffffffffffffff1673ffffffffffffffffffffffffffffffffffffffff1614610f1c576040517f08c379a0000000000000000000000000000000000000000000000000000000008152600401610f1390612186565b60405180910390fd5b8060060160009054906101000a900460ff1615610f6e576040517f08c379a0000000000000000000000000000000000000000000000000000000008152600401610f6590612106565b60405180910390fd5b8060010160009054906101000a900473ffffffffffffffffffffffffffffffffffffffff1673ffffffffffffffffffffffffffffffffffffffff166323b872dd303384600201546040518463ffffffff1660e01b8152600401610fd39392919061206d565b600060405180830381600087803b158015610fed57600080fd5b505af1158015611001573d6000803e3d6000fd5b50505050336005600084815260200190815260200160002060040160006101000a81548173ffffffffffffffffffffffffffffffffffffffff021916908373ffffffffffffffffffffffffffffffffffffffff16021790555060016005600084815260200190815260200160002060060160006101000a81548160ff0219169083151502179055506110936002611aa9565b3373ffffffffffffffffffffffffffffffffffffffff166108fc6003549081150290604051600060405180830381858888f193505050501580156110db573d6000803e3d6000fd5b5050506110e6611abf565b50565b3373ffffffffffffffffffffffffffffffffffffffff16600460009054906101000a900473ffffffffffffffffffffffffffffffffffffffff1673ffffffffffffffffffffffffffffffffffffffff1614611179576040517f08c379a000000000000000000000000000000000000000000000000000000000815260040161117090612146565b60405180910390fd5b8060038190555050565b61118b611a59565b600060066000838152602001908152602001600020549050600060056000838152602001908152602001600020600501549050803414611200576040517f08c379a00000000000000000000000000000000000000000000000000000000081526004016111f7906121e6565b60405180910390fd5b6005600083815260200190815260200160002060030160009054906101000a900473ffffffffffffffffffffffffffffffffffffffff1673ffffffffffffffffffffffffffffffffffffffff166108fc349081150290604051600060405180830381858888f1935050505015801561127c573d6000803e3d6000fd5b508373ffffffffffffffffffffffffffffffffffffffff166323b872dd3033866040518463ffffffff1660e01b81526004016112ba9392919061206d565b600060405180830381600087803b1580156112d457600080fd5b505af11580156112e8573d6000803e3d6000fd5b50505050336005600084815260200190815260200160002060040160006101000a81548173ffffffffffffffffffffffffffffffffffffffff021916908373ffffffffffffffffffffffffffffffffffffffff16021790555060016005600084815260200190815260200160002060060160006101000a81548160ff02191690831515021790555061137a6002611aa9565b600460009054906101000a900473ffffffffffffffffffffffffffffffffffffffff1673ffffffffffffffffffffffffffffffffffffffff166108fc6003549081150290604051600060405180830381858888f193505050501580156113e4573d6000803e3d6000fd5b5050506113ef611abf565b5050565b6000600660008481526020019081526020016000205490503373ffffffffffffffffffffffffffffffffffffffff166005600083815260200190815260200160002060040160009054906101000a900473ffffffffffffffffffffffffffffffffffffffff1673ffffffffffffffffffffffffffffffffffffffff16146114af576040517f08c379a00000000000000000000000000000000000000000000000000000000081526004016114a6906120e6565b60405180910390fd5b60035434146114f3576040517f08c379a00000000000000000000000000000000000000000000000000000000081526004016114ea90612126565b60405180910390fd5b60006005600083815260200190815260200160002060060160006101000a81548160ff021916908315150217905550816005600083815260200190815260200160002060050181905550336005600083815260200190815260200160002060030160006101000a81548173ffffffffffffffffffffffffffffffffffffffff021916908373ffffffffffffffffffffffffffffffffffffffff160217905550306005600083815260200190815260200160002060040160006101000a81548173ffffffffffffffffffffffffffffffffffffffff021916908373ffffffffffffffffffffffffffffffffffffffff1602179055506115f16002611ac9565b6005600082815260200190815260200160002060010160009054906101000a900473ffffffffffffffffffffffffffffffffffffffff1673ffffffffffffffffffffffffffffffffffffffff166323b872dd3330866040518463ffffffff1660e01b81526004016116649392919061206d565b600060405180830381600087803b15801561167e57600080fd5b505af1158015611692573d6000803e3d6000fd5b50505050505050565b606060006116a96001611a4b565b905060008060005b83811015611752573373ffffffffffffffffffffffffffffffffffffffff16600560006001846116e19190612286565b815260200190815260200160002060030160009054906101000a900473ffffffffffffffffffffffffffffffffffffffff1673ffffffffffffffffffffffffffffffffffffffff16141561173f5760018361173c9190612286565b92505b808061174a9061236a565b9150506116b1565b5060008267ffffffffffffffff811115611795577f4e487b7100000000000000000000000000000000000000000000000000000000600052604160045260246000fd5b6040519080825280602002602001820160405280156117ce57816020015b6117bb611b25565b8152602001906001900390816117b35790505b50905060005b84811015611a40573373ffffffffffffffffffffffffffffffffffffffff16600560006001846118049190612286565b815260200190815260200160002060030160009054906101000a900473ffffffffffffffffffffffffffffffffffffffff1673ffffffffffffffffffffffffffffffffffffffff161415611a2d576000600560006001846118659190612286565b81526020019081526020016000206000015490506000600560008381526020019081526020016000209050806040518060e0016040529081600082015481526020016001820160009054906101000a900473ffffffffffffffffffffffffffffffffffffffff1673ffffffffffffffffffffffffffffffffffffffff1673ffffffffffffffffffffffffffffffffffffffff168152602001600282015481526020016003820160009054906101000a900473ffffffffffffffffffffffffffffffffffffffff1673ffffffffffffffffffffffffffffffffffffffff1673ffffffffffffffffffffffffffffffffffffffff1681526020016004820160009054906101000a900473ffffffffffffffffffffffffffffffffffffffff1673ffffffffffffffffffffffffffffffffffffffff1673ffffffffffffffffffffffffffffffffffffffff168152602001600582015481526020016006820160009054906101000a900460ff161515151581525050848681518110611a10577f4e487b7100000000000000000000000000000000000000000000000000000000600052603260045260246000fd5b6020026020010181905250600185611a289190612286565b945050505b8080611a389061236a565b9150506117d4565b508094505050505090565b600081600001549050919050565b60026000541415611a9f576040517f08c379a0000000000000000000000000000000000000000000000000000000008152600401611a96906121a6565b60405180910390fd5b6002600081905550565b6001816000016000828254019250508190555050565b6001600081905550565b60008160000154905060008111611b15576040517f08c379a0000000000000000000000000000000000000000000000000000000008152600401611b0c906120c6565b60405180910390fd5b6001810382600001819055505050565b6040518060e0016040528060008152602001600073ffffffffffffffffffffffffffffffffffffffff16815260200160008152602001600073ffffffffffffffffffffffffffffffffffffffff168152602001600073ffffffffffffffffffffffffffffffffffffffff168152602001600081526020016000151581525090565b600081359050611bb581612614565b92915050565b600081359050611bca8161262b565b92915050565b60008060408385031215611be357600080fd5b6000611bf185828601611ba6565b9250506020611c0285828601611bbb565b9150509250929050565b600080600060608486031215611c2157600080fd5b6000611c2f86828701611ba6565b9350506020611c4086828701611bbb565b9250506040611c5186828701611bbb565b9150509250925092565b600060208284031215611c6d57600080fd5b6000611c7b84828501611bbb565b91505092915050565b60008060408385031215611c9757600080fd5b6000611ca585828601611bbb565b9250506020611cb685828601611bbb565b9150509250929050565b6000611ccc8383611eee565b60e08301905092915050565b611ce181612322565b82525050565b611cf081612322565b82525050565b611cff81612310565b82525050565b611d0e81612310565b82525050565b6000611d1f8261224c565b611d298185612264565b9350611d348361223c565b8060005b83811015611d65578151611d4c8882611cc0565b9750611d5783612257565b925050600181019050611d38565b5085935050505092915050565b611d7b81612334565b82525050565b611d8a81612334565b82525050565b6000611d9d601b83612275565b9150611da8826123e2565b602082019050919050565b6000611dc0602a83612275565b9150611dcb8261240b565b604082019050919050565b6000611de3601483612275565b9150611dee8261245a565b602082019050919050565b6000611e06602483612275565b9150611e1182612483565b604082019050919050565b6000611e29603083612275565b9150611e34826124d2565b604082019050919050565b6000611e4c601383612275565b9150611e5782612521565b602082019050919050565b6000611e6f601683612275565b9150611e7a8261254a565b602082019050919050565b6000611e92601f83612275565b9150611e9d82612573565b602082019050919050565b6000611eb5601c83612275565b9150611ec08261259c565b602082019050919050565b6000611ed8603383612275565b9150611ee3826125c5565b604082019050919050565b60e082016000820151611f04600085018261200a565b506020820151611f176020850182611cf6565b506040820151611f2a604085018261200a565b506060820151611f3d6060850182611cd8565b506080820151611f506080850182611cd8565b5060a0820151611f6360a085018261200a565b5060c0820151611f7660c0850182611d72565b50505050565b60e082016000820151611f92600085018261200a565b506020820151611fa56020850182611cf6565b506040820151611fb8604085018261200a565b506060820151611fcb6060850182611cd8565b506080820151611fde6080850182611cd8565b5060a0820151611ff160a085018261200a565b5060c082015161200460c0850182611d72565b50505050565b61201381612360565b82525050565b61202281612360565b82525050565b600060808201905061203d6000830187611ce7565b61204a6020830186611ce7565b6120576040830185612019565b6120646060830184611d81565b95945050505050565b60006060820190506120826000830186611d05565b61208f6020830185611d05565b61209c6040830184612019565b949350505050565b600060208201905081810360008301526120be8184611d14565b905092915050565b600060208201905081810360008301526120df81611d90565b9050919050565b600060208201905081810360008301526120ff81611db3565b9050919050565b6000602082019050818103600083015261211f81611dd6565b9050919050565b6000602082019050818103600083015261213f81611df9565b9050919050565b6000602082019050818103600083015261215f81611e1c565b9050919050565b6000602082019050818103600083015261217f81611e3f565b9050919050565b6000602082019050818103600083015261219f81611e62565b9050919050565b600060208201905081810360008301526121bf81611e85565b9050919050565b600060208201905081810360008301526121df81611ea8565b9050919050565b600060208201905081810360008301526121ff81611ecb565b9050919050565b600060e08201905061221b6000830184611f7c565b92915050565b60006020820190506122366000830184612019565b92915050565b6000819050602082019050919050565b600081519050919050565b6000602082019050919050565b600082825260208201905092915050565b600082825260208201905092915050565b600061229182612360565b915061229c83612360565b9250827fffffffffffffffffffffffffffffffffffffffffffffffffffffffffffffffff038211156122d1576122d06123b3565b5b828201905092915050565b60006122e782612360565b91506122f283612360565b925082821015612305576123046123b3565b5b828203905092915050565b600061231b82612340565b9050919050565b600061232d82612340565b9050919050565b60008115159050919050565b600073ffffffffffffffffffffffffffffffffffffffff82169050919050565b6000819050919050565b600061237582612360565b91507fffffffffffffffffffffffffffffffffffffffffffffffffffffffffffffffff8214156123a8576123a76123b3565b5b600182019050919050565b7f4e487b7100000000000000000000000000000000000000000000000000000000600052601160045260246000fd5b7f436f756e7465723a2064656372656d656e74206f766572666c6f770000000000600082015250565b7f4f6e6c79206974656d206f776e65722063616e20706572666f726d207468697360008201527f206f7065726174696f6e00000000000000000000000000000000000000000000602082015250565b7f4974656d20697320616c726561647920736f6c64000000000000000000000000600082015250565b7f5072696365206d75737420626520657175616c20746f206c697374696e67207060008201527f7269636500000000000000000000000000000000000000000000000000000000602082015250565b7f4f6e6c79206d61726b6574706c616365206f776e65722063616e20757064617460008201527f65206c697374696e672070726963652e00000000000000000000000000000000602082015250565b7f4974656d20646f6573206e6f7420657869737400000000000000000000000000600082015250565b7f596f7520617265206e6f74207468652073656c6c657200000000000000000000600082015250565b7f5265656e7472616e637947756172643a207265656e7472616e742063616c6c00600082015250565b7f5072696365206d757374206265206174206c6561737420312077656900000000600082015250565b7f496e76696120696c207072657a7a6f2072696368696573746f2070657220636f60008201527f6d706c6574617265206c27616371756973746f00000000000000000000000000602082015250565b61261d81612310565b811461262857600080fd5b50565b61263481612360565b811461263f57600080fd5b5056fea264697066735822122010263fe58c1075e9a98f19463c5769a4fbe60978aea6d9b3162de924f54c0dc664736f6c63430008040033",
  "linkReferences": {},
  "deployedLinkReferences": {}
}