{
  "_format": "hh-sol-artifact-1",
  "contractName": "NFTMarket",
  "sourceName": "contracts/NFTMarket.sol",
  "abi": [
    {
      "inputs": [],
      "stateMutability": "nonpayable",
      "type": "constructor"
    },
    {
      "anonymous": false,
      "inputs": [
        {
          "indexed": true,
          "internalType": "uint256",
          "name": "itemId",
          "type": "uint256"
        },
        {
          "indexed": true,
          "internalType": "address",
          "name": "nftContract",
          "type": "address"
        },
        {
          "indexed": true,
          "internalType": "uint256",
          "name": "tokenId",
          "type": "uint256"
        },
        {
          "indexed": false,
          "internalType": "address payable",
          "name": "seller",
          "type": "address"
        },
        {
          "indexed": false,
          "internalType": "address payable",
          "name": "owner",
          "type": "address"
        },
        {
          "indexed": false,
          "internalType": "uint256",
          "name": "price",
          "type": "uint256"
        },
        {
          "indexed": false,
          "internalType": "bool",
          "name": "sold",
          "type": "bool"
        }
      ],
      "name": "MarketItemCreated",
      "type": "event"
    },
    {
      "inputs": [
        {
          "internalType": "address",
          "name": "nftContract",
          "type": "address"
        },
        {
          "internalType": "uint256",
          "name": "tokenId",
          "type": "uint256"
        },
        {
          "internalType": "uint256",
          "name": "price",
          "type": "uint256"
        }
      ],
      "name": "createMarketItem",
      "outputs": [],
      "stateMutability": "payable",
      "type": "function"
    },
    {
      "inputs": [
        {
          "internalType": "address",
          "name": "nftContract",
          "type": "address"
        },
        {
          "internalType": "uint256",
          "name": "itemId",
          "type": "uint256"
        }
      ],
      "name": "createMarketSale",
      "outputs": [],
      "stateMutability": "payable",
      "type": "function"
    },
    {
      "inputs": [],
      "name": "fetchItemsCreated",
      "outputs": [
        {
          "components": [
            {
              "internalType": "uint256",
              "name": "itemId",
              "type": "uint256"
            },
            {
              "internalType": "address",
              "name": "nftContract",
              "type": "address"
            },
            {
              "internalType": "uint256",
              "name": "tokenId",
              "type": "uint256"
            },
            {
              "internalType": "address payable",
              "name": "seller",
              "type": "address"
            },
            {
              "internalType": "address payable",
              "name": "owner",
              "type": "address"
            },
            {
              "internalType": "uint256",
              "name": "price",
              "type": "uint256"
            },
            {
              "internalType": "bool",
              "name": "sold",
              "type": "bool"
            }
          ],
          "internalType": "struct NFTMarket.MarketItem[]",
          "name": "",
          "type": "tuple[]"
        }
      ],
      "stateMutability": "view",
      "type": "function"
    },
    {
      "inputs": [],
      "name": "fetchMarketItems",
      "outputs": [
        {
          "components": [
            {
              "internalType": "uint256",
              "name": "itemId",
              "type": "uint256"
            },
            {
              "internalType": "address",
              "name": "nftContract",
              "type": "address"
            },
            {
              "internalType": "uint256",
              "name": "tokenId",
              "type": "uint256"
            },
            {
              "internalType": "address payable",
              "name": "seller",
              "type": "address"
            },
            {
              "internalType": "address payable",
              "name": "owner",
              "type": "address"
            },
            {
              "internalType": "uint256",
              "name": "price",
              "type": "uint256"
            },
            {
              "internalType": "bool",
              "name": "sold",
              "type": "bool"
            }
          ],
          "internalType": "struct NFTMarket.MarketItem[]",
          "name": "",
          "type": "tuple[]"
        }
      ],
      "stateMutability": "view",
      "type": "function"
    },
    {
      "inputs": [],
      "name": "fetchMyNfts",
      "outputs": [
        {
          "components": [
            {
              "internalType": "uint256",
              "name": "itemId",
              "type": "uint256"
            },
            {
              "internalType": "address",
              "name": "nftContract",
              "type": "address"
            },
            {
              "internalType": "uint256",
              "name": "tokenId",
              "type": "uint256"
            },
            {
              "internalType": "address payable",
              "name": "seller",
              "type": "address"
            },
            {
              "internalType": "address payable",
              "name": "owner",
              "type": "address"
            },
            {
              "internalType": "uint256",
              "name": "price",
              "type": "uint256"
            },
            {
              "internalType": "bool",
              "name": "sold",
              "type": "bool"
            }
          ],
          "internalType": "struct NFTMarket.MarketItem[]",
          "name": "",
          "type": "tuple[]"
        }
      ],
      "stateMutability": "view",
      "type": "function"
    },
    {
      "inputs": [],
      "name": "getListingPrice",
      "outputs": [
        {
          "internalType": "uint256",
          "name": "",
          "type": "uint256"
        }
      ],
      "stateMutability": "view",
      "type": "function"
    },
    {
      "inputs": [
        {
          "internalType": "uint256",
          "name": "_listingPrice",
          "type": "uint256"
        }
      ],
      "name": "updateListingPrice",
      "outputs": [],
      "stateMutability": "payable",
      "type": "function"
    }
  ],
  "bytecode": "0x6080604052600060035534801561001557600080fd5b50600160008190555033600460006101000a81548173ffffffffffffffffffffffffffffffffffffffff021916908373ffffffffffffffffffffffffffffffffffffffff160217905550611add8061006e6000396000f3fe6080604052600436106100705760003560e01c806358eb2df51161004e57806358eb2df5146100f6578063ae677aa314610112578063c23b139e1461012e578063f064c32e1461014a57610070565b80630f08efe014610075578063128ae712146100a057806312e85585146100cb575b600080fd5b34801561008157600080fd5b5061008a610175565b60405161009791906116b7565b60405180910390f35b3480156100ac57600080fd5b506100b56104a0565b6040516100c291906116b7565b60405180910390f35b3480156100d757600080fd5b506100e0610850565b6040516100ed9190611779565b60405180910390f35b610110600480360381019061010b9190611398565b61085a565b005b61012c600480360381019061012791906113e7565b610b76565b005b6101486004803603810190610143919061135c565b610c10565b005b34801561015657600080fd5b5061015f610e83565b60405161016c91906116b7565b60405180910390f35b606060006101836001611233565b905060006101916002611233565b61019b6001611233565b6101a59190611834565b90506000808267ffffffffffffffff8111156101ea577f4e487b7100000000000000000000000000000000000000000000000000000000600052604160045260246000fd5b60405190808252806020026020018201604052801561022357816020015b6102106112b1565b8152602001906001900390816102085790505b50905060005b84811015610495573073ffffffffffffffffffffffffffffffffffffffff166005600060018461025991906117de565b815260200190815260200160002060040160009054906101000a900473ffffffffffffffffffffffffffffffffffffffff1673ffffffffffffffffffffffffffffffffffffffff161415610482576000600560006001846102ba91906117de565b81526020019081526020016000206000015490506000600560008381526020019081526020016000209050806040518060e0016040529081600082015481526020016001820160009054906101000a900473ffffffffffffffffffffffffffffffffffffffff1673ffffffffffffffffffffffffffffffffffffffff1673ffffffffffffffffffffffffffffffffffffffff168152602001600282015481526020016003820160009054906101000a900473ffffffffffffffffffffffffffffffffffffffff1673ffffffffffffffffffffffffffffffffffffffff1673ffffffffffffffffffffffffffffffffffffffff1681526020016004820160009054906101000a900473ffffffffffffffffffffffffffffffffffffffff1673ffffffffffffffffffffffffffffffffffffffff1673ffffffffffffffffffffffffffffffffffffffff168152602001600582015481526020016006820160009054906101000a900460ff161515151581525050848681518110610465577f4e487b7100000000000000000000000000000000000000000000000000000000600052603260045260246000fd5b602002602001018190525060018561047d91906117de565b945050505b808061048d906118c2565b915050610229565b508094505050505090565b606060006104ae6001611233565b905060008060005b83811015610557573373ffffffffffffffffffffffffffffffffffffffff16600560006001846104e691906117de565b815260200190815260200160002060040160009054906101000a900473ffffffffffffffffffffffffffffffffffffffff1673ffffffffffffffffffffffffffffffffffffffff1614156105445760018361054191906117de565b92505b808061054f906118c2565b9150506104b6565b5060008267ffffffffffffffff81111561059a577f4e487b7100000000000000000000000000000000000000000000000000000000600052604160045260246000fd5b6040519080825280602002602001820160405280156105d357816020015b6105c06112b1565b8152602001906001900390816105b85790505b50905060005b84811015610845573373ffffffffffffffffffffffffffffffffffffffff166005600060018461060991906117de565b815260200190815260200160002060040160009054906101000a900473ffffffffffffffffffffffffffffffffffffffff1673ffffffffffffffffffffffffffffffffffffffff1614156108325760006005600060018461066a91906117de565b81526020019081526020016000206000015490506000600560008381526020019081526020016000209050806040518060e0016040529081600082015481526020016001820160009054906101000a900473ffffffffffffffffffffffffffffffffffffffff1673ffffffffffffffffffffffffffffffffffffffff1673ffffffffffffffffffffffffffffffffffffffff168152602001600282015481526020016003820160009054906101000a900473ffffffffffffffffffffffffffffffffffffffff1673ffffffffffffffffffffffffffffffffffffffff1673ffffffffffffffffffffffffffffffffffffffff1681526020016004820160009054906101000a900473ffffffffffffffffffffffffffffffffffffffff1673ffffffffffffffffffffffffffffffffffffffff1673ffffffffffffffffffffffffffffffffffffffff168152602001600582015481526020016006820160009054906101000a900460ff161515151581525050848681518110610815577f4e487b7100000000000000000000000000000000000000000000000000000000600052603260045260246000fd5b602002602001018190525060018561082d91906117de565b945050505b808061083d906118c2565b9150506105d9565b508094505050505090565b6000600354905090565b610862611241565b600081116108a5576040517f08c379a000000000000000000000000000000000000000000000000000000000815260040161089c90611739565b60405180910390fd5b60035434146108e9576040517f08c379a00000000000000000000000000000000000000000000000000000000081526004016108e0906116d9565b60405180910390fd5b6108f36001611291565b60006108ff6001611233565b90506040518060e001604052808281526020018573ffffffffffffffffffffffffffffffffffffffff1681526020018481526020013373ffffffffffffffffffffffffffffffffffffffff1681526020013073ffffffffffffffffffffffffffffffffffffffff16815260200183815260200160001515815250600560008581526020019081526020016000206000820151816000015560208201518160010160006101000a81548173ffffffffffffffffffffffffffffffffffffffff021916908373ffffffffffffffffffffffffffffffffffffffff1602179055506040820151816002015560608201518160030160006101000a81548173ffffffffffffffffffffffffffffffffffffffff021916908373ffffffffffffffffffffffffffffffffffffffff16021790555060808201518160040160006101000a81548173ffffffffffffffffffffffffffffffffffffffff021916908373ffffffffffffffffffffffffffffffffffffffff16021790555060a0820151816005015560c08201518160060160006101000a81548160ff0219169083151502179055509050508373ffffffffffffffffffffffffffffffffffffffff166323b872dd3330866040518463ffffffff1660e01b8152600401610adf93929190611680565b600060405180830381600087803b158015610af957600080fd5b505af1158015610b0d573d6000803e3d6000fd5b50505050828473ffffffffffffffffffffffffffffffffffffffff16827f045dfa01dcba2b36aba1d3dc4a874f4b0c5d2fbeb8d2c4b34a7d88c8d8f929d13330876000604051610b60949392919061163b565b60405180910390a450610b716112a7565b505050565b3373ffffffffffffffffffffffffffffffffffffffff16600460009054906101000a900473ffffffffffffffffffffffffffffffffffffffff1673ffffffffffffffffffffffffffffffffffffffff1614610c06576040517f08c379a0000000000000000000000000000000000000000000000000000000008152600401610bfd906116f9565b60405180910390fd5b8060038190555050565b610c18611241565b600060056000838152602001908152602001600020600501549050600060056000848152602001908152602001600020600201549050813414610c90576040517f08c379a0000000000000000000000000000000000000000000000000000000008152600401610c8790611759565b60405180910390fd5b6005600084815260200190815260200160002060030160009054906101000a900473ffffffffffffffffffffffffffffffffffffffff1673ffffffffffffffffffffffffffffffffffffffff166108fc349081150290604051600060405180830381858888f19350505050158015610d0c573d6000803e3d6000fd5b508373ffffffffffffffffffffffffffffffffffffffff166323b872dd3033846040518463ffffffff1660e01b8152600401610d4a93929190611680565b600060405180830381600087803b158015610d6457600080fd5b505af1158015610d78573d6000803e3d6000fd5b50505050336005600085815260200190815260200160002060040160006101000a81548173ffffffffffffffffffffffffffffffffffffffff021916908373ffffffffffffffffffffffffffffffffffffffff16021790555060016005600085815260200190815260200160002060060160006101000a81548160ff021916908315150217905550610e0a6002611291565b600460009054906101000a900473ffffffffffffffffffffffffffffffffffffffff1673ffffffffffffffffffffffffffffffffffffffff166108fc6003549081150290604051600060405180830381858888f19350505050158015610e74573d6000803e3d6000fd5b505050610e7f6112a7565b5050565b60606000610e916001611233565b905060008060005b83811015610f3a573373ffffffffffffffffffffffffffffffffffffffff1660056000600184610ec991906117de565b815260200190815260200160002060030160009054906101000a900473ffffffffffffffffffffffffffffffffffffffff1673ffffffffffffffffffffffffffffffffffffffff161415610f2757600183610f2491906117de565b92505b8080610f32906118c2565b915050610e99565b5060008267ffffffffffffffff811115610f7d577f4e487b7100000000000000000000000000000000000000000000000000000000600052604160045260246000fd5b604051908082528060200260200182016040528015610fb657816020015b610fa36112b1565b815260200190600190039081610f9b5790505b50905060005b84811015611228573373ffffffffffffffffffffffffffffffffffffffff1660056000600184610fec91906117de565b815260200190815260200160002060030160009054906101000a900473ffffffffffffffffffffffffffffffffffffffff1673ffffffffffffffffffffffffffffffffffffffff1614156112155760006005600060018461104d91906117de565b81526020019081526020016000206000015490506000600560008381526020019081526020016000209050806040518060e0016040529081600082015481526020016001820160009054906101000a900473ffffffffffffffffffffffffffffffffffffffff1673ffffffffffffffffffffffffffffffffffffffff1673ffffffffffffffffffffffffffffffffffffffff168152602001600282015481526020016003820160009054906101000a900473ffffffffffffffffffffffffffffffffffffffff1673ffffffffffffffffffffffffffffffffffffffff1673ffffffffffffffffffffffffffffffffffffffff1681526020016004820160009054906101000a900473ffffffffffffffffffffffffffffffffffffffff1673ffffffffffffffffffffffffffffffffffffffff1673ffffffffffffffffffffffffffffffffffffffff168152602001600582015481526020016006820160009054906101000a900460ff1615151515815250508486815181106111f8577f4e487b7100000000000000000000000000000000000000000000000000000000600052603260045260246000fd5b602002602001018190525060018561121091906117de565b945050505b8080611220906118c2565b915050610fbc565b508094505050505090565b600081600001549050919050565b60026000541415611287576040517f08c379a000000000000000000000000000000000000000000000000000000000815260040161127e90611719565b60405180910390fd5b6002600081905550565b6001816000016000828254019250508190555050565b6001600081905550565b6040518060e0016040528060008152602001600073ffffffffffffffffffffffffffffffffffffffff16815260200160008152602001600073ffffffffffffffffffffffffffffffffffffffff168152602001600073ffffffffffffffffffffffffffffffffffffffff168152602001600081526020016000151581525090565b60008135905061134181611a79565b92915050565b60008135905061135681611a90565b92915050565b6000806040838503121561136f57600080fd5b600061137d85828601611332565b925050602061138e85828601611347565b9150509250929050565b6000806000606084860312156113ad57600080fd5b60006113bb86828701611332565b93505060206113cc86828701611347565b92505060406113dd86828701611347565b9150509250925092565b6000602082840312156113f957600080fd5b600061140784828501611347565b91505092915050565b600061141c838361158f565b60e08301905092915050565b6114318161187a565b82525050565b6114408161187a565b82525050565b61144f81611868565b82525050565b61145e81611868565b82525050565b600061146f826117a4565b61147981856117bc565b935061148483611794565b8060005b838110156114b557815161149c8882611410565b97506114a7836117af565b925050600181019050611488565b5085935050505092915050565b6114cb8161188c565b82525050565b6114da8161188c565b82525050565b60006114ed6024836117cd565b91506114f88261193a565b604082019050919050565b60006115106030836117cd565b915061151b82611989565b604082019050919050565b6000611533601f836117cd565b915061153e826119d8565b602082019050919050565b6000611556601c836117cd565b915061156182611a01565b602082019050919050565b60006115796033836117cd565b915061158482611a2a565b604082019050919050565b60e0820160008201516115a5600085018261161d565b5060208201516115b86020850182611446565b5060408201516115cb604085018261161d565b5060608201516115de6060850182611428565b5060808201516115f16080850182611428565b5060a082015161160460a085018261161d565b5060c082015161161760c08501826114c2565b50505050565b611626816118b8565b82525050565b611635816118b8565b82525050565b60006080820190506116506000830187611437565b61165d6020830186611437565b61166a604083018561162c565b61167760608301846114d1565b95945050505050565b60006060820190506116956000830186611455565b6116a26020830185611455565b6116af604083018461162c565b949350505050565b600060208201905081810360008301526116d18184611464565b905092915050565b600060208201905081810360008301526116f2816114e0565b9050919050565b6000602082019050818103600083015261171281611503565b9050919050565b6000602082019050818103600083015261173281611526565b9050919050565b6000602082019050818103600083015261175281611549565b9050919050565b600060208201905081810360008301526117728161156c565b9050919050565b600060208201905061178e600083018461162c565b92915050565b6000819050602082019050919050565b600081519050919050565b6000602082019050919050565b600082825260208201905092915050565b600082825260208201905092915050565b60006117e9826118b8565b91506117f4836118b8565b9250827fffffffffffffffffffffffffffffffffffffffffffffffffffffffffffffffff038211156118295761182861190b565b5b828201905092915050565b600061183f826118b8565b915061184a836118b8565b92508282101561185d5761185c61190b565b5b828203905092915050565b600061187382611898565b9050919050565b600061188582611898565b9050919050565b60008115159050919050565b600073ffffffffffffffffffffffffffffffffffffffff82169050919050565b6000819050919050565b60006118cd826118b8565b91507fffffffffffffffffffffffffffffffffffffffffffffffffffffffffffffffff821415611900576118ff61190b565b5b600182019050919050565b7f4e487b7100000000000000000000000000000000000000000000000000000000600052601160045260246000fd5b7f5072696365206d75737420626520657175616c20746f206c697374696e67207060008201527f7269636500000000000000000000000000000000000000000000000000000000602082015250565b7f4f6e6c79206d61726b6574706c616365206f776e65722063616e20757064617460008201527f65206c697374696e672070726963652e00000000000000000000000000000000602082015250565b7f5265656e7472616e637947756172643a207265656e7472616e742063616c6c00600082015250565b7f5072696365206d757374206265206174206c6561737420312077656900000000600082015250565b7f496e76696120696c207072657a7a6f2072696368696573746f2070657220636f60008201527f6d706c6574617265206c27616371756973746f00000000000000000000000000602082015250565b611a8281611868565b8114611a8d57600080fd5b50565b611a99816118b8565b8114611aa457600080fd5b5056fea264697066735822122040675af5c860cb63e3670f8fd5c09fb579c2266dde81b97f84f13e4aa198663064736f6c63430008040033",
  "linkReferences": {},
  "deployedLinkReferences": {}
}