{
  "_format": "hh-sol-artifact-1",
  "contractName": "NFTMarket",
  "sourceName": "contracts/NFTMarket.sol",
  "abi": [
    {
      "inputs": [],
      "stateMutability": "nonpayable",
      "type": "constructor"
    },
    {
      "anonymous": false,
      "inputs": [
        {
          "indexed": true,
          "internalType": "address",
          "name": "owner",
          "type": "address"
        },
        {
          "indexed": true,
          "internalType": "address",
          "name": "approved",
          "type": "address"
        },
        {
          "indexed": true,
          "internalType": "uint256",
          "name": "tokenId",
          "type": "uint256"
        }
      ],
      "name": "Approval",
      "type": "event"
    },
    {
      "anonymous": false,
      "inputs": [
        {
          "indexed": true,
          "internalType": "address",
          "name": "owner",
          "type": "address"
        },
        {
          "indexed": true,
          "internalType": "address",
          "name": "operator",
          "type": "address"
        },
        {
          "indexed": false,
          "internalType": "bool",
          "name": "approved",
          "type": "bool"
        }
      ],
      "name": "ApprovalForAll",
      "type": "event"
    },
    {
      "anonymous": false,
      "inputs": [
        {
          "indexed": false,
          "internalType": "uint256",
          "name": "_fromTokenId",
          "type": "uint256"
        },
        {
          "indexed": false,
          "internalType": "uint256",
          "name": "_toTokenId",
          "type": "uint256"
        }
      ],
      "name": "BatchMetadataUpdate",
      "type": "event"
    },
    {
      "anonymous": false,
      "inputs": [
        {
          "indexed": true,
          "internalType": "uint256",
          "name": "tokenId",
          "type": "uint256"
        },
        {
          "indexed": false,
          "internalType": "address",
          "name": "seller",
          "type": "address"
        },
        {
          "indexed": false,
          "internalType": "address",
          "name": "owner",
          "type": "address"
        },
        {
          "indexed": false,
          "internalType": "uint256",
          "name": "price",
          "type": "uint256"
        },
        {
          "indexed": false,
          "internalType": "bool",
          "name": "sold",
          "type": "bool"
        }
      ],
      "name": "MarketItemCreated",
      "type": "event"
    },
    {
      "anonymous": false,
      "inputs": [
        {
          "indexed": false,
          "internalType": "uint256",
          "name": "_tokenId",
          "type": "uint256"
        }
      ],
      "name": "MetadataUpdate",
      "type": "event"
    },
    {
      "anonymous": false,
      "inputs": [
        {
          "indexed": true,
          "internalType": "address",
          "name": "from",
          "type": "address"
        },
        {
          "indexed": true,
          "internalType": "address",
          "name": "to",
          "type": "address"
        },
        {
          "indexed": true,
          "internalType": "uint256",
          "name": "tokenId",
          "type": "uint256"
        }
      ],
      "name": "Transfer",
      "type": "event"
    },
    {
      "inputs": [
        {
          "internalType": "address",
          "name": "to",
          "type": "address"
        },
        {
          "internalType": "uint256",
          "name": "tokenId",
          "type": "uint256"
        }
      ],
      "name": "approve",
      "outputs": [],
      "stateMutability": "nonpayable",
      "type": "function"
    },
    {
      "inputs": [
        {
          "internalType": "address",
          "name": "owner",
          "type": "address"
        }
      ],
      "name": "balanceOf",
      "outputs": [
        {
          "internalType": "uint256",
          "name": "",
          "type": "uint256"
        }
      ],
      "stateMutability": "view",
      "type": "function"
    },
    {
      "inputs": [
        {
          "internalType": "uint256",
          "name": "tokenId",
          "type": "uint256"
        }
      ],
      "name": "createMarketSale",
      "outputs": [],
      "stateMutability": "payable",
      "type": "function"
    },
    {
      "inputs": [
        {
          "internalType": "string",
          "name": "tokenURI",
          "type": "string"
        },
        {
          "internalType": "uint256",
          "name": "price",
          "type": "uint256"
        }
      ],
      "name": "createToken",
      "outputs": [
        {
          "internalType": "uint256",
          "name": "",
          "type": "uint256"
        }
      ],
      "stateMutability": "payable",
      "type": "function"
    },
    {
      "inputs": [],
      "name": "fetchItemsListed",
      "outputs": [
        {
          "components": [
            {
              "internalType": "uint256",
              "name": "tokenId",
              "type": "uint256"
            },
            {
              "internalType": "address payable",
              "name": "seller",
              "type": "address"
            },
            {
              "internalType": "address payable",
              "name": "owner",
              "type": "address"
            },
            {
              "internalType": "uint256",
              "name": "price",
              "type": "uint256"
            },
            {
              "internalType": "bool",
              "name": "sold",
              "type": "bool"
            }
          ],
          "internalType": "struct NFTMarket.MarketItem[]",
          "name": "",
          "type": "tuple[]"
        }
      ],
      "stateMutability": "view",
      "type": "function"
    },
    {
      "inputs": [],
      "name": "fetchMarketItems",
      "outputs": [
        {
          "components": [
            {
              "internalType": "uint256",
              "name": "tokenId",
              "type": "uint256"
            },
            {
              "internalType": "address payable",
              "name": "seller",
              "type": "address"
            },
            {
              "internalType": "address payable",
              "name": "owner",
              "type": "address"
            },
            {
              "internalType": "uint256",
              "name": "price",
              "type": "uint256"
            },
            {
              "internalType": "bool",
              "name": "sold",
              "type": "bool"
            }
          ],
          "internalType": "struct NFTMarket.MarketItem[]",
          "name": "",
          "type": "tuple[]"
        }
      ],
      "stateMutability": "view",
      "type": "function"
    },
    {
      "inputs": [],
      "name": "fetchMyNFTs",
      "outputs": [
        {
          "components": [
            {
              "internalType": "uint256",
              "name": "tokenId",
              "type": "uint256"
            },
            {
              "internalType": "address payable",
              "name": "seller",
              "type": "address"
            },
            {
              "internalType": "address payable",
              "name": "owner",
              "type": "address"
            },
            {
              "internalType": "uint256",
              "name": "price",
              "type": "uint256"
            },
            {
              "internalType": "bool",
              "name": "sold",
              "type": "bool"
            }
          ],
          "internalType": "struct NFTMarket.MarketItem[]",
          "name": "",
          "type": "tuple[]"
        }
      ],
      "stateMutability": "view",
      "type": "function"
    },
    {
      "inputs": [
        {
          "internalType": "uint256",
          "name": "tokenId",
          "type": "uint256"
        }
      ],
      "name": "getApproved",
      "outputs": [
        {
          "internalType": "address",
          "name": "",
          "type": "address"
        }
      ],
      "stateMutability": "view",
      "type": "function"
    },
    {
      "inputs": [],
      "name": "getListingPrice",
      "outputs": [
        {
          "internalType": "uint256",
          "name": "",
          "type": "uint256"
        }
      ],
      "stateMutability": "view",
      "type": "function"
    },
    {
      "inputs": [
        {
          "internalType": "uint256",
          "name": "tokenId",
          "type": "uint256"
        }
      ],
      "name": "getMarketItemById",
      "outputs": [
        {
          "components": [
            {
              "internalType": "uint256",
              "name": "tokenId",
              "type": "uint256"
            },
            {
              "internalType": "address payable",
              "name": "seller",
              "type": "address"
            },
            {
              "internalType": "address payable",
              "name": "owner",
              "type": "address"
            },
            {
              "internalType": "uint256",
              "name": "price",
              "type": "uint256"
            },
            {
              "internalType": "bool",
              "name": "sold",
              "type": "bool"
            }
          ],
          "internalType": "struct NFTMarket.MarketItem",
          "name": "",
          "type": "tuple"
        }
      ],
      "stateMutability": "view",
      "type": "function"
    },
    {
      "inputs": [
        {
          "internalType": "address",
          "name": "owner",
          "type": "address"
        },
        {
          "internalType": "address",
          "name": "operator",
          "type": "address"
        }
      ],
      "name": "isApprovedForAll",
      "outputs": [
        {
          "internalType": "bool",
          "name": "",
          "type": "bool"
        }
      ],
      "stateMutability": "view",
      "type": "function"
    },
    {
      "inputs": [],
      "name": "name",
      "outputs": [
        {
          "internalType": "string",
          "name": "",
          "type": "string"
        }
      ],
      "stateMutability": "view",
      "type": "function"
    },
    {
      "inputs": [
        {
          "internalType": "uint256",
          "name": "tokenId",
          "type": "uint256"
        }
      ],
      "name": "ownerOf",
      "outputs": [
        {
          "internalType": "address",
          "name": "",
          "type": "address"
        }
      ],
      "stateMutability": "view",
      "type": "function"
    },
    {
      "inputs": [
        {
          "internalType": "uint256",
          "name": "tokenId",
          "type": "uint256"
        },
        {
          "internalType": "uint256",
          "name": "price",
          "type": "uint256"
        }
      ],
      "name": "resellToken",
      "outputs": [],
      "stateMutability": "payable",
      "type": "function"
    },
    {
      "inputs": [
        {
          "internalType": "address",
          "name": "from",
          "type": "address"
        },
        {
          "internalType": "address",
          "name": "to",
          "type": "address"
        },
        {
          "internalType": "uint256",
          "name": "tokenId",
          "type": "uint256"
        }
      ],
      "name": "safeTransferFrom",
      "outputs": [],
      "stateMutability": "nonpayable",
      "type": "function"
    },
    {
      "inputs": [
        {
          "internalType": "address",
          "name": "from",
          "type": "address"
        },
        {
          "internalType": "address",
          "name": "to",
          "type": "address"
        },
        {
          "internalType": "uint256",
          "name": "tokenId",
          "type": "uint256"
        },
        {
          "internalType": "bytes",
          "name": "data",
          "type": "bytes"
        }
      ],
      "name": "safeTransferFrom",
      "outputs": [],
      "stateMutability": "nonpayable",
      "type": "function"
    },
    {
      "inputs": [
        {
          "internalType": "address",
          "name": "operator",
          "type": "address"
        },
        {
          "internalType": "bool",
          "name": "approved",
          "type": "bool"
        }
      ],
      "name": "setApprovalForAll",
      "outputs": [],
      "stateMutability": "nonpayable",
      "type": "function"
    },
    {
      "inputs": [
        {
          "internalType": "bytes4",
          "name": "interfaceId",
          "type": "bytes4"
        }
      ],
      "name": "supportsInterface",
      "outputs": [
        {
          "internalType": "bool",
          "name": "",
          "type": "bool"
        }
      ],
      "stateMutability": "view",
      "type": "function"
    },
    {
      "inputs": [],
      "name": "symbol",
      "outputs": [
        {
          "internalType": "string",
          "name": "",
          "type": "string"
        }
      ],
      "stateMutability": "view",
      "type": "function"
    },
    {
      "inputs": [
        {
          "internalType": "uint256",
          "name": "tokenId",
          "type": "uint256"
        }
      ],
      "name": "tokenURI",
      "outputs": [
        {
          "internalType": "string",
          "name": "",
          "type": "string"
        }
      ],
      "stateMutability": "view",
      "type": "function"
    },
    {
      "inputs": [
        {
          "internalType": "address",
          "name": "from",
          "type": "address"
        },
        {
          "internalType": "address",
          "name": "to",
          "type": "address"
        },
        {
          "internalType": "uint256",
          "name": "tokenId",
          "type": "uint256"
        }
      ],
      "name": "transferFrom",
      "outputs": [],
      "stateMutability": "nonpayable",
      "type": "function"
    },
    {
      "inputs": [
        {
          "internalType": "uint256",
          "name": "_listingPrice",
          "type": "uint256"
        }
      ],
      "name": "updateListingPrice",
      "outputs": [],
      "stateMutability": "payable",
      "type": "function"
    }
  ],
  "bytecode": "0x608060405260006009553480156200001657600080fd5b506040518060400160405280601081526020017f4d657461766572736520546f6b656e73000000000000000000000000000000008152506040518060400160405280600481526020017f4d4554540000000000000000000000000000000000000000000000000000000081525081600090805190602001906200009b929190620000fe565b508060019080519060200190620000b4929190620000fe565b50505033600a60006101000a81548173ffffffffffffffffffffffffffffffffffffffff021916908373ffffffffffffffffffffffffffffffffffffffff16021790555062000213565b8280546200010c90620001ae565b90600052602060002090601f0160209004810192826200013057600085556200017c565b82601f106200014b57805160ff19168380011785556200017c565b828001600101855582156200017c579182015b828111156200017b5782518255916020019190600101906200015e565b5b5090506200018b91906200018f565b5090565b5b80821115620001aa57600081600090555060010162000190565b5090565b60006002820490506001821680620001c757607f821691505b60208210811415620001de57620001dd620001e4565b5b50919050565b7f4e487b7100000000000000000000000000000000000000000000000000000000600052602260045260246000fd5b61448180620002236000396000f3fe6080604052600436106101355760003560e01c80636352211e116100ab578063ae677aa31161006f578063ae677aa314610441578063b88d4fde1461045d578063be9af53614610486578063c87b56dd146104a2578063e219fc75146104df578063e985e9c5146104fb57610135565b80636352211e1461034357806370a082311461038057806372b3b620146103bd57806395d89b41146103ed578063a22cb4651461041857610135565b806312e85585116100fd57806312e8558514610233578063202e37401461025e57806323b872dd1461028957806342842e0e146102b257806345f8fa80146102db57806353dbceb11461030657610135565b806301ffc9a71461013a57806306fdde0314610177578063081812fc146101a2578063095ea7b3146101df5780630f08efe014610208575b600080fd5b34801561014657600080fd5b50610161600480360381019061015c919061323d565b610538565b60405161016e91906138f3565b60405180910390f35b34801561018357600080fd5b5061018c610599565b604051610199919061390e565b60405180910390f35b3480156101ae57600080fd5b506101c960048036038101906101c491906132e3565b61062b565b6040516101d69190613825565b60405180910390f35b3480156101eb57600080fd5b5061020660048036038101906102019190613201565b610671565b005b34801561021457600080fd5b5061021d610789565b60405161022a91906138d1565b60405180910390f35b34801561023f57600080fd5b50610248610a3e565b6040516102559190613b8b565b60405180910390f35b34801561026a57600080fd5b50610273610a48565b60405161028091906138d1565b60405180910390f35b34801561029557600080fd5b506102b060048036038101906102ab91906130fb565b610d82565b005b3480156102be57600080fd5b506102d960048036038101906102d491906130fb565b610de2565b005b3480156102e757600080fd5b506102f0610e02565b6040516102fd91906138d1565b60405180910390f35b34801561031257600080fd5b5061032d600480360381019061032891906132e3565b61113c565b60405161033a9190613b70565b60405180910390f35b34801561034f57600080fd5b5061036a600480360381019061036591906132e3565b611244565b6040516103779190613825565b60405180910390f35b34801561038c57600080fd5b506103a760048036038101906103a29190613096565b6112cb565b6040516103b49190613b8b565b60405180910390f35b6103d760048036038101906103d2919061328f565b611383565b6040516103e49190613b8b565b60405180910390f35b3480156103f957600080fd5b506104026113c5565b60405161040f919061390e565b60405180910390f35b34801561042457600080fd5b5061043f600480360381019061043a91906131c5565b611457565b005b61045b600480360381019061045691906132e3565b61146d565b005b34801561046957600080fd5b50610484600480360381019061047f919061314a565b611507565b005b6104a0600480360381019061049b91906132e3565b611569565b005b3480156104ae57600080fd5b506104c960048036038101906104c491906132e3565b6117a7565b6040516104d6919061390e565b60405180910390f35b6104f960048036038101906104f4919061330c565b6118ba565b005b34801561050757600080fd5b50610522600480360381019061051d91906130bf565b611aaf565b60405161052f91906138f3565b60405180910390f35b6000634906490660e01b7bffffffffffffffffffffffffffffffffffffffffffffffffffffffff1916827bffffffffffffffffffffffffffffffffffffffffffffffffffffffff19161480610592575061059182611b43565b5b9050919050565b6060600080546105a890613dfb565b80601f01602080910402602001604051908101604052809291908181526020018280546105d490613dfb565b80156106215780601f106105f657610100808354040283529160200191610621565b820191906000526020600020905b81548152906001019060200180831161060457829003601f168201915b5050505050905090565b600061063682611c25565b6004600083815260200190815260200160002060009054906101000a900473ffffffffffffffffffffffffffffffffffffffff169050919050565b600061067c82611244565b90508073ffffffffffffffffffffffffffffffffffffffff168373ffffffffffffffffffffffffffffffffffffffff1614156106ed576040517f08c379a00000000000000000000000000000000000000000000000000000000081526004016106e490613ad0565b60405180910390fd5b8073ffffffffffffffffffffffffffffffffffffffff1661070c611c70565b73ffffffffffffffffffffffffffffffffffffffff16148061073b575061073a81610735611c70565b611aaf565b5b61077a576040517f08c379a000000000000000000000000000000000000000000000000000000000815260040161077190613b10565b60405180910390fd5b6107848383611c78565b505050565b606060006107976007611d31565b905060006107a56008611d31565b6107af6007611d31565b6107b99190613cff565b90506000808267ffffffffffffffff8111156107fe577f4e487b7100000000000000000000000000000000000000000000000000000000600052604160045260246000fd5b60405190808252806020026020018201604052801561083757816020015b610824612e5d565b81526020019060019003908161081c5790505b50905060005b84811015610a33573073ffffffffffffffffffffffffffffffffffffffff16600b600060018461086d9190613ca9565b815260200190815260200160002060020160009054906101000a900473ffffffffffffffffffffffffffffffffffffffff1673ffffffffffffffffffffffffffffffffffffffff161415610a205760006001826108ca9190613ca9565b90506000600b60008381526020019081526020016000209050806040518060a0016040529081600082015481526020016001820160009054906101000a900473ffffffffffffffffffffffffffffffffffffffff1673ffffffffffffffffffffffffffffffffffffffff1673ffffffffffffffffffffffffffffffffffffffff1681526020016002820160009054906101000a900473ffffffffffffffffffffffffffffffffffffffff1673ffffffffffffffffffffffffffffffffffffffff1673ffffffffffffffffffffffffffffffffffffffff168152602001600382015481526020016004820160009054906101000a900460ff161515151581525050848681518110610a03577f4e487b7100000000000000000000000000000000000000000000000000000000600052603260045260246000fd5b6020026020010181905250600185610a1b9190613ca9565b945050505b8080610a2b90613e5e565b91505061083d565b508094505050505090565b6000600954905090565b60606000610a566007611d31565b905060008060005b83811015610aff573373ffffffffffffffffffffffffffffffffffffffff16600b6000600184610a8e9190613ca9565b815260200190815260200160002060020160009054906101000a900473ffffffffffffffffffffffffffffffffffffffff1673ffffffffffffffffffffffffffffffffffffffff161415610aec57600183610ae99190613ca9565b92505b8080610af790613e5e565b915050610a5e565b5060008267ffffffffffffffff811115610b42577f4e487b7100000000000000000000000000000000000000000000000000000000600052604160045260246000fd5b604051908082528060200260200182016040528015610b7b57816020015b610b68612e5d565b815260200190600190039081610b605790505b50905060005b84811015610d77573373ffffffffffffffffffffffffffffffffffffffff16600b6000600184610bb19190613ca9565b815260200190815260200160002060020160009054906101000a900473ffffffffffffffffffffffffffffffffffffffff1673ffffffffffffffffffffffffffffffffffffffff161415610d64576000600182610c0e9190613ca9565b90506000600b60008381526020019081526020016000209050806040518060a0016040529081600082015481526020016001820160009054906101000a900473ffffffffffffffffffffffffffffffffffffffff1673ffffffffffffffffffffffffffffffffffffffff1673ffffffffffffffffffffffffffffffffffffffff1681526020016002820160009054906101000a900473ffffffffffffffffffffffffffffffffffffffff1673ffffffffffffffffffffffffffffffffffffffff1673ffffffffffffffffffffffffffffffffffffffff168152602001600382015481526020016004820160009054906101000a900460ff161515151581525050848681518110610d47577f4e487b7100000000000000000000000000000000000000000000000000000000600052603260045260246000fd5b6020026020010181905250600185610d5f9190613ca9565b945050505b8080610d6f90613e5e565b915050610b81565b508094505050505090565b610d93610d8d611c70565b82611d3f565b610dd2576040517f08c379a0000000000000000000000000000000000000000000000000000000008152600401610dc990613930565b60405180910390fd5b610ddd838383611dd4565b505050565b610dfd83838360405180602001604052806000815250611507565b505050565b60606000610e106007611d31565b905060008060005b83811015610eb9573373ffffffffffffffffffffffffffffffffffffffff16600b6000600184610e489190613ca9565b815260200190815260200160002060010160009054906101000a900473ffffffffffffffffffffffffffffffffffffffff1673ffffffffffffffffffffffffffffffffffffffff161415610ea657600183610ea39190613ca9565b92505b8080610eb190613e5e565b915050610e18565b5060008267ffffffffffffffff811115610efc577f4e487b7100000000000000000000000000000000000000000000000000000000600052604160045260246000fd5b604051908082528060200260200182016040528015610f3557816020015b610f22612e5d565b815260200190600190039081610f1a5790505b50905060005b84811015611131573373ffffffffffffffffffffffffffffffffffffffff16600b6000600184610f6b9190613ca9565b815260200190815260200160002060010160009054906101000a900473ffffffffffffffffffffffffffffffffffffffff1673ffffffffffffffffffffffffffffffffffffffff16141561111e576000600182610fc89190613ca9565b90506000600b60008381526020019081526020016000209050806040518060a0016040529081600082015481526020016001820160009054906101000a900473ffffffffffffffffffffffffffffffffffffffff1673ffffffffffffffffffffffffffffffffffffffff1673ffffffffffffffffffffffffffffffffffffffff1681526020016002820160009054906101000a900473ffffffffffffffffffffffffffffffffffffffff1673ffffffffffffffffffffffffffffffffffffffff1673ffffffffffffffffffffffffffffffffffffffff168152602001600382015481526020016004820160009054906101000a900460ff161515151581525050848681518110611101577f4e487b7100000000000000000000000000000000000000000000000000000000600052603260045260246000fd5b60200260200101819052506001856111199190613ca9565b945050505b808061112990613e5e565b915050610f3b565b508094505050505090565b611144612e5d565b600b60008381526020019081526020016000206040518060a0016040529081600082015481526020016001820160009054906101000a900473ffffffffffffffffffffffffffffffffffffffff1673ffffffffffffffffffffffffffffffffffffffff1673ffffffffffffffffffffffffffffffffffffffff1681526020016002820160009054906101000a900473ffffffffffffffffffffffffffffffffffffffff1673ffffffffffffffffffffffffffffffffffffffff1673ffffffffffffffffffffffffffffffffffffffff168152602001600382015481526020016004820160009054906101000a900460ff1615151515815250509050919050565b600080611250836120ce565b9050600073ffffffffffffffffffffffffffffffffffffffff168173ffffffffffffffffffffffffffffffffffffffff1614156112c2576040517f08c379a00000000000000000000000000000000000000000000000000000000081526004016112b990613ab0565b60405180910390fd5b80915050919050565b60008073ffffffffffffffffffffffffffffffffffffffff168273ffffffffffffffffffffffffffffffffffffffff16141561133c576040517f08c379a000000000000000000000000000000000000000000000000000000000815260040161133390613a10565b60405180910390fd5b600360008373ffffffffffffffffffffffffffffffffffffffff1673ffffffffffffffffffffffffffffffffffffffff168152602001908152602001600020549050919050565b600061138f600761210b565b600061139b6007611d31565b90506113a73382612121565b6113b1818561233f565b6113bb81846123ea565b8091505092915050565b6060600180546113d490613dfb565b80601f016020809104026020016040519081016040528092919081815260200182805461140090613dfb565b801561144d5780601f106114225761010080835404028352916020019161144d565b820191906000526020600020905b81548152906001019060200180831161143057829003601f168201915b5050505050905090565b611469611462611c70565b83836125ed565b5050565b3373ffffffffffffffffffffffffffffffffffffffff16600a60009054906101000a900473ffffffffffffffffffffffffffffffffffffffff1673ffffffffffffffffffffffffffffffffffffffff16146114fd576040517f08c379a00000000000000000000000000000000000000000000000000000000081526004016114f490613b30565b60405180910390fd5b8060098190555050565b611518611512611c70565b83611d3f565b611557576040517f08c379a000000000000000000000000000000000000000000000000000000000815260040161154e90613930565b60405180910390fd5b6115638484848461275a565b50505050565b6000600b60008381526020019081526020016000206003015490506000600b600084815260200190815260200160002060010160009054906101000a900473ffffffffffffffffffffffffffffffffffffffff169050813414611601576040517f08c379a00000000000000000000000000000000000000000000000000000000081526004016115f890613a50565b60405180910390fd5b33600b600085815260200190815260200160002060020160006101000a81548173ffffffffffffffffffffffffffffffffffffffff021916908373ffffffffffffffffffffffffffffffffffffffff1602179055506001600b600085815260200190815260200160002060040160006101000a81548160ff0219169083151502179055506000600b600085815260200190815260200160002060010160006101000a81548173ffffffffffffffffffffffffffffffffffffffff021916908373ffffffffffffffffffffffffffffffffffffffff1602179055506116e5600861210b565b6116f0303385611dd4565b600a60009054906101000a900473ffffffffffffffffffffffffffffffffffffffff1673ffffffffffffffffffffffffffffffffffffffff166108fc6009549081150290604051600060405180830381858888f1935050505015801561175a573d6000803e3d6000fd5b508073ffffffffffffffffffffffffffffffffffffffff166108fc349081150290604051600060405180830381858888f193505050501580156117a1573d6000803e3d6000fd5b50505050565b60606117b282611c25565b60006006600084815260200190815260200160002080546117d290613dfb565b80601f01602080910402602001604051908101604052809291908181526020018280546117fe90613dfb565b801561184b5780601f106118205761010080835404028352916020019161184b565b820191906000526020600020905b81548152906001019060200180831161182e57829003601f168201915b50505050509050600061185c6127b6565b90506000815114156118725781925050506118b5565b6000825111156118a757808260405160200161188f929190613801565b604051602081830303815290604052925050506118b5565b6118b0846127cd565b925050505b919050565b3373ffffffffffffffffffffffffffffffffffffffff16600b600084815260200190815260200160002060020160009054906101000a900473ffffffffffffffffffffffffffffffffffffffff1673ffffffffffffffffffffffffffffffffffffffff161461195e576040517f08c379a000000000000000000000000000000000000000000000000000000000815260040161195590613a90565b60405180910390fd5b60095434146119a2576040517f08c379a000000000000000000000000000000000000000000000000000000000815260040161199990613af0565b60405180910390fd5b6000600b600084815260200190815260200160002060040160006101000a81548160ff02191690831515021790555080600b60008481526020019081526020016000206003018190555033600b600084815260200190815260200160002060010160006101000a81548173ffffffffffffffffffffffffffffffffffffffff021916908373ffffffffffffffffffffffffffffffffffffffff16021790555030600b600084815260200190815260200160002060020160006101000a81548173ffffffffffffffffffffffffffffffffffffffff021916908373ffffffffffffffffffffffffffffffffffffffff160217905550611aa06008612835565b611aab333084611dd4565b5050565b6000600560008473ffffffffffffffffffffffffffffffffffffffff1673ffffffffffffffffffffffffffffffffffffffff16815260200190815260200160002060008373ffffffffffffffffffffffffffffffffffffffff1673ffffffffffffffffffffffffffffffffffffffff16815260200190815260200160002060009054906101000a900460ff16905092915050565b60007f80ac58cd000000000000000000000000000000000000000000000000000000007bffffffffffffffffffffffffffffffffffffffffffffffffffffffff1916827bffffffffffffffffffffffffffffffffffffffffffffffffffffffff19161480611c0e57507f5b5e139f000000000000000000000000000000000000000000000000000000007bffffffffffffffffffffffffffffffffffffffffffffffffffffffff1916827bffffffffffffffffffffffffffffffffffffffffffffffffffffffff1916145b80611c1e5750611c1d82612891565b5b9050919050565b611c2e816128fb565b611c6d576040517f08c379a0000000000000000000000000000000000000000000000000000000008152600401611c6490613ab0565b60405180910390fd5b50565b600033905090565b816004600083815260200190815260200160002060006101000a81548173ffffffffffffffffffffffffffffffffffffffff021916908373ffffffffffffffffffffffffffffffffffffffff160217905550808273ffffffffffffffffffffffffffffffffffffffff16611ceb83611244565b73ffffffffffffffffffffffffffffffffffffffff167f8c5be1e5ebec7d5bd14f71427d1e84f3dd0314c0f7b2291e5b200ac8c7c3b92560405160405180910390a45050565b600081600001549050919050565b600080611d4b83611244565b90508073ffffffffffffffffffffffffffffffffffffffff168473ffffffffffffffffffffffffffffffffffffffff161480611d8d5750611d8c8185611aaf565b5b80611dcb57508373ffffffffffffffffffffffffffffffffffffffff16611db38461062b565b73ffffffffffffffffffffffffffffffffffffffff16145b91505092915050565b8273ffffffffffffffffffffffffffffffffffffffff16611df482611244565b73ffffffffffffffffffffffffffffffffffffffff1614611e4a576040517f08c379a0000000000000000000000000000000000000000000000000000000008152600401611e4190613990565b60405180910390fd5b600073ffffffffffffffffffffffffffffffffffffffff168273ffffffffffffffffffffffffffffffffffffffff161415611eba576040517f08c379a0000000000000000000000000000000000000000000000000000000008152600401611eb1906139d0565b60405180910390fd5b611ec7838383600161293c565b8273ffffffffffffffffffffffffffffffffffffffff16611ee782611244565b73ffffffffffffffffffffffffffffffffffffffff1614611f3d576040517f08c379a0000000000000000000000000000000000000000000000000000000008152600401611f3490613990565b60405180910390fd5b6004600082815260200190815260200160002060006101000a81549073ffffffffffffffffffffffffffffffffffffffff02191690556001600360008573ffffffffffffffffffffffffffffffffffffffff1673ffffffffffffffffffffffffffffffffffffffff168152602001908152602001600020600082825403925050819055506001600360008473ffffffffffffffffffffffffffffffffffffffff1673ffffffffffffffffffffffffffffffffffffffff16815260200190815260200160002060008282540192505081905550816002600083815260200190815260200160002060006101000a81548173ffffffffffffffffffffffffffffffffffffffff021916908373ffffffffffffffffffffffffffffffffffffffff160217905550808273ffffffffffffffffffffffffffffffffffffffff168473ffffffffffffffffffffffffffffffffffffffff167fddf252ad1be2c89b69c2b068fc378daa952ba7f163c4a11628f55a4df523b3ef60405160405180910390a46120c98383836001612942565b505050565b60006002600083815260200190815260200160002060009054906101000a900473ffffffffffffffffffffffffffffffffffffffff169050919050565b6001816000016000828254019250508190555050565b600073ffffffffffffffffffffffffffffffffffffffff168273ffffffffffffffffffffffffffffffffffffffff161415612191576040517f08c379a000000000000000000000000000000000000000000000000000000000815260040161218890613a70565b60405180910390fd5b61219a816128fb565b156121da576040517f08c379a00000000000000000000000000000000000000000000000000000000081526004016121d1906139b0565b60405180910390fd5b6121e860008383600161293c565b6121f1816128fb565b15612231576040517f08c379a0000000000000000000000000000000000000000000000000000000008152600401612228906139b0565b60405180910390fd5b6001600360008473ffffffffffffffffffffffffffffffffffffffff1673ffffffffffffffffffffffffffffffffffffffff16815260200190815260200160002060008282540192505081905550816002600083815260200190815260200160002060006101000a81548173ffffffffffffffffffffffffffffffffffffffff021916908373ffffffffffffffffffffffffffffffffffffffff160217905550808273ffffffffffffffffffffffffffffffffffffffff16600073ffffffffffffffffffffffffffffffffffffffff167fddf252ad1be2c89b69c2b068fc378daa952ba7f163c4a11628f55a4df523b3ef60405160405180910390a461233b600083836001612942565b5050565b612348826128fb565b612387576040517f08c379a000000000000000000000000000000000000000000000000000000000815260040161237e90613a30565b60405180910390fd5b806006600084815260200190815260200160002090805190602001906123ae929190612eba565b507ff8e1a15aba9398e019f0b49df1a4fde98ee17ae345cb5f6b5e2c27f5033e8ce7826040516123de9190613b8b565b60405180910390a15050565b6000811161242d576040517f08c379a000000000000000000000000000000000000000000000000000000000815260040161242490613b50565b60405180910390fd5b6009543414612471576040517f08c379a000000000000000000000000000000000000000000000000000000000815260040161246890613af0565b60405180910390fd5b6040518060a001604052808381526020013373ffffffffffffffffffffffffffffffffffffffff1681526020013073ffffffffffffffffffffffffffffffffffffffff16815260200182815260200160001515815250600b60008481526020019081526020016000206000820151816000015560208201518160010160006101000a81548173ffffffffffffffffffffffffffffffffffffffff021916908373ffffffffffffffffffffffffffffffffffffffff16021790555060408201518160020160006101000a81548173ffffffffffffffffffffffffffffffffffffffff021916908373ffffffffffffffffffffffffffffffffffffffff1602179055506060820151816003015560808201518160040160006101000a81548160ff0219169083151502179055509050506125aa333084611dd4565b817fb640004f1d14576d0c209e240cad0410e0d8c0c33a09375861fbadae2588a98d33308460006040516125e19493929190613840565b60405180910390a25050565b8173ffffffffffffffffffffffffffffffffffffffff168373ffffffffffffffffffffffffffffffffffffffff16141561265c576040517f08c379a0000000000000000000000000000000000000000000000000000000008152600401612653906139f0565b60405180910390fd5b80600560008573ffffffffffffffffffffffffffffffffffffffff1673ffffffffffffffffffffffffffffffffffffffff16815260200190815260200160002060008473ffffffffffffffffffffffffffffffffffffffff1673ffffffffffffffffffffffffffffffffffffffff16815260200190815260200160002060006101000a81548160ff0219169083151502179055508173ffffffffffffffffffffffffffffffffffffffff168373ffffffffffffffffffffffffffffffffffffffff167f17307eab39ab6107e8899845ad3d59bd9653f200f220920489ca2b5937696c318360405161274d91906138f3565b60405180910390a3505050565b612765848484611dd4565b61277184848484612948565b6127b0576040517f08c379a00000000000000000000000000000000000000000000000000000000081526004016127a790613970565b60405180910390fd5b50505050565b606060405180602001604052806000815250905090565b60606127d882611c25565b60006127e26127b6565b90506000815111612802576040518060200160405280600081525061282d565b8061280c84612adf565b60405160200161281d929190613801565b6040516020818303038152906040525b915050919050565b60008160000154905060008111612881576040517f08c379a000000000000000000000000000000000000000000000000000000000815260040161287890613950565b60405180910390fd5b6001810382600001819055505050565b60007f01ffc9a7000000000000000000000000000000000000000000000000000000007bffffffffffffffffffffffffffffffffffffffffffffffffffffffff1916827bffffffffffffffffffffffffffffffffffffffffffffffffffffffff1916149050919050565b60008073ffffffffffffffffffffffffffffffffffffffff1661291d836120ce565b73ffffffffffffffffffffffffffffffffffffffff1614159050919050565b50505050565b50505050565b60006129698473ffffffffffffffffffffffffffffffffffffffff16612c03565b15612ad2578373ffffffffffffffffffffffffffffffffffffffff1663150b7a02612992611c70565b8786866040518563ffffffff1660e01b81526004016129b49493929190613885565b602060405180830381600087803b1580156129ce57600080fd5b505af19250505080156129ff57506040513d601f19601f820116820180604052508101906129fc9190613266565b60015b612a82573d8060008114612a2f576040519150601f19603f3d011682016040523d82523d6000602084013e612a34565b606091505b50600081511415612a7a576040517f08c379a0000000000000000000000000000000000000000000000000000000008152600401612a7190613970565b60405180910390fd5b805181602001fd5b63150b7a0260e01b7bffffffffffffffffffffffffffffffffffffffffffffffffffffffff1916817bffffffffffffffffffffffffffffffffffffffffffffffffffffffff191614915050612ad7565b600190505b949350505050565b606060006001612aee84612c26565b01905060008167ffffffffffffffff811115612b33577f4e487b7100000000000000000000000000000000000000000000000000000000600052604160045260246000fd5b6040519080825280601f01601f191660200182016040528015612b655781602001600182028036833780820191505090505b509050600082602001820190505b600115612bf8578080600190039150507f3031323334353637383961626364656600000000000000000000000000000000600a86061a8153600a8581612be2577f4e487b7100000000000000000000000000000000000000000000000000000000600052601260045260246000fd5b0494506000851415612bf357612bf8565b612b73565b819350505050919050565b6000808273ffffffffffffffffffffffffffffffffffffffff163b119050919050565b600080600090507a184f03e93ff9f4daa797ed6e38ed64bf6a1f0100000000000000008310612caa577a184f03e93ff9f4daa797ed6e38ed64bf6a1f0100000000000000008381612ca0577f4e487b7100000000000000000000000000000000000000000000000000000000600052601260045260246000fd5b0492506040810190505b6d04ee2d6d415b85acef81000000008310612d0d576d04ee2d6d415b85acef81000000008381612d03577f4e487b7100000000000000000000000000000000000000000000000000000000600052601260045260246000fd5b0492506020810190505b662386f26fc100008310612d6257662386f26fc100008381612d58577f4e487b7100000000000000000000000000000000000000000000000000000000600052601260045260246000fd5b0492506010810190505b6305f5e1008310612db1576305f5e1008381612da7577f4e487b7100000000000000000000000000000000000000000000000000000000600052601260045260246000fd5b0492506008810190505b6127108310612dfc576127108381612df2577f4e487b7100000000000000000000000000000000000000000000000000000000600052601260045260246000fd5b0492506004810190505b60648310612e455760648381612e3b577f4e487b7100000000000000000000000000000000000000000000000000000000600052601260045260246000fd5b0492506002810190505b600a8310612e54576001810190505b80915050919050565b6040518060a0016040528060008152602001600073ffffffffffffffffffffffffffffffffffffffff168152602001600073ffffffffffffffffffffffffffffffffffffffff168152602001600081526020016000151581525090565b828054612ec690613dfb565b90600052602060002090601f016020900481019282612ee85760008555612f2f565b82601f10612f0157805160ff1916838001178555612f2f565b82800160010185558215612f2f579182015b82811115612f2e578251825591602001919060010190612f13565b5b509050612f3c9190612f40565b5090565b5b80821115612f59576000816000905550600101612f41565b5090565b6000612f70612f6b84613bcb565b613ba6565b905082815260208101848484011115612f8857600080fd5b612f93848285613db9565b509392505050565b6000612fae612fa984613bfc565b613ba6565b905082815260208101848484011115612fc657600080fd5b612fd1848285613db9565b509392505050565b600081359050612fe8816143ef565b92915050565b600081359050612ffd81614406565b92915050565b6000813590506130128161441d565b92915050565b6000815190506130278161441d565b92915050565b600082601f83011261303e57600080fd5b813561304e848260208601612f5d565b91505092915050565b600082601f83011261306857600080fd5b8135613078848260208601612f9b565b91505092915050565b60008135905061309081614434565b92915050565b6000602082840312156130a857600080fd5b60006130b684828501612fd9565b91505092915050565b600080604083850312156130d257600080fd5b60006130e085828601612fd9565b92505060206130f185828601612fd9565b9150509250929050565b60008060006060848603121561311057600080fd5b600061311e86828701612fd9565b935050602061312f86828701612fd9565b925050604061314086828701613081565b9150509250925092565b6000806000806080858703121561316057600080fd5b600061316e87828801612fd9565b945050602061317f87828801612fd9565b935050604061319087828801613081565b925050606085013567ffffffffffffffff8111156131ad57600080fd5b6131b98782880161302d565b91505092959194509250565b600080604083850312156131d857600080fd5b60006131e685828601612fd9565b92505060206131f785828601612fee565b9150509250929050565b6000806040838503121561321457600080fd5b600061322285828601612fd9565b925050602061323385828601613081565b9150509250929050565b60006020828403121561324f57600080fd5b600061325d84828501613003565b91505092915050565b60006020828403121561327857600080fd5b600061328684828501613018565b91505092915050565b600080604083850312156132a257600080fd5b600083013567ffffffffffffffff8111156132bc57600080fd5b6132c885828601613057565b92505060206132d985828601613081565b9150509250929050565b6000602082840312156132f557600080fd5b600061330384828501613081565b91505092915050565b6000806040838503121561331f57600080fd5b600061332d85828601613081565b925050602061333e85828601613081565b9150509250929050565b60006133548383613713565b60a08301905092915050565b61336981613d45565b82525050565b61337881613d33565b82525050565b600061338982613c3d565b6133938185613c6b565b935061339e83613c2d565b8060005b838110156133cf5781516133b68882613348565b97506133c183613c5e565b9250506001810190506133a2565b5085935050505092915050565b6133e581613d57565b82525050565b6133f481613d57565b82525050565b600061340582613c48565b61340f8185613c7c565b935061341f818560208601613dc8565b61342881613f34565b840191505092915050565b600061343e82613c53565b6134488185613c8d565b9350613458818560208601613dc8565b61346181613f34565b840191505092915050565b600061347782613c53565b6134818185613c9e565b9350613491818560208601613dc8565b80840191505092915050565b60006134aa602d83613c8d565b91506134b582613f45565b604082019050919050565b60006134cd601b83613c8d565b91506134d882613f94565b602082019050919050565b60006134f0603283613c8d565b91506134fb82613fbd565b604082019050919050565b6000613513602583613c8d565b915061351e8261400c565b604082019050919050565b6000613536601c83613c8d565b91506135418261405b565b602082019050919050565b6000613559602483613c8d565b915061356482614084565b604082019050919050565b600061357c601983613c8d565b9150613587826140d3565b602082019050919050565b600061359f602983613c8d565b91506135aa826140fc565b604082019050919050565b60006135c2602e83613c8d565b91506135cd8261414b565b604082019050919050565b60006135e5604083613c8d565b91506135f08261419a565b604082019050919050565b6000613608602083613c8d565b9150613613826141e9565b602082019050919050565b600061362b602a83613c8d565b915061363682614212565b604082019050919050565b600061364e601883613c8d565b915061365982614261565b602082019050919050565b6000613671602183613c8d565b915061367c8261428a565b604082019050919050565b6000613694602483613c8d565b915061369f826142d9565b604082019050919050565b60006136b7603d83613c8d565b91506136c282614328565b604082019050919050565b60006136da603083613c8d565b91506136e582614377565b604082019050919050565b60006136fd601c83613c8d565b9150613708826143c6565b602082019050919050565b60a08201600082015161372960008501826137e3565b50602082015161373c6020850182613360565b50604082015161374f6040850182613360565b50606082015161376260608501826137e3565b50608082015161377560808501826133dc565b50505050565b60a08201600082015161379160008501826137e3565b5060208201516137a46020850182613360565b5060408201516137b76040850182613360565b5060608201516137ca60608501826137e3565b5060808201516137dd60808501826133dc565b50505050565b6137ec81613daf565b82525050565b6137fb81613daf565b82525050565b600061380d828561346c565b9150613819828461346c565b91508190509392505050565b600060208201905061383a600083018461336f565b92915050565b6000608082019050613855600083018761336f565b613862602083018661336f565b61386f60408301856137f2565b61387c60608301846133eb565b95945050505050565b600060808201905061389a600083018761336f565b6138a7602083018661336f565b6138b460408301856137f2565b81810360608301526138c681846133fa565b905095945050505050565b600060208201905081810360008301526138eb818461337e565b905092915050565b600060208201905061390860008301846133eb565b92915050565b600060208201905081810360008301526139288184613433565b905092915050565b600060208201905081810360008301526139498161349d565b9050919050565b60006020820190508181036000830152613969816134c0565b9050919050565b60006020820190508181036000830152613989816134e3565b9050919050565b600060208201905081810360008301526139a981613506565b9050919050565b600060208201905081810360008301526139c981613529565b9050919050565b600060208201905081810360008301526139e98161354c565b9050919050565b60006020820190508181036000830152613a098161356f565b9050919050565b60006020820190508181036000830152613a2981613592565b9050919050565b60006020820190508181036000830152613a49816135b5565b9050919050565b60006020820190508181036000830152613a69816135d8565b9050919050565b60006020820190508181036000830152613a89816135fb565b9050919050565b60006020820190508181036000830152613aa98161361e565b9050919050565b60006020820190508181036000830152613ac981613641565b9050919050565b60006020820190508181036000830152613ae981613664565b9050919050565b60006020820190508181036000830152613b0981613687565b9050919050565b60006020820190508181036000830152613b29816136aa565b9050919050565b60006020820190508181036000830152613b49816136cd565b9050919050565b60006020820190508181036000830152613b69816136f0565b9050919050565b600060a082019050613b85600083018461377b565b92915050565b6000602082019050613ba060008301846137f2565b92915050565b6000613bb0613bc1565b9050613bbc8282613e2d565b919050565b6000604051905090565b600067ffffffffffffffff821115613be657613be5613f05565b5b613bef82613f34565b9050602081019050919050565b600067ffffffffffffffff821115613c1757613c16613f05565b5b613c2082613f34565b9050602081019050919050565b6000819050602082019050919050565b600081519050919050565b600081519050919050565b600081519050919050565b6000602082019050919050565b600082825260208201905092915050565b600082825260208201905092915050565b600082825260208201905092915050565b600081905092915050565b6000613cb482613daf565b9150613cbf83613daf565b9250827fffffffffffffffffffffffffffffffffffffffffffffffffffffffffffffffff03821115613cf457613cf3613ea7565b5b828201905092915050565b6000613d0a82613daf565b9150613d1583613daf565b925082821015613d2857613d27613ea7565b5b828203905092915050565b6000613d3e82613d8f565b9050919050565b6000613d5082613d8f565b9050919050565b60008115159050919050565b60007fffffffff0000000000000000000000000000000000000000000000000000000082169050919050565b600073ffffffffffffffffffffffffffffffffffffffff82169050919050565b6000819050919050565b82818337600083830152505050565b60005b83811015613de6578082015181840152602081019050613dcb565b83811115613df5576000848401525b50505050565b60006002820490506001821680613e1357607f821691505b60208210811415613e2757613e26613ed6565b5b50919050565b613e3682613f34565b810181811067ffffffffffffffff82111715613e5557613e54613f05565b5b80604052505050565b6000613e6982613daf565b91507fffffffffffffffffffffffffffffffffffffffffffffffffffffffffffffffff821415613e9c57613e9b613ea7565b5b600182019050919050565b7f4e487b7100000000000000000000000000000000000000000000000000000000600052601160045260246000fd5b7f4e487b7100000000000000000000000000000000000000000000000000000000600052602260045260246000fd5b7f4e487b7100000000000000000000000000000000000000000000000000000000600052604160045260246000fd5b6000601f19601f8301169050919050565b7f4552433732313a2063616c6c6572206973206e6f7420746f6b656e206f776e6560008201527f72206f7220617070726f76656400000000000000000000000000000000000000602082015250565b7f436f756e7465723a2064656372656d656e74206f766572666c6f770000000000600082015250565b7f4552433732313a207472616e7366657220746f206e6f6e20455243373231526560008201527f63656976657220696d706c656d656e7465720000000000000000000000000000602082015250565b7f4552433732313a207472616e736665722066726f6d20696e636f72726563742060008201527f6f776e6572000000000000000000000000000000000000000000000000000000602082015250565b7f4552433732313a20746f6b656e20616c7265616479206d696e74656400000000600082015250565b7f4552433732313a207472616e7366657220746f20746865207a65726f2061646460008201527f7265737300000000000000000000000000000000000000000000000000000000602082015250565b7f4552433732313a20617070726f766520746f2063616c6c657200000000000000600082015250565b7f4552433732313a2061646472657373207a65726f206973206e6f74206120766160008201527f6c6964206f776e65720000000000000000000000000000000000000000000000602082015250565b7f45524337323155524953746f726167653a2055524920736574206f66206e6f6e60008201527f6578697374656e7420746f6b656e000000000000000000000000000000000000602082015250565b7f506c65617365207375626d6974207468652061736b696e67207072696365206960008201527f6e206f7264657220746f20636f6d706c65746520746865207075726368617365602082015250565b7f4552433732313a206d696e7420746f20746865207a65726f2061646472657373600082015250565b7f4f6e6c79206974656d206f776e65722063616e20706572666f726d207468697360008201527f206f7065726174696f6e00000000000000000000000000000000000000000000602082015250565b7f4552433732313a20696e76616c696420746f6b656e2049440000000000000000600082015250565b7f4552433732313a20617070726f76616c20746f2063757272656e74206f776e6560008201527f7200000000000000000000000000000000000000000000000000000000000000602082015250565b7f5072696365206d75737420626520657175616c20746f206c697374696e67207060008201527f7269636500000000000000000000000000000000000000000000000000000000602082015250565b7f4552433732313a20617070726f76652063616c6c6572206973206e6f7420746f60008201527f6b656e206f776e6572206f7220617070726f76656420666f7220616c6c000000602082015250565b7f4f6e6c79206d61726b6574706c616365206f776e65722063616e20757064617460008201527f65206c697374696e672070726963652e00000000000000000000000000000000602082015250565b7f5072696365206d757374206265206174206c6561737420312077656900000000600082015250565b6143f881613d33565b811461440357600080fd5b50565b61440f81613d57565b811461441a57600080fd5b50565b61442681613d63565b811461443157600080fd5b50565b61443d81613daf565b811461444857600080fd5b5056fea2646970667358221220d0f4fa9f3fb222c4a96ab6238b11f9203a86377078ab5d830d2d1435d3f4634864736f6c63430008040033",
  "linkReferences": {},
  "deployedLinkReferences": {}
}