{
  "_format": "hh-sol-artifact-1",
  "contractName": "NFTMarket",
  "sourceName": "contracts/NFTMarket.sol",
  "abi": [
    {
      "inputs": [],
      "stateMutability": "nonpayable",
      "type": "constructor"
    },
    {
      "anonymous": false,
      "inputs": [
        {
          "indexed": true,
          "internalType": "uint256",
          "name": "itemId",
          "type": "uint256"
        },
        {
          "indexed": true,
          "internalType": "address",
          "name": "nftContract",
          "type": "address"
        },
        {
          "indexed": true,
          "internalType": "uint256",
          "name": "tokenId",
          "type": "uint256"
        },
        {
          "indexed": false,
          "internalType": "address payable",
          "name": "seller",
          "type": "address"
        },
        {
          "indexed": false,
          "internalType": "address payable",
          "name": "owner",
          "type": "address"
        },
        {
          "indexed": false,
          "internalType": "uint256",
          "name": "price",
          "type": "uint256"
        },
        {
          "indexed": false,
          "internalType": "bool",
          "name": "sold",
          "type": "bool"
        }
      ],
      "name": "MarketItemCreated",
      "type": "event"
    },
    {
      "inputs": [
        {
          "internalType": "address",
          "name": "nftContract",
          "type": "address"
        },
        {
          "internalType": "uint256",
          "name": "tokenId",
          "type": "uint256"
        },
        {
          "internalType": "uint256",
          "name": "price",
          "type": "uint256"
        }
      ],
      "name": "createMarketItem",
      "outputs": [],
      "stateMutability": "payable",
      "type": "function"
    },
    {
      "inputs": [
        {
          "internalType": "address",
          "name": "nftContract",
          "type": "address"
        },
        {
          "internalType": "uint256",
          "name": "itemId",
          "type": "uint256"
        }
      ],
      "name": "createMarketSale",
      "outputs": [],
      "stateMutability": "payable",
      "type": "function"
    },
    {
      "inputs": [],
      "name": "fetchItemsCreated",
      "outputs": [
        {
          "components": [
            {
              "internalType": "uint256",
              "name": "itemId",
              "type": "uint256"
            },
            {
              "internalType": "address",
              "name": "nftContract",
              "type": "address"
            },
            {
              "internalType": "uint256",
              "name": "tokenId",
              "type": "uint256"
            },
            {
              "internalType": "address payable",
              "name": "seller",
              "type": "address"
            },
            {
              "internalType": "address payable",
              "name": "owner",
              "type": "address"
            },
            {
              "internalType": "uint256",
              "name": "price",
              "type": "uint256"
            },
            {
              "internalType": "bool",
              "name": "sold",
              "type": "bool"
            }
          ],
          "internalType": "struct NFTMarket.MarketItem[]",
          "name": "",
          "type": "tuple[]"
        }
      ],
      "stateMutability": "view",
      "type": "function"
    },
    {
      "inputs": [],
      "name": "fetchMarketItems",
      "outputs": [
        {
          "components": [
            {
              "internalType": "uint256",
              "name": "itemId",
              "type": "uint256"
            },
            {
              "internalType": "address",
              "name": "nftContract",
              "type": "address"
            },
            {
              "internalType": "uint256",
              "name": "tokenId",
              "type": "uint256"
            },
            {
              "internalType": "address payable",
              "name": "seller",
              "type": "address"
            },
            {
              "internalType": "address payable",
              "name": "owner",
              "type": "address"
            },
            {
              "internalType": "uint256",
              "name": "price",
              "type": "uint256"
            },
            {
              "internalType": "bool",
              "name": "sold",
              "type": "bool"
            }
          ],
          "internalType": "struct NFTMarket.MarketItem[]",
          "name": "",
          "type": "tuple[]"
        }
      ],
      "stateMutability": "view",
      "type": "function"
    },
    {
      "inputs": [],
      "name": "fetchMyNfts",
      "outputs": [
        {
          "components": [
            {
              "internalType": "uint256",
              "name": "itemId",
              "type": "uint256"
            },
            {
              "internalType": "address",
              "name": "nftContract",
              "type": "address"
            },
            {
              "internalType": "uint256",
              "name": "tokenId",
              "type": "uint256"
            },
            {
              "internalType": "address payable",
              "name": "seller",
              "type": "address"
            },
            {
              "internalType": "address payable",
              "name": "owner",
              "type": "address"
            },
            {
              "internalType": "uint256",
              "name": "price",
              "type": "uint256"
            },
            {
              "internalType": "bool",
              "name": "sold",
              "type": "bool"
            }
          ],
          "internalType": "struct NFTMarket.MarketItem[]",
          "name": "",
          "type": "tuple[]"
        }
      ],
      "stateMutability": "view",
      "type": "function"
    },
    {
      "inputs": [],
      "name": "getListingPrice",
      "outputs": [
        {
          "internalType": "uint256",
          "name": "",
          "type": "uint256"
        }
      ],
      "stateMutability": "view",
      "type": "function"
    },
    {
      "inputs": [
        {
          "internalType": "uint256",
          "name": "_itemId",
          "type": "uint256"
        }
      ],
      "name": "getMarketItemById",
      "outputs": [
        {
          "components": [
            {
              "internalType": "uint256",
              "name": "itemId",
              "type": "uint256"
            },
            {
              "internalType": "address",
              "name": "nftContract",
              "type": "address"
            },
            {
              "internalType": "uint256",
              "name": "tokenId",
              "type": "uint256"
            },
            {
              "internalType": "address payable",
              "name": "seller",
              "type": "address"
            },
            {
              "internalType": "address payable",
              "name": "owner",
              "type": "address"
            },
            {
              "internalType": "uint256",
              "name": "price",
              "type": "uint256"
            },
            {
              "internalType": "bool",
              "name": "sold",
              "type": "bool"
            }
          ],
          "internalType": "struct NFTMarket.MarketItem",
          "name": "",
          "type": "tuple"
        }
      ],
      "stateMutability": "view",
      "type": "function"
    },
    {
      "inputs": [
        {
          "internalType": "uint256",
          "name": "itemId",
          "type": "uint256"
        }
      ],
      "name": "removeMarketItem",
      "outputs": [],
      "stateMutability": "nonpayable",
      "type": "function"
    },
    {
      "inputs": [
        {
          "internalType": "uint256",
          "name": "_listingPrice",
          "type": "uint256"
        }
      ],
      "name": "updateListingPrice",
      "outputs": [],
      "stateMutability": "payable",
      "type": "function"
    }
  ],
  "bytecode": "0x6080604052600060035534801561001557600080fd5b50600160008190555033600460006101000a81548173ffffffffffffffffffffffffffffffffffffffff021916908373ffffffffffffffffffffffffffffffffffffffff1602179055506120e48061006e6000396000f3fe6080604052600436106100865760003560e01c806358eb2df51161005957806358eb2df5146101495780637fb770cb14610165578063ae677aa31461018e578063c23b139e146101aa578063f064c32e146101c657610086565b80630f08efe01461008b578063128ae712146100b657806312e85585146100e157806353dbceb11461010c575b600080fd5b34801561009757600080fd5b506100a06101f1565b6040516100ad9190611bc8565b60405180910390f35b3480156100c257600080fd5b506100cb61051c565b6040516100d89190611bc8565b60405180910390f35b3480156100ed57600080fd5b506100f66108cc565b6040516101039190611d05565b60405180910390f35b34801561011857600080fd5b50610133600480360381019061012e9190611801565b6108d6565b6040516101409190611cea565b60405180910390f35b610163600480360381019061015e91906117b2565b610a3e565b005b34801561017157600080fd5b5061018c60048036038101906101879190611801565b610d5a565b005b6101a860048036038101906101a39190611801565b610f90565b005b6101c460048036038101906101bf9190611776565b61102a565b005b3480156101d257600080fd5b506101db61129d565b6040516101e89190611bc8565b60405180910390f35b606060006101ff600161164d565b9050600061020d600261164d565b610217600161164d565b6102219190611dc0565b90506000808267ffffffffffffffff811115610266577f4e487b7100000000000000000000000000000000000000000000000000000000600052604160045260246000fd5b60405190808252806020026020018201604052801561029f57816020015b61028c6116cb565b8152602001906001900390816102845790505b50905060005b84811015610511573073ffffffffffffffffffffffffffffffffffffffff16600560006001846102d59190611d6a565b815260200190815260200160002060040160009054906101000a900473ffffffffffffffffffffffffffffffffffffffff1673ffffffffffffffffffffffffffffffffffffffff1614156104fe576000600560006001846103369190611d6a565b81526020019081526020016000206000015490506000600560008381526020019081526020016000209050806040518060e0016040529081600082015481526020016001820160009054906101000a900473ffffffffffffffffffffffffffffffffffffffff1673ffffffffffffffffffffffffffffffffffffffff1673ffffffffffffffffffffffffffffffffffffffff168152602001600282015481526020016003820160009054906101000a900473ffffffffffffffffffffffffffffffffffffffff1673ffffffffffffffffffffffffffffffffffffffff1673ffffffffffffffffffffffffffffffffffffffff1681526020016004820160009054906101000a900473ffffffffffffffffffffffffffffffffffffffff1673ffffffffffffffffffffffffffffffffffffffff1673ffffffffffffffffffffffffffffffffffffffff168152602001600582015481526020016006820160009054906101000a900460ff1615151515815250508486815181106104e1577f4e487b7100000000000000000000000000000000000000000000000000000000600052603260045260246000fd5b60200260200101819052506001856104f99190611d6a565b945050505b808061050990611e4e565b9150506102a5565b508094505050505090565b6060600061052a600161164d565b905060008060005b838110156105d3573373ffffffffffffffffffffffffffffffffffffffff16600560006001846105629190611d6a565b815260200190815260200160002060040160009054906101000a900473ffffffffffffffffffffffffffffffffffffffff1673ffffffffffffffffffffffffffffffffffffffff1614156105c0576001836105bd9190611d6a565b92505b80806105cb90611e4e565b915050610532565b5060008267ffffffffffffffff811115610616577f4e487b7100000000000000000000000000000000000000000000000000000000600052604160045260246000fd5b60405190808252806020026020018201604052801561064f57816020015b61063c6116cb565b8152602001906001900390816106345790505b50905060005b848110156108c1573373ffffffffffffffffffffffffffffffffffffffff16600560006001846106859190611d6a565b815260200190815260200160002060040160009054906101000a900473ffffffffffffffffffffffffffffffffffffffff1673ffffffffffffffffffffffffffffffffffffffff1614156108ae576000600560006001846106e69190611d6a565b81526020019081526020016000206000015490506000600560008381526020019081526020016000209050806040518060e0016040529081600082015481526020016001820160009054906101000a900473ffffffffffffffffffffffffffffffffffffffff1673ffffffffffffffffffffffffffffffffffffffff1673ffffffffffffffffffffffffffffffffffffffff168152602001600282015481526020016003820160009054906101000a900473ffffffffffffffffffffffffffffffffffffffff1673ffffffffffffffffffffffffffffffffffffffff1673ffffffffffffffffffffffffffffffffffffffff1681526020016004820160009054906101000a900473ffffffffffffffffffffffffffffffffffffffff1673ffffffffffffffffffffffffffffffffffffffff1673ffffffffffffffffffffffffffffffffffffffff168152602001600582015481526020016006820160009054906101000a900460ff161515151581525050848681518110610891577f4e487b7100000000000000000000000000000000000000000000000000000000600052603260045260246000fd5b60200260200101819052506001856108a99190611d6a565b945050505b80806108b990611e4e565b915050610655565b508094505050505090565b6000600354905090565b6108de6116cb565b600560008381526020019081526020016000206040518060e0016040529081600082015481526020016001820160009054906101000a900473ffffffffffffffffffffffffffffffffffffffff1673ffffffffffffffffffffffffffffffffffffffff1673ffffffffffffffffffffffffffffffffffffffff168152602001600282015481526020016003820160009054906101000a900473ffffffffffffffffffffffffffffffffffffffff1673ffffffffffffffffffffffffffffffffffffffff1673ffffffffffffffffffffffffffffffffffffffff1681526020016004820160009054906101000a900473ffffffffffffffffffffffffffffffffffffffff1673ffffffffffffffffffffffffffffffffffffffff1673ffffffffffffffffffffffffffffffffffffffff168152602001600582015481526020016006820160009054906101000a900460ff1615151515815250509050919050565b610a4661165b565b60008111610a89576040517f08c379a0000000000000000000000000000000000000000000000000000000008152600401610a8090611caa565b60405180910390fd5b6003543414610acd576040517f08c379a0000000000000000000000000000000000000000000000000000000008152600401610ac490611c0a565b60405180910390fd5b610ad760016116ab565b6000610ae3600161164d565b90506040518060e001604052808281526020018573ffffffffffffffffffffffffffffffffffffffff1681526020018481526020013373ffffffffffffffffffffffffffffffffffffffff1681526020013073ffffffffffffffffffffffffffffffffffffffff16815260200183815260200160001515815250600560008581526020019081526020016000206000820151816000015560208201518160010160006101000a81548173ffffffffffffffffffffffffffffffffffffffff021916908373ffffffffffffffffffffffffffffffffffffffff1602179055506040820151816002015560608201518160030160006101000a81548173ffffffffffffffffffffffffffffffffffffffff021916908373ffffffffffffffffffffffffffffffffffffffff16021790555060808201518160040160006101000a81548173ffffffffffffffffffffffffffffffffffffffff021916908373ffffffffffffffffffffffffffffffffffffffff16021790555060a0820151816005015560c08201518160060160006101000a81548160ff0219169083151502179055509050508373ffffffffffffffffffffffffffffffffffffffff166323b872dd3330866040518463ffffffff1660e01b8152600401610cc393929190611b91565b600060405180830381600087803b158015610cdd57600080fd5b505af1158015610cf1573d6000803e3d6000fd5b50505050828473ffffffffffffffffffffffffffffffffffffffff16827f045dfa01dcba2b36aba1d3dc4a874f4b0c5d2fbeb8d2c4b34a7d88c8d8f929d13330876000604051610d449493929190611b4c565b60405180910390a450610d556116c1565b505050565b610d6261165b565b60006005600083815260200190815260200160002090506000816000015411610dc0576040517f08c379a0000000000000000000000000000000000000000000000000000000008152600401610db790611c4a565b60405180910390fd5b3373ffffffffffffffffffffffffffffffffffffffff168160030160009054906101000a900473ffffffffffffffffffffffffffffffffffffffff1673ffffffffffffffffffffffffffffffffffffffff1614610e52576040517f08c379a0000000000000000000000000000000000000000000000000000000008152600401610e4990611c6a565b60405180910390fd5b8060060160009054906101000a900460ff1615610ea4576040517f08c379a0000000000000000000000000000000000000000000000000000000008152600401610e9b90611bea565b60405180910390fd5b8060010160009054906101000a900473ffffffffffffffffffffffffffffffffffffffff1673ffffffffffffffffffffffffffffffffffffffff166323b872dd303384600201546040518463ffffffff1660e01b8152600401610f0993929190611b91565b600060405180830381600087803b158015610f2357600080fd5b505af1158015610f37573d6000803e3d6000fd5b505050503373ffffffffffffffffffffffffffffffffffffffff166108fc6003549081150290604051600060405180830381858888f19350505050158015610f83573d6000803e3d6000fd5b5050610f8d6116c1565b50565b3373ffffffffffffffffffffffffffffffffffffffff16600460009054906101000a900473ffffffffffffffffffffffffffffffffffffffff1673ffffffffffffffffffffffffffffffffffffffff1614611020576040517f08c379a000000000000000000000000000000000000000000000000000000000815260040161101790611c2a565b60405180910390fd5b8060038190555050565b61103261165b565b6000600560008381526020019081526020016000206005015490506000600560008481526020019081526020016000206002015490508134146110aa576040517f08c379a00000000000000000000000000000000000000000000000000000000081526004016110a190611cca565b60405180910390fd5b6005600084815260200190815260200160002060030160009054906101000a900473ffffffffffffffffffffffffffffffffffffffff1673ffffffffffffffffffffffffffffffffffffffff166108fc349081150290604051600060405180830381858888f19350505050158015611126573d6000803e3d6000fd5b508373ffffffffffffffffffffffffffffffffffffffff166323b872dd3033846040518463ffffffff1660e01b815260040161116493929190611b91565b600060405180830381600087803b15801561117e57600080fd5b505af1158015611192573d6000803e3d6000fd5b50505050336005600085815260200190815260200160002060040160006101000a81548173ffffffffffffffffffffffffffffffffffffffff021916908373ffffffffffffffffffffffffffffffffffffffff16021790555060016005600085815260200190815260200160002060060160006101000a81548160ff02191690831515021790555061122460026116ab565b600460009054906101000a900473ffffffffffffffffffffffffffffffffffffffff1673ffffffffffffffffffffffffffffffffffffffff166108fc6003549081150290604051600060405180830381858888f1935050505015801561128e573d6000803e3d6000fd5b5050506112996116c1565b5050565b606060006112ab600161164d565b905060008060005b83811015611354573373ffffffffffffffffffffffffffffffffffffffff16600560006001846112e39190611d6a565b815260200190815260200160002060030160009054906101000a900473ffffffffffffffffffffffffffffffffffffffff1673ffffffffffffffffffffffffffffffffffffffff1614156113415760018361133e9190611d6a565b92505b808061134c90611e4e565b9150506112b3565b5060008267ffffffffffffffff811115611397577f4e487b7100000000000000000000000000000000000000000000000000000000600052604160045260246000fd5b6040519080825280602002602001820160405280156113d057816020015b6113bd6116cb565b8152602001906001900390816113b55790505b50905060005b84811015611642573373ffffffffffffffffffffffffffffffffffffffff16600560006001846114069190611d6a565b815260200190815260200160002060030160009054906101000a900473ffffffffffffffffffffffffffffffffffffffff1673ffffffffffffffffffffffffffffffffffffffff16141561162f576000600560006001846114679190611d6a565b81526020019081526020016000206000015490506000600560008381526020019081526020016000209050806040518060e0016040529081600082015481526020016001820160009054906101000a900473ffffffffffffffffffffffffffffffffffffffff1673ffffffffffffffffffffffffffffffffffffffff1673ffffffffffffffffffffffffffffffffffffffff168152602001600282015481526020016003820160009054906101000a900473ffffffffffffffffffffffffffffffffffffffff1673ffffffffffffffffffffffffffffffffffffffff1673ffffffffffffffffffffffffffffffffffffffff1681526020016004820160009054906101000a900473ffffffffffffffffffffffffffffffffffffffff1673ffffffffffffffffffffffffffffffffffffffff1673ffffffffffffffffffffffffffffffffffffffff168152602001600582015481526020016006820160009054906101000a900460ff161515151581525050848681518110611612577f4e487b7100000000000000000000000000000000000000000000000000000000600052603260045260246000fd5b602002602001018190525060018561162a9190611d6a565b945050505b808061163a90611e4e565b9150506113d6565b508094505050505090565b600081600001549050919050565b600260005414156116a1576040517f08c379a000000000000000000000000000000000000000000000000000000000815260040161169890611c8a565b60405180910390fd5b6002600081905550565b6001816000016000828254019250508190555050565b6001600081905550565b6040518060e0016040528060008152602001600073ffffffffffffffffffffffffffffffffffffffff16815260200160008152602001600073ffffffffffffffffffffffffffffffffffffffff168152602001600073ffffffffffffffffffffffffffffffffffffffff168152602001600081526020016000151581525090565b60008135905061175b81612080565b92915050565b60008135905061177081612097565b92915050565b6000806040838503121561178957600080fd5b60006117978582860161174c565b92505060206117a885828601611761565b9150509250929050565b6000806000606084860312156117c757600080fd5b60006117d58682870161174c565b93505060206117e686828701611761565b92505060406117f786828701611761565b9150509250925092565b60006020828403121561181357600080fd5b600061182184828501611761565b91505092915050565b60006118368383611a12565b60e08301905092915050565b61184b81611e06565b82525050565b61185a81611e06565b82525050565b61186981611df4565b82525050565b61187881611df4565b82525050565b600061188982611d30565b6118938185611d48565b935061189e83611d20565b8060005b838110156118cf5781516118b6888261182a565b97506118c183611d3b565b9250506001810190506118a2565b5085935050505092915050565b6118e581611e18565b82525050565b6118f481611e18565b82525050565b6000611907601483611d59565b915061191282611ec6565b602082019050919050565b600061192a602483611d59565b915061193582611eef565b604082019050919050565b600061194d603083611d59565b915061195882611f3e565b604082019050919050565b6000611970601383611d59565b915061197b82611f8d565b602082019050919050565b6000611993601683611d59565b915061199e82611fb6565b602082019050919050565b60006119b6601f83611d59565b91506119c182611fdf565b602082019050919050565b60006119d9601c83611d59565b91506119e482612008565b602082019050919050565b60006119fc603383611d59565b9150611a0782612031565b604082019050919050565b60e082016000820151611a286000850182611b2e565b506020820151611a3b6020850182611860565b506040820151611a4e6040850182611b2e565b506060820151611a616060850182611842565b506080820151611a746080850182611842565b5060a0820151611a8760a0850182611b2e565b5060c0820151611a9a60c08501826118dc565b50505050565b60e082016000820151611ab66000850182611b2e565b506020820151611ac96020850182611860565b506040820151611adc6040850182611b2e565b506060820151611aef6060850182611842565b506080820151611b026080850182611842565b5060a0820151611b1560a0850182611b2e565b5060c0820151611b2860c08501826118dc565b50505050565b611b3781611e44565b82525050565b611b4681611e44565b82525050565b6000608082019050611b616000830187611851565b611b6e6020830186611851565b611b7b6040830185611b3d565b611b8860608301846118eb565b95945050505050565b6000606082019050611ba6600083018661186f565b611bb3602083018561186f565b611bc06040830184611b3d565b949350505050565b60006020820190508181036000830152611be2818461187e565b905092915050565b60006020820190508181036000830152611c03816118fa565b9050919050565b60006020820190508181036000830152611c238161191d565b9050919050565b60006020820190508181036000830152611c4381611940565b9050919050565b60006020820190508181036000830152611c6381611963565b9050919050565b60006020820190508181036000830152611c8381611986565b9050919050565b60006020820190508181036000830152611ca3816119a9565b9050919050565b60006020820190508181036000830152611cc3816119cc565b9050919050565b60006020820190508181036000830152611ce3816119ef565b9050919050565b600060e082019050611cff6000830184611aa0565b92915050565b6000602082019050611d1a6000830184611b3d565b92915050565b6000819050602082019050919050565b600081519050919050565b6000602082019050919050565b600082825260208201905092915050565b600082825260208201905092915050565b6000611d7582611e44565b9150611d8083611e44565b9250827fffffffffffffffffffffffffffffffffffffffffffffffffffffffffffffffff03821115611db557611db4611e97565b5b828201905092915050565b6000611dcb82611e44565b9150611dd683611e44565b925082821015611de957611de8611e97565b5b828203905092915050565b6000611dff82611e24565b9050919050565b6000611e1182611e24565b9050919050565b60008115159050919050565b600073ffffffffffffffffffffffffffffffffffffffff82169050919050565b6000819050919050565b6000611e5982611e44565b91507fffffffffffffffffffffffffffffffffffffffffffffffffffffffffffffffff821415611e8c57611e8b611e97565b5b600182019050919050565b7f4e487b7100000000000000000000000000000000000000000000000000000000600052601160045260246000fd5b7f4974656d20697320616c726561647920736f6c64000000000000000000000000600082015250565b7f5072696365206d75737420626520657175616c20746f206c697374696e67207060008201527f7269636500000000000000000000000000000000000000000000000000000000602082015250565b7f4f6e6c79206d61726b6574706c616365206f776e65722063616e20757064617460008201527f65206c697374696e672070726963652e00000000000000000000000000000000602082015250565b7f4974656d20646f6573206e6f7420657869737400000000000000000000000000600082015250565b7f596f7520617265206e6f74207468652073656c6c657200000000000000000000600082015250565b7f5265656e7472616e637947756172643a207265656e7472616e742063616c6c00600082015250565b7f5072696365206d757374206265206174206c6561737420312077656900000000600082015250565b7f496e76696120696c207072657a7a6f2072696368696573746f2070657220636f60008201527f6d706c6574617265206c27616371756973746f00000000000000000000000000602082015250565b61208981611df4565b811461209457600080fd5b50565b6120a081611e44565b81146120ab57600080fd5b5056fea26469706673582212207762417cabe1dff1dfcd7781e6246de68c417274eebf3051d157960a413ad1c664736f6c63430008040033",
  "linkReferences": {},
  "deployedLinkReferences": {}
}