{
  "_format": "hh-sol-artifact-1",
  "contractName": "NFT_ERC721",
  "sourceName": "contracts/NFT_ERC721.sol",
  "abi": [
    {
      "inputs": [
        {
          "internalType": "address",
          "name": "marketplaceAddress",
          "type": "address"
        }
      ],
      "stateMutability": "nonpayable",
      "type": "constructor"
    },
    {
      "anonymous": false,
      "inputs": [
        {
          "indexed": true,
          "internalType": "address",
          "name": "owner",
          "type": "address"
        },
        {
          "indexed": true,
          "internalType": "address",
          "name": "approved",
          "type": "address"
        },
        {
          "indexed": true,
          "internalType": "uint256",
          "name": "tokenId",
          "type": "uint256"
        }
      ],
      "name": "Approval",
      "type": "event"
    },
    {
      "anonymous": false,
      "inputs": [
        {
          "indexed": true,
          "internalType": "address",
          "name": "owner",
          "type": "address"
        },
        {
          "indexed": true,
          "internalType": "address",
          "name": "operator",
          "type": "address"
        },
        {
          "indexed": false,
          "internalType": "bool",
          "name": "approved",
          "type": "bool"
        }
      ],
      "name": "ApprovalForAll",
      "type": "event"
    },
    {
      "anonymous": false,
      "inputs": [
        {
          "indexed": false,
          "internalType": "uint256",
          "name": "_fromTokenId",
          "type": "uint256"
        },
        {
          "indexed": false,
          "internalType": "uint256",
          "name": "_toTokenId",
          "type": "uint256"
        }
      ],
      "name": "BatchMetadataUpdate",
      "type": "event"
    },
    {
      "anonymous": false,
      "inputs": [
        {
          "indexed": false,
          "internalType": "uint256",
          "name": "_tokenId",
          "type": "uint256"
        }
      ],
      "name": "MetadataUpdate",
      "type": "event"
    },
    {
      "anonymous": false,
      "inputs": [
        {
          "indexed": true,
          "internalType": "address",
          "name": "previousOwner",
          "type": "address"
        },
        {
          "indexed": true,
          "internalType": "address",
          "name": "newOwner",
          "type": "address"
        }
      ],
      "name": "OwnershipTransferred",
      "type": "event"
    },
    {
      "anonymous": false,
      "inputs": [
        {
          "indexed": true,
          "internalType": "address",
          "name": "from",
          "type": "address"
        },
        {
          "indexed": true,
          "internalType": "address",
          "name": "to",
          "type": "address"
        },
        {
          "indexed": true,
          "internalType": "uint256",
          "name": "tokenId",
          "type": "uint256"
        }
      ],
      "name": "Transfer",
      "type": "event"
    },
    {
      "inputs": [
        {
          "internalType": "address",
          "name": "to",
          "type": "address"
        },
        {
          "internalType": "uint256",
          "name": "tokenId",
          "type": "uint256"
        }
      ],
      "name": "approve",
      "outputs": [],
      "stateMutability": "nonpayable",
      "type": "function"
    },
    {
      "inputs": [
        {
          "internalType": "address",
          "name": "owner",
          "type": "address"
        }
      ],
      "name": "balanceOf",
      "outputs": [
        {
          "internalType": "uint256",
          "name": "",
          "type": "uint256"
        }
      ],
      "stateMutability": "view",
      "type": "function"
    },
    {
      "inputs": [
        {
          "internalType": "uint256",
          "name": "tokenId",
          "type": "uint256"
        }
      ],
      "name": "burn",
      "outputs": [],
      "stateMutability": "nonpayable",
      "type": "function"
    },
    {
      "inputs": [
        {
          "internalType": "uint256",
          "name": "tokenId",
          "type": "uint256"
        }
      ],
      "name": "getApproved",
      "outputs": [
        {
          "internalType": "address",
          "name": "",
          "type": "address"
        }
      ],
      "stateMutability": "view",
      "type": "function"
    },
    {
      "inputs": [
        {
          "internalType": "address",
          "name": "user",
          "type": "address"
        }
      ],
      "name": "getUserTokens",
      "outputs": [
        {
          "internalType": "uint256[]",
          "name": "",
          "type": "uint256[]"
        }
      ],
      "stateMutability": "view",
      "type": "function"
    },
    {
      "inputs": [
        {
          "internalType": "address",
          "name": "owner",
          "type": "address"
        },
        {
          "internalType": "address",
          "name": "operator",
          "type": "address"
        }
      ],
      "name": "isApprovedForAll",
      "outputs": [
        {
          "internalType": "bool",
          "name": "",
          "type": "bool"
        }
      ],
      "stateMutability": "view",
      "type": "function"
    },
    {
      "inputs": [],
      "name": "name",
      "outputs": [
        {
          "internalType": "string",
          "name": "",
          "type": "string"
        }
      ],
      "stateMutability": "view",
      "type": "function"
    },
    {
      "inputs": [],
      "name": "owner",
      "outputs": [
        {
          "internalType": "address",
          "name": "",
          "type": "address"
        }
      ],
      "stateMutability": "view",
      "type": "function"
    },
    {
      "inputs": [
        {
          "internalType": "uint256",
          "name": "tokenId",
          "type": "uint256"
        }
      ],
      "name": "ownerOf",
      "outputs": [
        {
          "internalType": "address",
          "name": "",
          "type": "address"
        }
      ],
      "stateMutability": "view",
      "type": "function"
    },
    {
      "inputs": [],
      "name": "renounceOwnership",
      "outputs": [],
      "stateMutability": "nonpayable",
      "type": "function"
    },
    {
      "inputs": [
        {
          "internalType": "uint256",
          "name": "tokenId",
          "type": "uint256"
        }
      ],
      "name": "revoke",
      "outputs": [],
      "stateMutability": "nonpayable",
      "type": "function"
    },
    {
      "inputs": [
        {
          "internalType": "address",
          "name": "to",
          "type": "address"
        },
        {
          "internalType": "string",
          "name": "uri",
          "type": "string"
        },
        {
          "internalType": "address payable",
          "name": "originalOwner",
          "type": "address"
        },
        {
          "internalType": "uint256",
          "name": "mintPrice",
          "type": "uint256"
        }
      ],
      "name": "safeMintAndPay",
      "outputs": [],
      "stateMutability": "payable",
      "type": "function"
    },
    {
      "inputs": [
        {
          "internalType": "address",
          "name": "from",
          "type": "address"
        },
        {
          "internalType": "address",
          "name": "to",
          "type": "address"
        },
        {
          "internalType": "uint256",
          "name": "tokenId",
          "type": "uint256"
        }
      ],
      "name": "safeTransferFrom",
      "outputs": [],
      "stateMutability": "nonpayable",
      "type": "function"
    },
    {
      "inputs": [
        {
          "internalType": "address",
          "name": "from",
          "type": "address"
        },
        {
          "internalType": "address",
          "name": "to",
          "type": "address"
        },
        {
          "internalType": "uint256",
          "name": "tokenId",
          "type": "uint256"
        },
        {
          "internalType": "bytes",
          "name": "data",
          "type": "bytes"
        }
      ],
      "name": "safeTransferFrom",
      "outputs": [],
      "stateMutability": "nonpayable",
      "type": "function"
    },
    {
      "inputs": [
        {
          "internalType": "address",
          "name": "operator",
          "type": "address"
        },
        {
          "internalType": "bool",
          "name": "approved",
          "type": "bool"
        }
      ],
      "name": "setApprovalForAll",
      "outputs": [],
      "stateMutability": "nonpayable",
      "type": "function"
    },
    {
      "inputs": [
        {
          "internalType": "bytes4",
          "name": "interfaceId",
          "type": "bytes4"
        }
      ],
      "name": "supportsInterface",
      "outputs": [
        {
          "internalType": "bool",
          "name": "",
          "type": "bool"
        }
      ],
      "stateMutability": "view",
      "type": "function"
    },
    {
      "inputs": [],
      "name": "symbol",
      "outputs": [
        {
          "internalType": "string",
          "name": "",
          "type": "string"
        }
      ],
      "stateMutability": "view",
      "type": "function"
    },
    {
      "inputs": [
        {
          "internalType": "uint256",
          "name": "tokenId",
          "type": "uint256"
        }
      ],
      "name": "tokenURI",
      "outputs": [
        {
          "internalType": "string",
          "name": "",
          "type": "string"
        }
      ],
      "stateMutability": "view",
      "type": "function"
    },
    {
      "inputs": [
        {
          "internalType": "address",
          "name": "from",
          "type": "address"
        },
        {
          "internalType": "address",
          "name": "to",
          "type": "address"
        },
        {
          "internalType": "uint256",
          "name": "tokenId",
          "type": "uint256"
        }
      ],
      "name": "transferFrom",
      "outputs": [],
      "stateMutability": "nonpayable",
      "type": "function"
    },
    {
      "inputs": [
        {
          "internalType": "address",
          "name": "newOwner",
          "type": "address"
        }
      ],
      "name": "transferOwnership",
      "outputs": [],
      "stateMutability": "nonpayable",
      "type": "function"
    }
  ],
  "bytecode": "0x60806040523480156200001157600080fd5b5060405162003bac38038062003bac8339818101604052810190620000379190620002d4565b6040518060400160405280600781526020017f534c41204e4654000000000000000000000000000000000000000000000000008152506040518060400160405280600281526020017f534c0000000000000000000000000000000000000000000000000000000000008152508160009080519060200190620000bb9291906200020d565b508060019080519060200190620000d49291906200020d565b505050620000f7620000eb6200013f60201b60201c565b6200014760201b60201c565b80600960006101000a81548173ffffffffffffffffffffffffffffffffffffffff021916908373ffffffffffffffffffffffffffffffffffffffff16021790555050620003b3565b600033905090565b6000600760009054906101000a900473ffffffffffffffffffffffffffffffffffffffff16905081600760006101000a81548173ffffffffffffffffffffffffffffffffffffffff021916908373ffffffffffffffffffffffffffffffffffffffff1602179055508173ffffffffffffffffffffffffffffffffffffffff168173ffffffffffffffffffffffffffffffffffffffff167f8be0079c531659141344cd1fd0a4f28419497f9722a3daafe3b4186f6b6457e060405160405180910390a35050565b8280546200021b9062000334565b90600052602060002090601f0160209004810192826200023f57600085556200028b565b82601f106200025a57805160ff19168380011785556200028b565b828001600101855582156200028b579182015b828111156200028a5782518255916020019190600101906200026d565b5b5090506200029a91906200029e565b5090565b5b80821115620002b95760008160009055506001016200029f565b5090565b600081519050620002ce8162000399565b92915050565b600060208284031215620002e757600080fd5b6000620002f784828501620002bd565b91505092915050565b60006200030d8262000314565b9050919050565b600073ffffffffffffffffffffffffffffffffffffffff82169050919050565b600060028204905060018216806200034d57607f821691505b602082108114156200036457620003636200036a565b5b50919050565b7f4e487b7100000000000000000000000000000000000000000000000000000000600052602260045260246000fd5b620003a48162000300565b8114620003b057600080fd5b50565b6137e980620003c36000396000f3fe60806040526004361061011f5760003560e01c806370a08231116100a0578063b1f617e711610064578063b1f617e7146103e3578063b88d4fde146103ff578063c87b56dd14610428578063e985e9c514610465578063f2fde38b146104a25761011f565b806370a0823114610310578063715018a61461034d5780638da5cb5b1461036457806395d89b411461038f578063a22cb465146103ba5761011f565b806323b872dd116100e757806323b872dd1461021b57806342842e0e1461024457806342966c681461026d578063519dc8d2146102965780636352211e146102d35761011f565b806301ffc9a71461012457806306fdde0314610161578063081812fc1461018c578063095ea7b3146101c957806320c5429b146101f2575b600080fd5b34801561013057600080fd5b5061014b600480360381019061014691906128e6565b6104cb565b6040516101589190612d93565b60405180910390f35b34801561016d57600080fd5b506101766104dd565b6040516101839190612dae565b60405180910390f35b34801561019857600080fd5b506101b360048036038101906101ae9190612938565b61056f565b6040516101c09190612d0a565b60405180910390f35b3480156101d557600080fd5b506101f060048036038101906101eb91906128aa565b6105b5565b005b3480156101fe57600080fd5b5061021960048036038101906102149190612938565b6106cd565b005b34801561022757600080fd5b50610242600480360381019061023d9190612729565b6106e1565b005b34801561025057600080fd5b5061026b60048036038101906102669190612729565b610741565b005b34801561027957600080fd5b50610294600480360381019061028f9190612938565b610761565b005b3480156102a257600080fd5b506102bd60048036038101906102b891906126c4565b6107ed565b6040516102ca9190612d71565b60405180910390f35b3480156102df57600080fd5b506102fa60048036038101906102f59190612938565b610884565b6040516103079190612d0a565b60405180910390f35b34801561031c57600080fd5b50610337600480360381019061033291906126c4565b61090b565b6040516103449190612fd0565b60405180910390f35b34801561035957600080fd5b506103626109c3565b005b34801561037057600080fd5b506103796109d7565b6040516103869190612d0a565b60405180910390f35b34801561039b57600080fd5b506103a4610a01565b6040516103b19190612dae565b60405180910390f35b3480156103c657600080fd5b506103e160048036038101906103dc91906127f3565b610a93565b005b6103fd60048036038101906103f8919061282f565b610aa9565b005b34801561040b57600080fd5b5061042660048036038101906104219190612778565b610bcb565b005b34801561043457600080fd5b5061044f600480360381019061044a9190612938565b610c2d565b60405161045c9190612dae565b60405180910390f35b34801561047157600080fd5b5061048c600480360381019061048791906126ed565b610c3f565b6040516104999190612d93565b60405180910390f35b3480156104ae57600080fd5b506104c960048036038101906104c491906126c4565b610cd3565b005b60006104d682610d57565b9050919050565b6060600080546104ec906131ea565b80601f0160208091040260200160405190810160405280929190818152602001828054610518906131ea565b80156105655780601f1061053a57610100808354040283529160200191610565565b820191906000526020600020905b81548152906001019060200180831161054857829003601f168201915b5050505050905090565b600061057a82610db8565b6004600083815260200190815260200160002060009054906101000a900473ffffffffffffffffffffffffffffffffffffffff169050919050565b60006105c082610884565b90508073ffffffffffffffffffffffffffffffffffffffff168373ffffffffffffffffffffffffffffffffffffffff161415610631576040517f08c379a000000000000000000000000000000000000000000000000000000000815260040161062890612f90565b60405180910390fd5b8073ffffffffffffffffffffffffffffffffffffffff16610650610e03565b73ffffffffffffffffffffffffffffffffffffffff16148061067f575061067e81610679610e03565b610c3f565b5b6106be576040517f08c379a00000000000000000000000000000000000000000000000000000000081526004016106b590612fb0565b60405180910390fd5b6106c88383610e0b565b505050565b6106d5610ec4565b6106de81610f42565b50565b6106f26106ec610e03565b82610f4e565b610731576040517f08c379a000000000000000000000000000000000000000000000000000000000815260040161072890612dd0565b60405180910390fd5b61073c838383610fe3565b505050565b61075c83838360405180602001604052806000815250610bcb565b505050565b3373ffffffffffffffffffffffffffffffffffffffff1661078182610884565b73ffffffffffffffffffffffffffffffffffffffff16146107d7576040517f08c379a00000000000000000000000000000000000000000000000000000000081526004016107ce90612ed0565b60405180910390fd5b6107e081610f42565b6107ea33826112dd565b50565b6060600a60008373ffffffffffffffffffffffffffffffffffffffff1673ffffffffffffffffffffffffffffffffffffffff16815260200190815260200160002080548060200260200160405190810160405280929190818152602001828054801561087857602002820191906000526020600020905b815481526020019060010190808311610864575b50505050509050919050565b60008061089083611480565b9050600073ffffffffffffffffffffffffffffffffffffffff168173ffffffffffffffffffffffffffffffffffffffff161415610902576040517f08c379a00000000000000000000000000000000000000000000000000000000081526004016108f990612f70565b60405180910390fd5b80915050919050565b60008073ffffffffffffffffffffffffffffffffffffffff168273ffffffffffffffffffffffffffffffffffffffff16141561097c576040517f08c379a000000000000000000000000000000000000000000000000000000000815260040161097390612ef0565b60405180910390fd5b600360008373ffffffffffffffffffffffffffffffffffffffff1673ffffffffffffffffffffffffffffffffffffffff168152602001908152602001600020549050919050565b6109cb610ec4565b6109d560006114bd565b565b6000600760009054906101000a900473ffffffffffffffffffffffffffffffffffffffff16905090565b606060018054610a10906131ea565b80601f0160208091040260200160405190810160405280929190818152602001828054610a3c906131ea565b8015610a895780601f10610a5e57610100808354040283529160200191610a89565b820191906000526020600020905b815481529060010190602001808311610a6c57829003601f168201915b5050505050905090565b610aa5610a9e610e03565b8383611583565b5050565b803414610aeb576040517f08c379a0000000000000000000000000000000000000000000000000000000008152600401610ae290612e10565b60405180910390fd5b6000610af760086116f0565b9050610b0360086116fe565b610b0d8582611714565b610b178185611732565b600a60008673ffffffffffffffffffffffffffffffffffffffff1673ffffffffffffffffffffffffffffffffffffffff1681526020019081526020016000208190806001815401808255809150506001900390600052602060002001600090919091909150558273ffffffffffffffffffffffffffffffffffffffff166108fc839081150290604051600060405180830381858888f19350505050158015610bc3573d6000803e3d6000fd5b505050505050565b610bdc610bd6610e03565b83610f4e565b610c1b576040517f08c379a0000000000000000000000000000000000000000000000000000000008152600401610c1290612dd0565b60405180910390fd5b610c27848484846117dd565b50505050565b6060610c3882611839565b9050919050565b6000600560008473ffffffffffffffffffffffffffffffffffffffff1673ffffffffffffffffffffffffffffffffffffffff16815260200190815260200160002060008373ffffffffffffffffffffffffffffffffffffffff1673ffffffffffffffffffffffffffffffffffffffff16815260200190815260200160002060009054906101000a900460ff16905092915050565b610cdb610ec4565b600073ffffffffffffffffffffffffffffffffffffffff168173ffffffffffffffffffffffffffffffffffffffff161415610d4b576040517f08c379a0000000000000000000000000000000000000000000000000000000008152600401610d4290612e30565b60405180910390fd5b610d54816114bd565b50565b6000634906490660e01b7bffffffffffffffffffffffffffffffffffffffffffffffffffffffff1916827bffffffffffffffffffffffffffffffffffffffffffffffffffffffff19161480610db15750610db08261194c565b5b9050919050565b610dc181611a2e565b610e00576040517f08c379a0000000000000000000000000000000000000000000000000000000008152600401610df790612f70565b60405180910390fd5b50565b600033905090565b816004600083815260200190815260200160002060006101000a81548173ffffffffffffffffffffffffffffffffffffffff021916908373ffffffffffffffffffffffffffffffffffffffff160217905550808273ffffffffffffffffffffffffffffffffffffffff16610e7e83610884565b73ffffffffffffffffffffffffffffffffffffffff167f8c5be1e5ebec7d5bd14f71427d1e84f3dd0314c0f7b2291e5b200ac8c7c3b92560405160405180910390a45050565b610ecc610e03565b73ffffffffffffffffffffffffffffffffffffffff16610eea6109d7565b73ffffffffffffffffffffffffffffffffffffffff1614610f40576040517f08c379a0000000000000000000000000000000000000000000000000000000008152600401610f3790612f50565b60405180910390fd5b565b610f4b81611a6f565b50565b600080610f5a83610884565b90508073ffffffffffffffffffffffffffffffffffffffff168473ffffffffffffffffffffffffffffffffffffffff161480610f9c5750610f9b8185610c3f565b5b80610fda57508373ffffffffffffffffffffffffffffffffffffffff16610fc28461056f565b73ffffffffffffffffffffffffffffffffffffffff16145b91505092915050565b8273ffffffffffffffffffffffffffffffffffffffff1661100382610884565b73ffffffffffffffffffffffffffffffffffffffff1614611059576040517f08c379a000000000000000000000000000000000000000000000000000000000815260040161105090612e50565b60405180910390fd5b600073ffffffffffffffffffffffffffffffffffffffff168273ffffffffffffffffffffffffffffffffffffffff1614156110c9576040517f08c379a00000000000000000000000000000000000000000000000000000000081526004016110c090612e90565b60405180910390fd5b6110d68383836001611ac2565b8273ffffffffffffffffffffffffffffffffffffffff166110f682610884565b73ffffffffffffffffffffffffffffffffffffffff161461114c576040517f08c379a000000000000000000000000000000000000000000000000000000000815260040161114390612e50565b60405180910390fd5b6004600082815260200190815260200160002060006101000a81549073ffffffffffffffffffffffffffffffffffffffff02191690556001600360008573ffffffffffffffffffffffffffffffffffffffff1673ffffffffffffffffffffffffffffffffffffffff168152602001908152602001600020600082825403925050819055506001600360008473ffffffffffffffffffffffffffffffffffffffff1673ffffffffffffffffffffffffffffffffffffffff16815260200190815260200160002060008282540192505081905550816002600083815260200190815260200160002060006101000a81548173ffffffffffffffffffffffffffffffffffffffff021916908373ffffffffffffffffffffffffffffffffffffffff160217905550808273ffffffffffffffffffffffffffffffffffffffff168473ffffffffffffffffffffffffffffffffffffffff167fddf252ad1be2c89b69c2b068fc378daa952ba7f163c4a11628f55a4df523b3ef60405160405180910390a46112d88383836001611ac8565b505050565b6000600a60008473ffffffffffffffffffffffffffffffffffffffff1673ffffffffffffffffffffffffffffffffffffffff168152602001908152602001600020905060005b818054905081101561147a5782828281548110611369577f4e487b7100000000000000000000000000000000000000000000000000000000600052603260045260246000fd5b9060005260206000200154141561146757816001838054905061138c91906130ee565b815481106113c3577f4e487b7100000000000000000000000000000000000000000000000000000000600052603260045260246000fd5b9060005260206000200154828281548110611407577f4e487b7100000000000000000000000000000000000000000000000000000000600052603260045260246000fd5b90600052602060002001819055508180548061144c577f4e487b7100000000000000000000000000000000000000000000000000000000600052603160045260246000fd5b6001900381819060005260206000200160009055905561147a565b80806114729061324d565b915050611323565b50505050565b60006002600083815260200190815260200160002060009054906101000a900473ffffffffffffffffffffffffffffffffffffffff169050919050565b6000600760009054906101000a900473ffffffffffffffffffffffffffffffffffffffff16905081600760006101000a81548173ffffffffffffffffffffffffffffffffffffffff021916908373ffffffffffffffffffffffffffffffffffffffff1602179055508173ffffffffffffffffffffffffffffffffffffffff168173ffffffffffffffffffffffffffffffffffffffff167f8be0079c531659141344cd1fd0a4f28419497f9722a3daafe3b4186f6b6457e060405160405180910390a35050565b8173ffffffffffffffffffffffffffffffffffffffff168373ffffffffffffffffffffffffffffffffffffffff1614156115f2576040517f08c379a00000000000000000000000000000000000000000000000000000000081526004016115e990612eb0565b60405180910390fd5b80600560008573ffffffffffffffffffffffffffffffffffffffff1673ffffffffffffffffffffffffffffffffffffffff16815260200190815260200160002060008473ffffffffffffffffffffffffffffffffffffffff1673ffffffffffffffffffffffffffffffffffffffff16815260200190815260200160002060006101000a81548160ff0219169083151502179055508173ffffffffffffffffffffffffffffffffffffffff168373ffffffffffffffffffffffffffffffffffffffff167f17307eab39ab6107e8899845ad3d59bd9653f200f220920489ca2b5937696c31836040516116e39190612d93565b60405180910390a3505050565b600081600001549050919050565b6001816000016000828254019250508190555050565b61172e828260405180602001604052806000815250611ace565b5050565b61173b82611a2e565b61177a576040517f08c379a000000000000000000000000000000000000000000000000000000000815260040161177190612f10565b60405180910390fd5b806006600084815260200190815260200160002090805190602001906117a1929190612493565b507ff8e1a15aba9398e019f0b49df1a4fde98ee17ae345cb5f6b5e2c27f5033e8ce7826040516117d19190612fd0565b60405180910390a15050565b6117e8848484610fe3565b6117f484848484611b29565b611833576040517f08c379a000000000000000000000000000000000000000000000000000000000815260040161182a90612df0565b60405180910390fd5b50505050565b606061184482610db8565b6000600660008481526020019081526020016000208054611864906131ea565b80601f0160208091040260200160405190810160405280929190818152602001828054611890906131ea565b80156118dd5780601f106118b2576101008083540402835291602001916118dd565b820191906000526020600020905b8154815290600101906020018083116118c057829003601f168201915b5050505050905060006118ee611cc0565b9050600081511415611904578192505050611947565b600082511115611939578082604051602001611921929190612ce6565b60405160208183030381529060405292505050611947565b61194284611cd7565b925050505b919050565b60007f80ac58cd000000000000000000000000000000000000000000000000000000007bffffffffffffffffffffffffffffffffffffffffffffffffffffffff1916827bffffffffffffffffffffffffffffffffffffffffffffffffffffffff19161480611a1757507f5b5e139f000000000000000000000000000000000000000000000000000000007bffffffffffffffffffffffffffffffffffffffffffffffffffffffff1916827bffffffffffffffffffffffffffffffffffffffffffffffffffffffff1916145b80611a275750611a2682611d3f565b5b9050919050565b60008073ffffffffffffffffffffffffffffffffffffffff16611a5083611480565b73ffffffffffffffffffffffffffffffffffffffff1614159050919050565b611a7881611da9565b6000600660008381526020019081526020016000208054611a98906131ea565b905014611abf57600660008281526020019081526020016000206000611abe9190612519565b5b50565b50505050565b50505050565b611ad88383611ef7565b611ae56000848484611b29565b611b24576040517f08c379a0000000000000000000000000000000000000000000000000000000008152600401611b1b90612df0565b60405180910390fd5b505050565b6000611b4a8473ffffffffffffffffffffffffffffffffffffffff16612115565b15611cb3578373ffffffffffffffffffffffffffffffffffffffff1663150b7a02611b73610e03565b8786866040518563ffffffff1660e01b8152600401611b959493929190612d25565b602060405180830381600087803b158015611baf57600080fd5b505af1925050508015611be057506040513d601f19601f82011682018060405250810190611bdd919061290f565b60015b611c63573d8060008114611c10576040519150601f19603f3d011682016040523d82523d6000602084013e611c15565b606091505b50600081511415611c5b576040517f08c379a0000000000000000000000000000000000000000000000000000000008152600401611c5290612df0565b60405180910390fd5b805181602001fd5b63150b7a0260e01b7bffffffffffffffffffffffffffffffffffffffffffffffffffffffff1916817bffffffffffffffffffffffffffffffffffffffffffffffffffffffff191614915050611cb8565b600190505b949350505050565b606060405180602001604052806000815250905090565b6060611ce282610db8565b6000611cec611cc0565b90506000815111611d0c5760405180602001604052806000815250611d37565b80611d1684612138565b604051602001611d27929190612ce6565b6040516020818303038152906040525b915050919050565b60007f01ffc9a7000000000000000000000000000000000000000000000000000000007bffffffffffffffffffffffffffffffffffffffffffffffffffffffff1916827bffffffffffffffffffffffffffffffffffffffffffffffffffffffff1916149050919050565b6000611db482610884565b9050611dc4816000846001611ac2565b611dcd82610884565b90506004600083815260200190815260200160002060006101000a81549073ffffffffffffffffffffffffffffffffffffffff02191690556001600360008373ffffffffffffffffffffffffffffffffffffffff1673ffffffffffffffffffffffffffffffffffffffff168152602001908152602001600020600082825403925050819055506002600083815260200190815260200160002060006101000a81549073ffffffffffffffffffffffffffffffffffffffff021916905581600073ffffffffffffffffffffffffffffffffffffffff168273ffffffffffffffffffffffffffffffffffffffff167fddf252ad1be2c89b69c2b068fc378daa952ba7f163c4a11628f55a4df523b3ef60405160405180910390a4611ef3816000846001611ac8565b5050565b600073ffffffffffffffffffffffffffffffffffffffff168273ffffffffffffffffffffffffffffffffffffffff161415611f67576040517f08c379a0000000000000000000000000000000000000000000000000000000008152600401611f5e90612f30565b60405180910390fd5b611f7081611a2e565b15611fb0576040517f08c379a0000000000000000000000000000000000000000000000000000000008152600401611fa790612e70565b60405180910390fd5b611fbe600083836001611ac2565b611fc781611a2e565b15612007576040517f08c379a0000000000000000000000000000000000000000000000000000000008152600401611ffe90612e70565b60405180910390fd5b6001600360008473ffffffffffffffffffffffffffffffffffffffff1673ffffffffffffffffffffffffffffffffffffffff16815260200190815260200160002060008282540192505081905550816002600083815260200190815260200160002060006101000a81548173ffffffffffffffffffffffffffffffffffffffff021916908373ffffffffffffffffffffffffffffffffffffffff160217905550808273ffffffffffffffffffffffffffffffffffffffff16600073ffffffffffffffffffffffffffffffffffffffff167fddf252ad1be2c89b69c2b068fc378daa952ba7f163c4a11628f55a4df523b3ef60405160405180910390a4612111600083836001611ac8565b5050565b6000808273ffffffffffffffffffffffffffffffffffffffff163b119050919050565b6060600060016121478461225c565b01905060008167ffffffffffffffff81111561218c577f4e487b7100000000000000000000000000000000000000000000000000000000600052604160045260246000fd5b6040519080825280601f01601f1916602001820160405280156121be5781602001600182028036833780820191505090505b509050600082602001820190505b600115612251578080600190039150507f3031323334353637383961626364656600000000000000000000000000000000600a86061a8153600a858161223b577f4e487b7100000000000000000000000000000000000000000000000000000000600052601260045260246000fd5b049450600085141561224c57612251565b6121cc565b819350505050919050565b600080600090507a184f03e93ff9f4daa797ed6e38ed64bf6a1f01000000000000000083106122e0577a184f03e93ff9f4daa797ed6e38ed64bf6a1f01000000000000000083816122d6577f4e487b7100000000000000000000000000000000000000000000000000000000600052601260045260246000fd5b0492506040810190505b6d04ee2d6d415b85acef81000000008310612343576d04ee2d6d415b85acef81000000008381612339577f4e487b7100000000000000000000000000000000000000000000000000000000600052601260045260246000fd5b0492506020810190505b662386f26fc10000831061239857662386f26fc10000838161238e577f4e487b7100000000000000000000000000000000000000000000000000000000600052601260045260246000fd5b0492506010810190505b6305f5e10083106123e7576305f5e10083816123dd577f4e487b7100000000000000000000000000000000000000000000000000000000600052601260045260246000fd5b0492506008810190505b6127108310612432576127108381612428577f4e487b7100000000000000000000000000000000000000000000000000000000600052601260045260246000fd5b0492506004810190505b6064831061247b5760648381612471577f4e487b7100000000000000000000000000000000000000000000000000000000600052601260045260246000fd5b0492506002810190505b600a831061248a576001810190505b80915050919050565b82805461249f906131ea565b90600052602060002090601f0160209004810192826124c15760008555612508565b82601f106124da57805160ff1916838001178555612508565b82800160010185558215612508579182015b828111156125075782518255916020019190600101906124ec565b5b5090506125159190612559565b5090565b508054612525906131ea565b6000825580601f106125375750612556565b601f0160209004906000526020600020908101906125559190612559565b5b50565b5b8082111561257257600081600090555060010161255a565b5090565b600061258961258484613010565b612feb565b9050828152602081018484840111156125a157600080fd5b6125ac8482856131a8565b509392505050565b60006125c76125c284613041565b612feb565b9050828152602081018484840111156125df57600080fd5b6125ea8482856131a8565b509392505050565b60008135905061260181613740565b92915050565b60008135905061261681613757565b92915050565b60008135905061262b8161376e565b92915050565b60008135905061264081613785565b92915050565b60008151905061265581613785565b92915050565b600082601f83011261266c57600080fd5b813561267c848260208601612576565b91505092915050565b600082601f83011261269657600080fd5b81356126a68482602086016125b4565b91505092915050565b6000813590506126be8161379c565b92915050565b6000602082840312156126d657600080fd5b60006126e4848285016125f2565b91505092915050565b6000806040838503121561270057600080fd5b600061270e858286016125f2565b925050602061271f858286016125f2565b9150509250929050565b60008060006060848603121561273e57600080fd5b600061274c868287016125f2565b935050602061275d868287016125f2565b925050604061276e868287016126af565b9150509250925092565b6000806000806080858703121561278e57600080fd5b600061279c878288016125f2565b94505060206127ad878288016125f2565b93505060406127be878288016126af565b925050606085013567ffffffffffffffff8111156127db57600080fd5b6127e78782880161265b565b91505092959194509250565b6000806040838503121561280657600080fd5b6000612814858286016125f2565b92505060206128258582860161261c565b9150509250929050565b6000806000806080858703121561284557600080fd5b6000612853878288016125f2565b945050602085013567ffffffffffffffff81111561287057600080fd5b61287c87828801612685565b935050604061288d87828801612607565b925050606061289e878288016126af565b91505092959194509250565b600080604083850312156128bd57600080fd5b60006128cb858286016125f2565b92505060206128dc858286016126af565b9150509250929050565b6000602082840312156128f857600080fd5b600061290684828501612631565b91505092915050565b60006020828403121561292157600080fd5b600061292f84828501612646565b91505092915050565b60006020828403121561294a57600080fd5b6000612958848285016126af565b91505092915050565b600061296d8383612cc8565b60208301905092915050565b61298281613122565b82525050565b600061299382613082565b61299d81856130b0565b93506129a883613072565b8060005b838110156129d95781516129c08882612961565b97506129cb836130a3565b9250506001810190506129ac565b5085935050505092915050565b6129ef81613146565b82525050565b6000612a008261308d565b612a0a81856130c1565b9350612a1a8185602086016131b7565b612a2381613323565b840191505092915050565b6000612a3982613098565b612a4381856130d2565b9350612a538185602086016131b7565b612a5c81613323565b840191505092915050565b6000612a7282613098565b612a7c81856130e3565b9350612a8c8185602086016131b7565b80840191505092915050565b6000612aa5602d836130d2565b9150612ab082613334565b604082019050919050565b6000612ac86032836130d2565b9150612ad382613383565b604082019050919050565b6000612aeb6014836130d2565b9150612af6826133d2565b602082019050919050565b6000612b0e6026836130d2565b9150612b19826133fb565b604082019050919050565b6000612b316025836130d2565b9150612b3c8261344a565b604082019050919050565b6000612b54601c836130d2565b9150612b5f82613499565b602082019050919050565b6000612b776024836130d2565b9150612b82826134c2565b604082019050919050565b6000612b9a6019836130d2565b9150612ba582613511565b602082019050919050565b6000612bbd6023836130d2565b9150612bc88261353a565b604082019050919050565b6000612be06029836130d2565b9150612beb82613589565b604082019050919050565b6000612c03602e836130d2565b9150612c0e826135d8565b604082019050919050565b6000612c266020836130d2565b9150612c3182613627565b602082019050919050565b6000612c496020836130d2565b9150612c5482613650565b602082019050919050565b6000612c6c6018836130d2565b9150612c7782613679565b602082019050919050565b6000612c8f6021836130d2565b9150612c9a826136a2565b604082019050919050565b6000612cb2603d836130d2565b9150612cbd826136f1565b604082019050919050565b612cd18161319e565b82525050565b612ce08161319e565b82525050565b6000612cf28285612a67565b9150612cfe8284612a67565b91508190509392505050565b6000602082019050612d1f6000830184612979565b92915050565b6000608082019050612d3a6000830187612979565b612d476020830186612979565b612d546040830185612cd7565b8181036060830152612d6681846129f5565b905095945050505050565b60006020820190508181036000830152612d8b8184612988565b905092915050565b6000602082019050612da860008301846129e6565b92915050565b60006020820190508181036000830152612dc88184612a2e565b905092915050565b60006020820190508181036000830152612de981612a98565b9050919050565b60006020820190508181036000830152612e0981612abb565b9050919050565b60006020820190508181036000830152612e2981612ade565b9050919050565b60006020820190508181036000830152612e4981612b01565b9050919050565b60006020820190508181036000830152612e6981612b24565b9050919050565b60006020820190508181036000830152612e8981612b47565b9050919050565b60006020820190508181036000830152612ea981612b6a565b9050919050565b60006020820190508181036000830152612ec981612b8d565b9050919050565b60006020820190508181036000830152612ee981612bb0565b9050919050565b60006020820190508181036000830152612f0981612bd3565b9050919050565b60006020820190508181036000830152612f2981612bf6565b9050919050565b60006020820190508181036000830152612f4981612c19565b9050919050565b60006020820190508181036000830152612f6981612c3c565b9050919050565b60006020820190508181036000830152612f8981612c5f565b9050919050565b60006020820190508181036000830152612fa981612c82565b9050919050565b60006020820190508181036000830152612fc981612ca5565b9050919050565b6000602082019050612fe56000830184612cd7565b92915050565b6000612ff5613006565b9050613001828261321c565b919050565b6000604051905090565b600067ffffffffffffffff82111561302b5761302a6132f4565b5b61303482613323565b9050602081019050919050565b600067ffffffffffffffff82111561305c5761305b6132f4565b5b61306582613323565b9050602081019050919050565b6000819050602082019050919050565b600081519050919050565b600081519050919050565b600081519050919050565b6000602082019050919050565b600082825260208201905092915050565b600082825260208201905092915050565b600082825260208201905092915050565b600081905092915050565b60006130f98261319e565b91506131048361319e565b92508282101561311757613116613296565b5b828203905092915050565b600061312d8261317e565b9050919050565b600061313f8261317e565b9050919050565b60008115159050919050565b60007fffffffff0000000000000000000000000000000000000000000000000000000082169050919050565b600073ffffffffffffffffffffffffffffffffffffffff82169050919050565b6000819050919050565b82818337600083830152505050565b60005b838110156131d55780820151818401526020810190506131ba565b838111156131e4576000848401525b50505050565b6000600282049050600182168061320257607f821691505b60208210811415613216576132156132c5565b5b50919050565b61322582613323565b810181811067ffffffffffffffff82111715613244576132436132f4565b5b80604052505050565b60006132588261319e565b91507fffffffffffffffffffffffffffffffffffffffffffffffffffffffffffffffff82141561328b5761328a613296565b5b600182019050919050565b7f4e487b7100000000000000000000000000000000000000000000000000000000600052601160045260246000fd5b7f4e487b7100000000000000000000000000000000000000000000000000000000600052602260045260246000fd5b7f4e487b7100000000000000000000000000000000000000000000000000000000600052604160045260246000fd5b6000601f19601f8301169050919050565b7f4552433732313a2063616c6c6572206973206e6f7420746f6b656e206f776e6560008201527f72206f7220617070726f76656400000000000000000000000000000000000000602082015250565b7f4552433732313a207472616e7366657220746f206e6f6e20455243373231526560008201527f63656976657220696d706c656d656e7465720000000000000000000000000000602082015250565b7f496e636f72726563742045746865722073656e74000000000000000000000000600082015250565b7f4f776e61626c653a206e6577206f776e657220697320746865207a65726f206160008201527f6464726573730000000000000000000000000000000000000000000000000000602082015250565b7f4552433732313a207472616e736665722066726f6d20696e636f72726563742060008201527f6f776e6572000000000000000000000000000000000000000000000000000000602082015250565b7f4552433732313a20746f6b656e20616c7265616479206d696e74656400000000600082015250565b7f4552433732313a207472616e7366657220746f20746865207a65726f2061646460008201527f7265737300000000000000000000000000000000000000000000000000000000602082015250565b7f4552433732313a20617070726f766520746f2063616c6c657200000000000000600082015250565b7f4f6e6c79206f776e6572206f662074686520746f6b656e2063616e206275726e60008201527f2069740000000000000000000000000000000000000000000000000000000000602082015250565b7f4552433732313a2061646472657373207a65726f206973206e6f74206120766160008201527f6c6964206f776e65720000000000000000000000000000000000000000000000602082015250565b7f45524337323155524953746f726167653a2055524920736574206f66206e6f6e60008201527f6578697374656e7420746f6b656e000000000000000000000000000000000000602082015250565b7f4552433732313a206d696e7420746f20746865207a65726f2061646472657373600082015250565b7f4f776e61626c653a2063616c6c6572206973206e6f7420746865206f776e6572600082015250565b7f4552433732313a20696e76616c696420746f6b656e2049440000000000000000600082015250565b7f4552433732313a20617070726f76616c20746f2063757272656e74206f776e6560008201527f7200000000000000000000000000000000000000000000000000000000000000602082015250565b7f4552433732313a20617070726f76652063616c6c6572206973206e6f7420746f60008201527f6b656e206f776e6572206f7220617070726f76656420666f7220616c6c000000602082015250565b61374981613122565b811461375457600080fd5b50565b61376081613134565b811461376b57600080fd5b50565b61377781613146565b811461378257600080fd5b50565b61378e81613152565b811461379957600080fd5b50565b6137a58161319e565b81146137b057600080fd5b5056fea2646970667358221220235d6f39bcb1113a5f3b4f9f0a4d03bbbae5720f83a6fa45c2741437501b586a64736f6c63430008040033",
  "linkReferences": {},
  "deployedLinkReferences": {}
}