{
  "_format": "hh-sol-artifact-1",
  "contractName": "NFT_Badge_Provider",
  "sourceName": "contracts/NFT_Badge_Provider.sol",
  "abi": [
    {
      "inputs": [],
      "stateMutability": "nonpayable",
      "type": "constructor"
    },
    {
      "anonymous": false,
      "inputs": [
        {
          "indexed": true,
          "internalType": "address",
          "name": "owner",
          "type": "address"
        },
        {
          "indexed": true,
          "internalType": "address",
          "name": "approved",
          "type": "address"
        },
        {
          "indexed": true,
          "internalType": "uint256",
          "name": "tokenId",
          "type": "uint256"
        }
      ],
      "name": "Approval",
      "type": "event"
    },
    {
      "anonymous": false,
      "inputs": [
        {
          "indexed": true,
          "internalType": "address",
          "name": "owner",
          "type": "address"
        },
        {
          "indexed": true,
          "internalType": "address",
          "name": "operator",
          "type": "address"
        },
        {
          "indexed": false,
          "internalType": "bool",
          "name": "approved",
          "type": "bool"
        }
      ],
      "name": "ApprovalForAll",
      "type": "event"
    },
    {
      "anonymous": false,
      "inputs": [
        {
          "indexed": true,
          "internalType": "address",
          "name": "to",
          "type": "address"
        },
        {
          "indexed": true,
          "internalType": "uint256",
          "name": "tokenId",
          "type": "uint256"
        }
      ],
      "name": "Attest",
      "type": "event"
    },
    {
      "anonymous": false,
      "inputs": [
        {
          "indexed": false,
          "internalType": "uint256",
          "name": "_fromTokenId",
          "type": "uint256"
        },
        {
          "indexed": false,
          "internalType": "uint256",
          "name": "_toTokenId",
          "type": "uint256"
        }
      ],
      "name": "BatchMetadataUpdate",
      "type": "event"
    },
    {
      "anonymous": false,
      "inputs": [
        {
          "indexed": false,
          "internalType": "uint256",
          "name": "_tokenId",
          "type": "uint256"
        }
      ],
      "name": "MetadataUpdate",
      "type": "event"
    },
    {
      "anonymous": false,
      "inputs": [
        {
          "indexed": true,
          "internalType": "address",
          "name": "previousOwner",
          "type": "address"
        },
        {
          "indexed": true,
          "internalType": "address",
          "name": "newOwner",
          "type": "address"
        }
      ],
      "name": "OwnershipTransferred",
      "type": "event"
    },
    {
      "anonymous": false,
      "inputs": [
        {
          "indexed": true,
          "internalType": "address",
          "name": "to",
          "type": "address"
        },
        {
          "indexed": true,
          "internalType": "uint256",
          "name": "tokenId",
          "type": "uint256"
        }
      ],
      "name": "Revoke",
      "type": "event"
    },
    {
      "anonymous": false,
      "inputs": [
        {
          "indexed": true,
          "internalType": "address",
          "name": "from",
          "type": "address"
        },
        {
          "indexed": true,
          "internalType": "address",
          "name": "to",
          "type": "address"
        },
        {
          "indexed": true,
          "internalType": "uint256",
          "name": "tokenId",
          "type": "uint256"
        }
      ],
      "name": "Transfer",
      "type": "event"
    },
    {
      "inputs": [
        {
          "internalType": "address",
          "name": "to",
          "type": "address"
        },
        {
          "internalType": "uint256",
          "name": "tokenId",
          "type": "uint256"
        }
      ],
      "name": "approve",
      "outputs": [],
      "stateMutability": "nonpayable",
      "type": "function"
    },
    {
      "inputs": [
        {
          "internalType": "address",
          "name": "owner",
          "type": "address"
        }
      ],
      "name": "balanceOf",
      "outputs": [
        {
          "internalType": "uint256",
          "name": "",
          "type": "uint256"
        }
      ],
      "stateMutability": "view",
      "type": "function"
    },
    {
      "inputs": [
        {
          "internalType": "uint256",
          "name": "tokenId",
          "type": "uint256"
        }
      ],
      "name": "burn",
      "outputs": [],
      "stateMutability": "nonpayable",
      "type": "function"
    },
    {
      "inputs": [
        {
          "internalType": "uint256",
          "name": "tokenId",
          "type": "uint256"
        }
      ],
      "name": "getApproved",
      "outputs": [
        {
          "internalType": "address",
          "name": "",
          "type": "address"
        }
      ],
      "stateMutability": "view",
      "type": "function"
    },
    {
      "inputs": [
        {
          "internalType": "address",
          "name": "user",
          "type": "address"
        }
      ],
      "name": "getUserTokens",
      "outputs": [
        {
          "internalType": "uint256[]",
          "name": "",
          "type": "uint256[]"
        }
      ],
      "stateMutability": "view",
      "type": "function"
    },
    {
      "inputs": [
        {
          "internalType": "address",
          "name": "owner",
          "type": "address"
        },
        {
          "internalType": "address",
          "name": "operator",
          "type": "address"
        }
      ],
      "name": "isApprovedForAll",
      "outputs": [
        {
          "internalType": "bool",
          "name": "",
          "type": "bool"
        }
      ],
      "stateMutability": "view",
      "type": "function"
    },
    {
      "inputs": [],
      "name": "name",
      "outputs": [
        {
          "internalType": "string",
          "name": "",
          "type": "string"
        }
      ],
      "stateMutability": "view",
      "type": "function"
    },
    {
      "inputs": [],
      "name": "owner",
      "outputs": [
        {
          "internalType": "address",
          "name": "",
          "type": "address"
        }
      ],
      "stateMutability": "view",
      "type": "function"
    },
    {
      "inputs": [
        {
          "internalType": "uint256",
          "name": "tokenId",
          "type": "uint256"
        }
      ],
      "name": "ownerOf",
      "outputs": [
        {
          "internalType": "address",
          "name": "",
          "type": "address"
        }
      ],
      "stateMutability": "view",
      "type": "function"
    },
    {
      "inputs": [],
      "name": "renounceOwnership",
      "outputs": [],
      "stateMutability": "nonpayable",
      "type": "function"
    },
    {
      "inputs": [
        {
          "internalType": "uint256",
          "name": "tokenId",
          "type": "uint256"
        }
      ],
      "name": "revoke",
      "outputs": [],
      "stateMutability": "nonpayable",
      "type": "function"
    },
    {
      "inputs": [
        {
          "internalType": "address",
          "name": "to",
          "type": "address"
        },
        {
          "internalType": "string",
          "name": "uri",
          "type": "string"
        }
      ],
      "name": "safeMint",
      "outputs": [],
      "stateMutability": "nonpayable",
      "type": "function"
    },
    {
      "inputs": [
        {
          "internalType": "address",
          "name": "from",
          "type": "address"
        },
        {
          "internalType": "address",
          "name": "to",
          "type": "address"
        },
        {
          "internalType": "uint256",
          "name": "tokenId",
          "type": "uint256"
        }
      ],
      "name": "safeTransferFrom",
      "outputs": [],
      "stateMutability": "nonpayable",
      "type": "function"
    },
    {
      "inputs": [
        {
          "internalType": "address",
          "name": "from",
          "type": "address"
        },
        {
          "internalType": "address",
          "name": "to",
          "type": "address"
        },
        {
          "internalType": "uint256",
          "name": "tokenId",
          "type": "uint256"
        },
        {
          "internalType": "bytes",
          "name": "data",
          "type": "bytes"
        }
      ],
      "name": "safeTransferFrom",
      "outputs": [],
      "stateMutability": "nonpayable",
      "type": "function"
    },
    {
      "inputs": [
        {
          "internalType": "address",
          "name": "operator",
          "type": "address"
        },
        {
          "internalType": "bool",
          "name": "approved",
          "type": "bool"
        }
      ],
      "name": "setApprovalForAll",
      "outputs": [],
      "stateMutability": "nonpayable",
      "type": "function"
    },
    {
      "inputs": [
        {
          "internalType": "bytes4",
          "name": "interfaceId",
          "type": "bytes4"
        }
      ],
      "name": "supportsInterface",
      "outputs": [
        {
          "internalType": "bool",
          "name": "",
          "type": "bool"
        }
      ],
      "stateMutability": "view",
      "type": "function"
    },
    {
      "inputs": [],
      "name": "symbol",
      "outputs": [
        {
          "internalType": "string",
          "name": "",
          "type": "string"
        }
      ],
      "stateMutability": "view",
      "type": "function"
    },
    {
      "inputs": [
        {
          "internalType": "uint256",
          "name": "tokenId",
          "type": "uint256"
        }
      ],
      "name": "tokenURI",
      "outputs": [
        {
          "internalType": "string",
          "name": "",
          "type": "string"
        }
      ],
      "stateMutability": "view",
      "type": "function"
    },
    {
      "inputs": [
        {
          "internalType": "address",
          "name": "from",
          "type": "address"
        },
        {
          "internalType": "address",
          "name": "to",
          "type": "address"
        },
        {
          "internalType": "uint256",
          "name": "tokenId",
          "type": "uint256"
        }
      ],
      "name": "transferFrom",
      "outputs": [],
      "stateMutability": "nonpayable",
      "type": "function"
    },
    {
      "inputs": [
        {
          "internalType": "address",
          "name": "newOwner",
          "type": "address"
        }
      ],
      "name": "transferOwnership",
      "outputs": [],
      "stateMutability": "nonpayable",
      "type": "function"
    }
  ],
  "bytecode": "0x60806040523480156200001157600080fd5b506040518060400160405280601281526020017f436c6f75642050726f7669646572204e465400000000000000000000000000008152506040518060400160405280600281526020017f4350000000000000000000000000000000000000000000000000000000000000815250816000908051906020019062000096929190620001a6565b508060019080519060200190620000af929190620001a6565b505050620000d2620000c6620000d860201b60201c565b620000e060201b60201c565b620002bb565b600033905090565b6000600760009054906101000a900473ffffffffffffffffffffffffffffffffffffffff16905081600760006101000a81548173ffffffffffffffffffffffffffffffffffffffff021916908373ffffffffffffffffffffffffffffffffffffffff1602179055508173ffffffffffffffffffffffffffffffffffffffff168173ffffffffffffffffffffffffffffffffffffffff167f8be0079c531659141344cd1fd0a4f28419497f9722a3daafe3b4186f6b6457e060405160405180910390a35050565b828054620001b49062000256565b90600052602060002090601f016020900481019282620001d8576000855562000224565b82601f10620001f357805160ff191683800117855562000224565b8280016001018555821562000224579182015b828111156200022357825182559160200191906001019062000206565b5b50905062000233919062000237565b5090565b5b808211156200025257600081600090555060010162000238565b5090565b600060028204905060018216806200026f57607f821691505b602082108114156200028657620002856200028c565b5b50919050565b7f4e487b7100000000000000000000000000000000000000000000000000000000600052602260045260246000fd5b6137ae80620002cb6000396000f3fe608060405234801561001057600080fd5b506004361061012c5760003560e01c806370a08231116100ad578063b88d4fde11610071578063b88d4fde1461032d578063c87b56dd14610349578063d204c45e14610379578063e985e9c514610395578063f2fde38b146103c55761012c565b806370a082311461029b578063715018a6146102cb5780638da5cb5b146102d557806395d89b41146102f3578063a22cb465146103115761012c565b806323b872dd116100f457806323b872dd146101e757806342842e0e1461020357806342966c681461021f578063519dc8d21461023b5780636352211e1461026b5761012c565b806301ffc9a71461013157806306fdde0314610161578063081812fc1461017f578063095ea7b3146101af57806320c5429b146101cb575b600080fd5b61014b600480360381019061014691906128d4565b6103e1565b6040516101589190612d81565b60405180910390f35b6101696103f3565b6040516101769190612d9c565b60405180910390f35b61019960048036038101906101949190612926565b610485565b6040516101a69190612cf8565b60405180910390f35b6101c960048036038101906101c49190612898565b6104cb565b005b6101e560048036038101906101e09190612926565b6105e3565b005b61020160048036038101906101fc919061273e565b6105f7565b005b61021d6004803603810190610218919061273e565b610657565b005b61023960048036038101906102349190612926565b610677565b005b610255600480360381019061025091906126d9565b610703565b6040516102629190612d5f565b60405180910390f35b61028560048036038101906102809190612926565b61079a565b6040516102929190612cf8565b60405180910390f35b6102b560048036038101906102b091906126d9565b610821565b6040516102c29190612fbe565b60405180910390f35b6102d36108d9565b005b6102dd6108ed565b6040516102ea9190612cf8565b60405180910390f35b6102fb610917565b6040516103089190612d9c565b60405180910390f35b61032b60048036038101906103269190612808565b6109a9565b005b6103476004803603810190610342919061278d565b6109bf565b005b610363600480360381019061035e9190612926565b610a21565b6040516103709190612d9c565b60405180910390f35b610393600480360381019061038e9190612844565b610a33565b005b6103af60048036038101906103aa9190612702565b610aca565b6040516103bc9190612d81565b60405180910390f35b6103df60048036038101906103da91906126d9565b610b5e565b005b60006103ec82610be2565b9050919050565b606060008054610402906131c6565b80601f016020809104026020016040519081016040528092919081815260200182805461042e906131c6565b801561047b5780601f106104505761010080835404028352916020019161047b565b820191906000526020600020905b81548152906001019060200180831161045e57829003601f168201915b5050505050905090565b600061049082610c43565b6004600083815260200190815260200160002060009054906101000a900473ffffffffffffffffffffffffffffffffffffffff169050919050565b60006104d68261079a565b90508073ffffffffffffffffffffffffffffffffffffffff168373ffffffffffffffffffffffffffffffffffffffff161415610547576040517f08c379a000000000000000000000000000000000000000000000000000000000815260040161053e90612f7e565b60405180910390fd5b8073ffffffffffffffffffffffffffffffffffffffff16610566610c8e565b73ffffffffffffffffffffffffffffffffffffffff16148061059557506105948161058f610c8e565b610aca565b5b6105d4576040517f08c379a00000000000000000000000000000000000000000000000000000000081526004016105cb90612f9e565b60405180910390fd5b6105de8383610c96565b505050565b6105eb610d4f565b6105f481610dcd565b50565b610608610602610c8e565b82610dd9565b610647576040517f08c379a000000000000000000000000000000000000000000000000000000000815260040161063e90612dde565b60405180910390fd5b610652838383610e6e565b505050565b610672838383604051806020016040528060008152506109bf565b505050565b3373ffffffffffffffffffffffffffffffffffffffff166106978261079a565b73ffffffffffffffffffffffffffffffffffffffff16146106ed576040517f08c379a00000000000000000000000000000000000000000000000000000000081526004016106e490612ebe565b60405180910390fd5b6106f681610dcd565b6107003382611168565b50565b6060600960008373ffffffffffffffffffffffffffffffffffffffff1673ffffffffffffffffffffffffffffffffffffffff16815260200190815260200160002080548060200260200160405190810160405280929190818152602001828054801561078e57602002820191906000526020600020905b81548152602001906001019080831161077a575b50505050509050919050565b6000806107a68361130b565b9050600073ffffffffffffffffffffffffffffffffffffffff168173ffffffffffffffffffffffffffffffffffffffff161415610818576040517f08c379a000000000000000000000000000000000000000000000000000000000815260040161080f90612f5e565b60405180910390fd5b80915050919050565b60008073ffffffffffffffffffffffffffffffffffffffff168273ffffffffffffffffffffffffffffffffffffffff161415610892576040517f08c379a000000000000000000000000000000000000000000000000000000000815260040161088990612ede565b60405180910390fd5b600360008373ffffffffffffffffffffffffffffffffffffffff1673ffffffffffffffffffffffffffffffffffffffff168152602001908152602001600020549050919050565b6108e1610d4f565b6108eb6000611348565b565b6000600760009054906101000a900473ffffffffffffffffffffffffffffffffffffffff16905090565b606060018054610926906131c6565b80601f0160208091040260200160405190810160405280929190818152602001828054610952906131c6565b801561099f5780601f106109745761010080835404028352916020019161099f565b820191906000526020600020905b81548152906001019060200180831161098257829003601f168201915b5050505050905090565b6109bb6109b4610c8e565b838361140e565b5050565b6109d06109ca610c8e565b83610dd9565b610a0f576040517f08c379a0000000000000000000000000000000000000000000000000000000008152600401610a0690612dde565b60405180910390fd5b610a1b8484848461157b565b50505050565b6060610a2c826115d7565b9050919050565b6000610a3f60086116ea565b9050610a4b60086116f8565b610a55838261170e565b610a5f818361172c565b600960008473ffffffffffffffffffffffffffffffffffffffff1673ffffffffffffffffffffffffffffffffffffffff168152602001908152602001600020819080600181540180825580915050600190039060005260206000200160009091909190915055505050565b6000600560008473ffffffffffffffffffffffffffffffffffffffff1673ffffffffffffffffffffffffffffffffffffffff16815260200190815260200160002060008373ffffffffffffffffffffffffffffffffffffffff1673ffffffffffffffffffffffffffffffffffffffff16815260200190815260200160002060009054906101000a900460ff16905092915050565b610b66610d4f565b600073ffffffffffffffffffffffffffffffffffffffff168173ffffffffffffffffffffffffffffffffffffffff161415610bd6576040517f08c379a0000000000000000000000000000000000000000000000000000000008152600401610bcd90612e1e565b60405180910390fd5b610bdf81611348565b50565b6000634906490660e01b7bffffffffffffffffffffffffffffffffffffffffffffffffffffffff1916827bffffffffffffffffffffffffffffffffffffffffffffffffffffffff19161480610c3c5750610c3b826117d7565b5b9050919050565b610c4c816118b9565b610c8b576040517f08c379a0000000000000000000000000000000000000000000000000000000008152600401610c8290612f5e565b60405180910390fd5b50565b600033905090565b816004600083815260200190815260200160002060006101000a81548173ffffffffffffffffffffffffffffffffffffffff021916908373ffffffffffffffffffffffffffffffffffffffff160217905550808273ffffffffffffffffffffffffffffffffffffffff16610d098361079a565b73ffffffffffffffffffffffffffffffffffffffff167f8c5be1e5ebec7d5bd14f71427d1e84f3dd0314c0f7b2291e5b200ac8c7c3b92560405160405180910390a45050565b610d57610c8e565b73ffffffffffffffffffffffffffffffffffffffff16610d756108ed565b73ffffffffffffffffffffffffffffffffffffffff1614610dcb576040517f08c379a0000000000000000000000000000000000000000000000000000000008152600401610dc290612f3e565b60405180910390fd5b565b610dd6816118fa565b50565b600080610de58361079a565b90508073ffffffffffffffffffffffffffffffffffffffff168473ffffffffffffffffffffffffffffffffffffffff161480610e275750610e268185610aca565b5b80610e6557508373ffffffffffffffffffffffffffffffffffffffff16610e4d84610485565b73ffffffffffffffffffffffffffffffffffffffff16145b91505092915050565b8273ffffffffffffffffffffffffffffffffffffffff16610e8e8261079a565b73ffffffffffffffffffffffffffffffffffffffff1614610ee4576040517f08c379a0000000000000000000000000000000000000000000000000000000008152600401610edb90612e3e565b60405180910390fd5b600073ffffffffffffffffffffffffffffffffffffffff168273ffffffffffffffffffffffffffffffffffffffff161415610f54576040517f08c379a0000000000000000000000000000000000000000000000000000000008152600401610f4b90612e7e565b60405180910390fd5b610f61838383600161194d565b8273ffffffffffffffffffffffffffffffffffffffff16610f818261079a565b73ffffffffffffffffffffffffffffffffffffffff1614610fd7576040517f08c379a0000000000000000000000000000000000000000000000000000000008152600401610fce90612e3e565b60405180910390fd5b6004600082815260200190815260200160002060006101000a81549073ffffffffffffffffffffffffffffffffffffffff02191690556001600360008573ffffffffffffffffffffffffffffffffffffffff1673ffffffffffffffffffffffffffffffffffffffff168152602001908152602001600020600082825403925050819055506001600360008473ffffffffffffffffffffffffffffffffffffffff1673ffffffffffffffffffffffffffffffffffffffff16815260200190815260200160002060008282540192505081905550816002600083815260200190815260200160002060006101000a81548173ffffffffffffffffffffffffffffffffffffffff021916908373ffffffffffffffffffffffffffffffffffffffff160217905550808273ffffffffffffffffffffffffffffffffffffffff168473ffffffffffffffffffffffffffffffffffffffff167fddf252ad1be2c89b69c2b068fc378daa952ba7f163c4a11628f55a4df523b3ef60405160405180910390a461116383838360016119f9565b505050565b6000600960008473ffffffffffffffffffffffffffffffffffffffff1673ffffffffffffffffffffffffffffffffffffffff168152602001908152602001600020905060005b818054905081101561130557828282815481106111f4577f4e487b7100000000000000000000000000000000000000000000000000000000600052603260045260246000fd5b906000526020600020015414156112f257816001838054905061121791906130dc565b8154811061124e577f4e487b7100000000000000000000000000000000000000000000000000000000600052603260045260246000fd5b9060005260206000200154828281548110611292577f4e487b7100000000000000000000000000000000000000000000000000000000600052603260045260246000fd5b9060005260206000200181905550818054806112d7577f4e487b7100000000000000000000000000000000000000000000000000000000600052603160045260246000fd5b60019003818190600052602060002001600090559055611305565b80806112fd90613229565b9150506111ae565b50505050565b60006002600083815260200190815260200160002060009054906101000a900473ffffffffffffffffffffffffffffffffffffffff169050919050565b6000600760009054906101000a900473ffffffffffffffffffffffffffffffffffffffff16905081600760006101000a81548173ffffffffffffffffffffffffffffffffffffffff021916908373ffffffffffffffffffffffffffffffffffffffff1602179055508173ffffffffffffffffffffffffffffffffffffffff168173ffffffffffffffffffffffffffffffffffffffff167f8be0079c531659141344cd1fd0a4f28419497f9722a3daafe3b4186f6b6457e060405160405180910390a35050565b8173ffffffffffffffffffffffffffffffffffffffff168373ffffffffffffffffffffffffffffffffffffffff16141561147d576040517f08c379a000000000000000000000000000000000000000000000000000000000815260040161147490612e9e565b60405180910390fd5b80600560008573ffffffffffffffffffffffffffffffffffffffff1673ffffffffffffffffffffffffffffffffffffffff16815260200190815260200160002060008473ffffffffffffffffffffffffffffffffffffffff1673ffffffffffffffffffffffffffffffffffffffff16815260200190815260200160002060006101000a81548160ff0219169083151502179055508173ffffffffffffffffffffffffffffffffffffffff168373ffffffffffffffffffffffffffffffffffffffff167f17307eab39ab6107e8899845ad3d59bd9653f200f220920489ca2b5937696c318360405161156e9190612d81565b60405180910390a3505050565b611586848484610e6e565b61159284848484611af8565b6115d1576040517f08c379a00000000000000000000000000000000000000000000000000000000081526004016115c890612dfe565b60405180910390fd5b50505050565b60606115e282610c43565b6000600660008481526020019081526020016000208054611602906131c6565b80601f016020809104026020016040519081016040528092919081815260200182805461162e906131c6565b801561167b5780601f106116505761010080835404028352916020019161167b565b820191906000526020600020905b81548152906001019060200180831161165e57829003601f168201915b50505050509050600061168c611c8f565b90506000815114156116a25781925050506116e5565b6000825111156116d75780826040516020016116bf929190612cd4565b604051602081830303815290604052925050506116e5565b6116e084611ca6565b925050505b919050565b600081600001549050919050565b6001816000016000828254019250508190555050565b611728828260405180602001604052806000815250611d0e565b5050565b611735826118b9565b611774576040517f08c379a000000000000000000000000000000000000000000000000000000000815260040161176b90612efe565b60405180910390fd5b8060066000848152602001908152602001600020908051906020019061179b9291906124bd565b507ff8e1a15aba9398e019f0b49df1a4fde98ee17ae345cb5f6b5e2c27f5033e8ce7826040516117cb9190612fbe565b60405180910390a15050565b60007f80ac58cd000000000000000000000000000000000000000000000000000000007bffffffffffffffffffffffffffffffffffffffffffffffffffffffff1916827bffffffffffffffffffffffffffffffffffffffffffffffffffffffff191614806118a257507f5b5e139f000000000000000000000000000000000000000000000000000000007bffffffffffffffffffffffffffffffffffffffffffffffffffffffff1916827bffffffffffffffffffffffffffffffffffffffffffffffffffffffff1916145b806118b257506118b182611d69565b5b9050919050565b60008073ffffffffffffffffffffffffffffffffffffffff166118db8361130b565b73ffffffffffffffffffffffffffffffffffffffff1614159050919050565b61190381611dd3565b6000600660008381526020019081526020016000208054611923906131c6565b90501461194a576006600082815260200190815260200160002060006119499190612543565b5b50565b600073ffffffffffffffffffffffffffffffffffffffff168473ffffffffffffffffffffffffffffffffffffffff1614806119b45750600073ffffffffffffffffffffffffffffffffffffffff168373ffffffffffffffffffffffffffffffffffffffff16145b6119f3576040517f08c379a00000000000000000000000000000000000000000000000000000000081526004016119ea90612dbe565b60405180910390fd5b50505050565b600073ffffffffffffffffffffffffffffffffffffffff168473ffffffffffffffffffffffffffffffffffffffff161415611a7757818373ffffffffffffffffffffffffffffffffffffffff167fe9274a84b19e9428826de6bae8c48329354f8f0e73f771b97cae2d9dccd45a2760405160405180910390a3611af2565b600073ffffffffffffffffffffffffffffffffffffffff168373ffffffffffffffffffffffffffffffffffffffff161415611af157818373ffffffffffffffffffffffffffffffffffffffff167fec9ab91322523c899ede7830ec9bfc992b5981cdcc27b91162fb23de5791117b60405160405180910390a35b5b50505050565b6000611b198473ffffffffffffffffffffffffffffffffffffffff16611f21565b15611c82578373ffffffffffffffffffffffffffffffffffffffff1663150b7a02611b42610c8e565b8786866040518563ffffffff1660e01b8152600401611b649493929190612d13565b602060405180830381600087803b158015611b7e57600080fd5b505af1925050508015611baf57506040513d601f19601f82011682018060405250810190611bac91906128fd565b60015b611c32573d8060008114611bdf576040519150601f19603f3d011682016040523d82523d6000602084013e611be4565b606091505b50600081511415611c2a576040517f08c379a0000000000000000000000000000000000000000000000000000000008152600401611c2190612dfe565b60405180910390fd5b805181602001fd5b63150b7a0260e01b7bffffffffffffffffffffffffffffffffffffffffffffffffffffffff1916817bffffffffffffffffffffffffffffffffffffffffffffffffffffffff191614915050611c87565b600190505b949350505050565b606060405180602001604052806000815250905090565b6060611cb182610c43565b6000611cbb611c8f565b90506000815111611cdb5760405180602001604052806000815250611d06565b80611ce584611f44565b604051602001611cf6929190612cd4565b6040516020818303038152906040525b915050919050565b611d188383612068565b611d256000848484611af8565b611d64576040517f08c379a0000000000000000000000000000000000000000000000000000000008152600401611d5b90612dfe565b60405180910390fd5b505050565b60007f01ffc9a7000000000000000000000000000000000000000000000000000000007bffffffffffffffffffffffffffffffffffffffffffffffffffffffff1916827bffffffffffffffffffffffffffffffffffffffffffffffffffffffff1916149050919050565b6000611dde8261079a565b9050611dee81600084600161194d565b611df78261079a565b90506004600083815260200190815260200160002060006101000a81549073ffffffffffffffffffffffffffffffffffffffff02191690556001600360008373ffffffffffffffffffffffffffffffffffffffff1673ffffffffffffffffffffffffffffffffffffffff168152602001908152602001600020600082825403925050819055506002600083815260200190815260200160002060006101000a81549073ffffffffffffffffffffffffffffffffffffffff021916905581600073ffffffffffffffffffffffffffffffffffffffff168273ffffffffffffffffffffffffffffffffffffffff167fddf252ad1be2c89b69c2b068fc378daa952ba7f163c4a11628f55a4df523b3ef60405160405180910390a4611f1d8160008460016119f9565b5050565b6000808273ffffffffffffffffffffffffffffffffffffffff163b119050919050565b606060006001611f5384612286565b01905060008167ffffffffffffffff811115611f98577f4e487b7100000000000000000000000000000000000000000000000000000000600052604160045260246000fd5b6040519080825280601f01601f191660200182016040528015611fca5781602001600182028036833780820191505090505b509050600082602001820190505b60011561205d578080600190039150507f3031323334353637383961626364656600000000000000000000000000000000600a86061a8153600a8581612047577f4e487b7100000000000000000000000000000000000000000000000000000000600052601260045260246000fd5b04945060008514156120585761205d565b611fd8565b819350505050919050565b600073ffffffffffffffffffffffffffffffffffffffff168273ffffffffffffffffffffffffffffffffffffffff1614156120d8576040517f08c379a00000000000000000000000000000000000000000000000000000000081526004016120cf90612f1e565b60405180910390fd5b6120e1816118b9565b15612121576040517f08c379a000000000000000000000000000000000000000000000000000000000815260040161211890612e5e565b60405180910390fd5b61212f60008383600161194d565b612138816118b9565b15612178576040517f08c379a000000000000000000000000000000000000000000000000000000000815260040161216f90612e5e565b60405180910390fd5b6001600360008473ffffffffffffffffffffffffffffffffffffffff1673ffffffffffffffffffffffffffffffffffffffff16815260200190815260200160002060008282540192505081905550816002600083815260200190815260200160002060006101000a81548173ffffffffffffffffffffffffffffffffffffffff021916908373ffffffffffffffffffffffffffffffffffffffff160217905550808273ffffffffffffffffffffffffffffffffffffffff16600073ffffffffffffffffffffffffffffffffffffffff167fddf252ad1be2c89b69c2b068fc378daa952ba7f163c4a11628f55a4df523b3ef60405160405180910390a46122826000838360016119f9565b5050565b600080600090507a184f03e93ff9f4daa797ed6e38ed64bf6a1f010000000000000000831061230a577a184f03e93ff9f4daa797ed6e38ed64bf6a1f0100000000000000008381612300577f4e487b7100000000000000000000000000000000000000000000000000000000600052601260045260246000fd5b0492506040810190505b6d04ee2d6d415b85acef8100000000831061236d576d04ee2d6d415b85acef81000000008381612363577f4e487b7100000000000000000000000000000000000000000000000000000000600052601260045260246000fd5b0492506020810190505b662386f26fc1000083106123c257662386f26fc1000083816123b8577f4e487b7100000000000000000000000000000000000000000000000000000000600052601260045260246000fd5b0492506010810190505b6305f5e1008310612411576305f5e1008381612407577f4e487b7100000000000000000000000000000000000000000000000000000000600052601260045260246000fd5b0492506008810190505b612710831061245c576127108381612452577f4e487b7100000000000000000000000000000000000000000000000000000000600052601260045260246000fd5b0492506004810190505b606483106124a5576064838161249b577f4e487b7100000000000000000000000000000000000000000000000000000000600052601260045260246000fd5b0492506002810190505b600a83106124b4576001810190505b80915050919050565b8280546124c9906131c6565b90600052602060002090601f0160209004810192826124eb5760008555612532565b82601f1061250457805160ff1916838001178555612532565b82800160010185558215612532579182015b82811115612531578251825591602001919060010190612516565b5b50905061253f9190612583565b5090565b50805461254f906131c6565b6000825580601f106125615750612580565b601f01602090049060005260206000209081019061257f9190612583565b5b50565b5b8082111561259c576000816000905550600101612584565b5090565b60006125b36125ae84612ffe565b612fd9565b9050828152602081018484840111156125cb57600080fd5b6125d6848285613184565b509392505050565b60006125f16125ec8461302f565b612fd9565b90508281526020810184848401111561260957600080fd5b612614848285613184565b509392505050565b60008135905061262b8161371c565b92915050565b60008135905061264081613733565b92915050565b6000813590506126558161374a565b92915050565b60008151905061266a8161374a565b92915050565b600082601f83011261268157600080fd5b81356126918482602086016125a0565b91505092915050565b600082601f8301126126ab57600080fd5b81356126bb8482602086016125de565b91505092915050565b6000813590506126d381613761565b92915050565b6000602082840312156126eb57600080fd5b60006126f98482850161261c565b91505092915050565b6000806040838503121561271557600080fd5b60006127238582860161261c565b92505060206127348582860161261c565b9150509250929050565b60008060006060848603121561275357600080fd5b60006127618682870161261c565b93505060206127728682870161261c565b9250506040612783868287016126c4565b9150509250925092565b600080600080608085870312156127a357600080fd5b60006127b18782880161261c565b94505060206127c28782880161261c565b93505060406127d3878288016126c4565b925050606085013567ffffffffffffffff8111156127f057600080fd5b6127fc87828801612670565b91505092959194509250565b6000806040838503121561281b57600080fd5b60006128298582860161261c565b925050602061283a85828601612631565b9150509250929050565b6000806040838503121561285757600080fd5b60006128658582860161261c565b925050602083013567ffffffffffffffff81111561288257600080fd5b61288e8582860161269a565b9150509250929050565b600080604083850312156128ab57600080fd5b60006128b98582860161261c565b92505060206128ca858286016126c4565b9150509250929050565b6000602082840312156128e657600080fd5b60006128f484828501612646565b91505092915050565b60006020828403121561290f57600080fd5b600061291d8482850161265b565b91505092915050565b60006020828403121561293857600080fd5b6000612946848285016126c4565b91505092915050565b600061295b8383612cb6565b60208301905092915050565b61297081613110565b82525050565b600061298182613070565b61298b818561309e565b935061299683613060565b8060005b838110156129c75781516129ae888261294f565b97506129b983613091565b92505060018101905061299a565b5085935050505092915050565b6129dd81613122565b82525050565b60006129ee8261307b565b6129f881856130af565b9350612a08818560208601613193565b612a11816132ff565b840191505092915050565b6000612a2782613086565b612a3181856130c0565b9350612a41818560208601613193565b612a4a816132ff565b840191505092915050565b6000612a6082613086565b612a6a81856130d1565b9350612a7a818560208601613193565b80840191505092915050565b6000612a93601d836130c0565b9150612a9e82613310565b602082019050919050565b6000612ab6602d836130c0565b9150612ac182613339565b604082019050919050565b6000612ad96032836130c0565b9150612ae482613388565b604082019050919050565b6000612afc6026836130c0565b9150612b07826133d7565b604082019050919050565b6000612b1f6025836130c0565b9150612b2a82613426565b604082019050919050565b6000612b42601c836130c0565b9150612b4d82613475565b602082019050919050565b6000612b656024836130c0565b9150612b708261349e565b604082019050919050565b6000612b886019836130c0565b9150612b93826134ed565b602082019050919050565b6000612bab6023836130c0565b9150612bb682613516565b604082019050919050565b6000612bce6029836130c0565b9150612bd982613565565b604082019050919050565b6000612bf1602e836130c0565b9150612bfc826135b4565b604082019050919050565b6000612c146020836130c0565b9150612c1f82613603565b602082019050919050565b6000612c376020836130c0565b9150612c428261362c565b602082019050919050565b6000612c5a6018836130c0565b9150612c6582613655565b602082019050919050565b6000612c7d6021836130c0565b9150612c888261367e565b604082019050919050565b6000612ca0603d836130c0565b9150612cab826136cd565b604082019050919050565b612cbf8161317a565b82525050565b612cce8161317a565b82525050565b6000612ce08285612a55565b9150612cec8284612a55565b91508190509392505050565b6000602082019050612d0d6000830184612967565b92915050565b6000608082019050612d286000830187612967565b612d356020830186612967565b612d426040830185612cc5565b8181036060830152612d5481846129e3565b905095945050505050565b60006020820190508181036000830152612d798184612976565b905092915050565b6000602082019050612d9660008301846129d4565b92915050565b60006020820190508181036000830152612db68184612a1c565b905092915050565b60006020820190508181036000830152612dd781612a86565b9050919050565b60006020820190508181036000830152612df781612aa9565b9050919050565b60006020820190508181036000830152612e1781612acc565b9050919050565b60006020820190508181036000830152612e3781612aef565b9050919050565b60006020820190508181036000830152612e5781612b12565b9050919050565b60006020820190508181036000830152612e7781612b35565b9050919050565b60006020820190508181036000830152612e9781612b58565b9050919050565b60006020820190508181036000830152612eb781612b7b565b9050919050565b60006020820190508181036000830152612ed781612b9e565b9050919050565b60006020820190508181036000830152612ef781612bc1565b9050919050565b60006020820190508181036000830152612f1781612be4565b9050919050565b60006020820190508181036000830152612f3781612c07565b9050919050565b60006020820190508181036000830152612f5781612c2a565b9050919050565b60006020820190508181036000830152612f7781612c4d565b9050919050565b60006020820190508181036000830152612f9781612c70565b9050919050565b60006020820190508181036000830152612fb781612c93565b9050919050565b6000602082019050612fd36000830184612cc5565b92915050565b6000612fe3612ff4565b9050612fef82826131f8565b919050565b6000604051905090565b600067ffffffffffffffff821115613019576130186132d0565b5b613022826132ff565b9050602081019050919050565b600067ffffffffffffffff82111561304a576130496132d0565b5b613053826132ff565b9050602081019050919050565b6000819050602082019050919050565b600081519050919050565b600081519050919050565b600081519050919050565b6000602082019050919050565b600082825260208201905092915050565b600082825260208201905092915050565b600082825260208201905092915050565b600081905092915050565b60006130e78261317a565b91506130f28361317a565b92508282101561310557613104613272565b5b828203905092915050565b600061311b8261315a565b9050919050565b60008115159050919050565b60007fffffffff0000000000000000000000000000000000000000000000000000000082169050919050565b600073ffffffffffffffffffffffffffffffffffffffff82169050919050565b6000819050919050565b82818337600083830152505050565b60005b838110156131b1578082015181840152602081019050613196565b838111156131c0576000848401525b50505050565b600060028204905060018216806131de57607f821691505b602082108114156131f2576131f16132a1565b5b50919050565b613201826132ff565b810181811067ffffffffffffffff821117156132205761321f6132d0565b5b80604052505050565b60006132348261317a565b91507fffffffffffffffffffffffffffffffffffffffffffffffffffffffffffffffff82141561326757613266613272565b5b600182019050919050565b7f4e487b7100000000000000000000000000000000000000000000000000000000600052601160045260246000fd5b7f4e487b7100000000000000000000000000000000000000000000000000000000600052602260045260246000fd5b7f4e487b7100000000000000000000000000000000000000000000000000000000600052604160045260246000fd5b6000601f19601f8301169050919050565b7f4e6f7420616c6c6f77656420746f207472616e7366657220746f6b656e000000600082015250565b7f4552433732313a2063616c6c6572206973206e6f7420746f6b656e206f776e6560008201527f72206f7220617070726f76656400000000000000000000000000000000000000602082015250565b7f4552433732313a207472616e7366657220746f206e6f6e20455243373231526560008201527f63656976657220696d706c656d656e7465720000000000000000000000000000602082015250565b7f4f776e61626c653a206e6577206f776e657220697320746865207a65726f206160008201527f6464726573730000000000000000000000000000000000000000000000000000602082015250565b7f4552433732313a207472616e736665722066726f6d20696e636f72726563742060008201527f6f776e6572000000000000000000000000000000000000000000000000000000602082015250565b7f4552433732313a20746f6b656e20616c7265616479206d696e74656400000000600082015250565b7f4552433732313a207472616e7366657220746f20746865207a65726f2061646460008201527f7265737300000000000000000000000000000000000000000000000000000000602082015250565b7f4552433732313a20617070726f766520746f2063616c6c657200000000000000600082015250565b7f4f6e6c79206f776e6572206f662074686520746f6b656e2063616e206275726e60008201527f2069740000000000000000000000000000000000000000000000000000000000602082015250565b7f4552433732313a2061646472657373207a65726f206973206e6f74206120766160008201527f6c6964206f776e65720000000000000000000000000000000000000000000000602082015250565b7f45524337323155524953746f726167653a2055524920736574206f66206e6f6e60008201527f6578697374656e7420746f6b656e000000000000000000000000000000000000602082015250565b7f4552433732313a206d696e7420746f20746865207a65726f2061646472657373600082015250565b7f4f776e61626c653a2063616c6c6572206973206e6f7420746865206f776e6572600082015250565b7f4552433732313a20696e76616c696420746f6b656e2049440000000000000000600082015250565b7f4552433732313a20617070726f76616c20746f2063757272656e74206f776e6560008201527f7200000000000000000000000000000000000000000000000000000000000000602082015250565b7f4552433732313a20617070726f76652063616c6c6572206973206e6f7420746f60008201527f6b656e206f776e6572206f7220617070726f76656420666f7220616c6c000000602082015250565b61372581613110565b811461373057600080fd5b50565b61373c81613122565b811461374757600080fd5b50565b6137538161312e565b811461375e57600080fd5b50565b61376a8161317a565b811461377557600080fd5b5056fea26469706673582212203e37996d7eff9cc94d7ae644dd33daae8af2835773f55675701747063de39f5e64736f6c63430008040033",
  "linkReferences": {},
  "deployedLinkReferences": {}
}