{
  "_format": "hh-sol-artifact-1",
  "contractName": "NFT_Badge_Provider",
  "sourceName": "contracts/NFT_Badge_Provider.sol",
  "abi": [
    {
      "inputs": [],
      "stateMutability": "nonpayable",
      "type": "constructor"
    },
    {
      "anonymous": false,
      "inputs": [
        {
          "indexed": true,
          "internalType": "address",
          "name": "owner",
          "type": "address"
        },
        {
          "indexed": true,
          "internalType": "address",
          "name": "approved",
          "type": "address"
        },
        {
          "indexed": true,
          "internalType": "uint256",
          "name": "tokenId",
          "type": "uint256"
        }
      ],
      "name": "Approval",
      "type": "event"
    },
    {
      "anonymous": false,
      "inputs": [
        {
          "indexed": true,
          "internalType": "address",
          "name": "owner",
          "type": "address"
        },
        {
          "indexed": true,
          "internalType": "address",
          "name": "operator",
          "type": "address"
        },
        {
          "indexed": false,
          "internalType": "bool",
          "name": "approved",
          "type": "bool"
        }
      ],
      "name": "ApprovalForAll",
      "type": "event"
    },
    {
      "anonymous": false,
      "inputs": [
        {
          "indexed": false,
          "internalType": "uint256",
          "name": "_fromTokenId",
          "type": "uint256"
        },
        {
          "indexed": false,
          "internalType": "uint256",
          "name": "_toTokenId",
          "type": "uint256"
        }
      ],
      "name": "BatchMetadataUpdate",
      "type": "event"
    },
    {
      "anonymous": false,
      "inputs": [
        {
          "indexed": false,
          "internalType": "uint256",
          "name": "_tokenId",
          "type": "uint256"
        }
      ],
      "name": "MetadataUpdate",
      "type": "event"
    },
    {
      "anonymous": false,
      "inputs": [
        {
          "indexed": true,
          "internalType": "address",
          "name": "previousOwner",
          "type": "address"
        },
        {
          "indexed": true,
          "internalType": "address",
          "name": "newOwner",
          "type": "address"
        }
      ],
      "name": "OwnershipTransferred",
      "type": "event"
    },
    {
      "anonymous": false,
      "inputs": [
        {
          "indexed": true,
          "internalType": "address",
          "name": "from",
          "type": "address"
        },
        {
          "indexed": true,
          "internalType": "address",
          "name": "to",
          "type": "address"
        },
        {
          "indexed": true,
          "internalType": "uint256",
          "name": "tokenId",
          "type": "uint256"
        }
      ],
      "name": "Transfer",
      "type": "event"
    },
    {
      "inputs": [
        {
          "internalType": "address",
          "name": "to",
          "type": "address"
        },
        {
          "internalType": "uint256",
          "name": "tokenId",
          "type": "uint256"
        }
      ],
      "name": "approve",
      "outputs": [],
      "stateMutability": "nonpayable",
      "type": "function"
    },
    {
      "inputs": [
        {
          "internalType": "address",
          "name": "owner",
          "type": "address"
        }
      ],
      "name": "balanceOf",
      "outputs": [
        {
          "internalType": "uint256",
          "name": "",
          "type": "uint256"
        }
      ],
      "stateMutability": "view",
      "type": "function"
    },
    {
      "inputs": [
        {
          "internalType": "uint256",
          "name": "tokenId",
          "type": "uint256"
        }
      ],
      "name": "burn",
      "outputs": [],
      "stateMutability": "nonpayable",
      "type": "function"
    },
    {
      "inputs": [
        {
          "internalType": "uint256",
          "name": "tokenId",
          "type": "uint256"
        }
      ],
      "name": "getApproved",
      "outputs": [
        {
          "internalType": "address",
          "name": "",
          "type": "address"
        }
      ],
      "stateMutability": "view",
      "type": "function"
    },
    {
      "inputs": [
        {
          "internalType": "address",
          "name": "owner",
          "type": "address"
        },
        {
          "internalType": "address",
          "name": "operator",
          "type": "address"
        }
      ],
      "name": "isApprovedForAll",
      "outputs": [
        {
          "internalType": "bool",
          "name": "",
          "type": "bool"
        }
      ],
      "stateMutability": "view",
      "type": "function"
    },
    {
      "inputs": [],
      "name": "name",
      "outputs": [
        {
          "internalType": "string",
          "name": "",
          "type": "string"
        }
      ],
      "stateMutability": "view",
      "type": "function"
    },
    {
      "inputs": [],
      "name": "owner",
      "outputs": [
        {
          "internalType": "address",
          "name": "",
          "type": "address"
        }
      ],
      "stateMutability": "view",
      "type": "function"
    },
    {
      "inputs": [
        {
          "internalType": "uint256",
          "name": "tokenId",
          "type": "uint256"
        }
      ],
      "name": "ownerOf",
      "outputs": [
        {
          "internalType": "address",
          "name": "",
          "type": "address"
        }
      ],
      "stateMutability": "view",
      "type": "function"
    },
    {
      "inputs": [],
      "name": "renounceOwnership",
      "outputs": [],
      "stateMutability": "nonpayable",
      "type": "function"
    },
    {
      "inputs": [
        {
          "internalType": "address",
          "name": "to",
          "type": "address"
        },
        {
          "internalType": "string",
          "name": "uri",
          "type": "string"
        }
      ],
      "name": "safeMint",
      "outputs": [],
      "stateMutability": "nonpayable",
      "type": "function"
    },
    {
      "inputs": [
        {
          "internalType": "address",
          "name": "from",
          "type": "address"
        },
        {
          "internalType": "address",
          "name": "to",
          "type": "address"
        },
        {
          "internalType": "uint256",
          "name": "tokenId",
          "type": "uint256"
        }
      ],
      "name": "safeTransferFrom",
      "outputs": [],
      "stateMutability": "nonpayable",
      "type": "function"
    },
    {
      "inputs": [
        {
          "internalType": "address",
          "name": "from",
          "type": "address"
        },
        {
          "internalType": "address",
          "name": "to",
          "type": "address"
        },
        {
          "internalType": "uint256",
          "name": "tokenId",
          "type": "uint256"
        },
        {
          "internalType": "bytes",
          "name": "data",
          "type": "bytes"
        }
      ],
      "name": "safeTransferFrom",
      "outputs": [],
      "stateMutability": "nonpayable",
      "type": "function"
    },
    {
      "inputs": [
        {
          "internalType": "address",
          "name": "operator",
          "type": "address"
        },
        {
          "internalType": "bool",
          "name": "approved",
          "type": "bool"
        }
      ],
      "name": "setApprovalForAll",
      "outputs": [],
      "stateMutability": "nonpayable",
      "type": "function"
    },
    {
      "inputs": [
        {
          "internalType": "bytes4",
          "name": "interfaceId",
          "type": "bytes4"
        }
      ],
      "name": "supportsInterface",
      "outputs": [
        {
          "internalType": "bool",
          "name": "",
          "type": "bool"
        }
      ],
      "stateMutability": "view",
      "type": "function"
    },
    {
      "inputs": [],
      "name": "symbol",
      "outputs": [
        {
          "internalType": "string",
          "name": "",
          "type": "string"
        }
      ],
      "stateMutability": "view",
      "type": "function"
    },
    {
      "inputs": [
        {
          "internalType": "uint256",
          "name": "tokenId",
          "type": "uint256"
        }
      ],
      "name": "tokenURI",
      "outputs": [
        {
          "internalType": "string",
          "name": "",
          "type": "string"
        }
      ],
      "stateMutability": "view",
      "type": "function"
    },
    {
      "inputs": [
        {
          "internalType": "address",
          "name": "from",
          "type": "address"
        },
        {
          "internalType": "address",
          "name": "to",
          "type": "address"
        },
        {
          "internalType": "uint256",
          "name": "tokenId",
          "type": "uint256"
        }
      ],
      "name": "transferFrom",
      "outputs": [],
      "stateMutability": "nonpayable",
      "type": "function"
    },
    {
      "inputs": [
        {
          "internalType": "address",
          "name": "newOwner",
          "type": "address"
        }
      ],
      "name": "transferOwnership",
      "outputs": [],
      "stateMutability": "nonpayable",
      "type": "function"
    }
  ],
  "bytecode": "0x60806040523480156200001157600080fd5b506040518060400160405280601281526020017f436c6f756450726f7669646572426164676500000000000000000000000000008152506040518060400160405280600281526020017f4350000000000000000000000000000000000000000000000000000000000000815250816000908051906020019062000096929190620001a6565b508060019080519060200190620000af929190620001a6565b505050620000d2620000c6620000d860201b60201c565b620000e060201b60201c565b620002bb565b600033905090565b6000600760009054906101000a900473ffffffffffffffffffffffffffffffffffffffff16905081600760006101000a81548173ffffffffffffffffffffffffffffffffffffffff021916908373ffffffffffffffffffffffffffffffffffffffff1602179055508173ffffffffffffffffffffffffffffffffffffffff168173ffffffffffffffffffffffffffffffffffffffff167f8be0079c531659141344cd1fd0a4f28419497f9722a3daafe3b4186f6b6457e060405160405180910390a35050565b828054620001b49062000256565b90600052602060002090601f016020900481019282620001d8576000855562000224565b82601f10620001f357805160ff191683800117855562000224565b8280016001018555821562000224579182015b828111156200022357825182559160200191906001019062000206565b5b50905062000233919062000237565b5090565b5b808211156200025257600081600090555060010162000238565b5090565b600060028204905060018216806200026f57607f821691505b602082108114156200028657620002856200028c565b5b50919050565b7f4e487b7100000000000000000000000000000000000000000000000000000000600052602260045260246000fd5b61320880620002cb6000396000f3fe608060405234801561001057600080fd5b50600436106101165760003560e01c8063715018a6116100a2578063b88d4fde11610071578063b88d4fde146102cb578063c87b56dd146102e7578063d204c45e14610317578063e985e9c514610333578063f2fde38b1461036357610116565b8063715018a6146102695780638da5cb5b1461027357806395d89b4114610291578063a22cb465146102af57610116565b806323b872dd116100e957806323b872dd146101b557806342842e0e146101d157806342966c68146101ed5780636352211e1461020957806370a082311461023957610116565b806301ffc9a71461011b57806306fdde031461014b578063081812fc14610169578063095ea7b314610199575b600080fd5b610135600480360381019061013091906124ba565b61037f565b60405161014291906128c0565b60405180910390f35b6101536103e0565b60405161016091906128db565b60405180910390f35b610183600480360381019061017e919061250c565b610472565b6040516101909190612859565b60405180910390f35b6101b360048036038101906101ae919061247e565b6104b8565b005b6101cf60048036038101906101ca9190612324565b6105d0565b005b6101eb60048036038101906101e69190612324565b610630565b005b6102076004803603810190610202919061250c565b610650565b005b610223600480360381019061021e919061250c565b6106d2565b6040516102309190612859565b60405180910390f35b610253600480360381019061024e91906122bf565b610759565b6040516102609190612afd565b60405180910390f35b610271610811565b005b61027b610825565b6040516102889190612859565b60405180910390f35b61029961084f565b6040516102a691906128db565b60405180910390f35b6102c960048036038101906102c491906123ee565b6108e1565b005b6102e560048036038101906102e09190612373565b6108f7565b005b61030160048036038101906102fc919061250c565b610959565b60405161030e91906128db565b60405180910390f35b610331600480360381019061032c919061242a565b610a6c565b005b61034d600480360381019061034891906122e8565b610aa5565b60405161035a91906128c0565b60405180910390f35b61037d600480360381019061037891906122bf565b610b39565b005b6000634906490660e01b7bffffffffffffffffffffffffffffffffffffffffffffffffffffffff1916827bffffffffffffffffffffffffffffffffffffffffffffffffffffffff191614806103d957506103d882610bbd565b5b9050919050565b6060600080546103ef90612c98565b80601f016020809104026020016040519081016040528092919081815260200182805461041b90612c98565b80156104685780601f1061043d57610100808354040283529160200191610468565b820191906000526020600020905b81548152906001019060200180831161044b57829003601f168201915b5050505050905090565b600061047d82610c9f565b6004600083815260200190815260200160002060009054906101000a900473ffffffffffffffffffffffffffffffffffffffff169050919050565b60006104c3826106d2565b90508073ffffffffffffffffffffffffffffffffffffffff168373ffffffffffffffffffffffffffffffffffffffff161415610534576040517f08c379a000000000000000000000000000000000000000000000000000000000815260040161052b90612abd565b60405180910390fd5b8073ffffffffffffffffffffffffffffffffffffffff16610553610cea565b73ffffffffffffffffffffffffffffffffffffffff16148061058257506105818161057c610cea565b610aa5565b5b6105c1576040517f08c379a00000000000000000000000000000000000000000000000000000000081526004016105b890612add565b60405180910390fd5b6105cb8383610cf2565b505050565b6105e16105db610cea565b82610dab565b610620576040517f08c379a0000000000000000000000000000000000000000000000000000000008152600401610617906128fd565b60405180910390fd5b61062b838383610e40565b505050565b61064b838383604051806020016040528060008152506108f7565b505050565b3373ffffffffffffffffffffffffffffffffffffffff16610670826106d2565b73ffffffffffffffffffffffffffffffffffffffff16146106c6576040517f08c379a00000000000000000000000000000000000000000000000000000000081526004016106bd906129dd565b60405180910390fd5b6106cf8161113a565b50565b6000806106de8361114f565b9050600073ffffffffffffffffffffffffffffffffffffffff168173ffffffffffffffffffffffffffffffffffffffff161415610750576040517f08c379a000000000000000000000000000000000000000000000000000000000815260040161074790612a9d565b60405180910390fd5b80915050919050565b60008073ffffffffffffffffffffffffffffffffffffffff168273ffffffffffffffffffffffffffffffffffffffff1614156107ca576040517f08c379a00000000000000000000000000000000000000000000000000000000081526004016107c1906129fd565b60405180910390fd5b600360008373ffffffffffffffffffffffffffffffffffffffff1673ffffffffffffffffffffffffffffffffffffffff168152602001908152602001600020549050919050565b61081961118c565b610823600061120a565b565b6000600760009054906101000a900473ffffffffffffffffffffffffffffffffffffffff16905090565b60606001805461085e90612c98565b80601f016020809104026020016040519081016040528092919081815260200182805461088a90612c98565b80156108d75780601f106108ac576101008083540402835291602001916108d7565b820191906000526020600020905b8154815290600101906020018083116108ba57829003601f168201915b5050505050905090565b6108f36108ec610cea565b83836112d0565b5050565b610908610902610cea565b83610dab565b610947576040517f08c379a000000000000000000000000000000000000000000000000000000000815260040161093e906128fd565b60405180910390fd5b6109538484848461143d565b50505050565b606061096482610c9f565b600060066000848152602001908152602001600020805461098490612c98565b80601f01602080910402602001604051908101604052809291908181526020018280546109b090612c98565b80156109fd5780601f106109d2576101008083540402835291602001916109fd565b820191906000526020600020905b8154815290600101906020018083116109e057829003601f168201915b505050505090506000610a0e611499565b9050600081511415610a24578192505050610a67565b600082511115610a59578082604051602001610a41929190612835565b60405160208183030381529060405292505050610a67565b610a62846114b0565b925050505b919050565b610a7461118c565b6000610a806008611518565b9050610a8c6008611526565b610a96838261153c565b610aa0818361155a565b505050565b6000600560008473ffffffffffffffffffffffffffffffffffffffff1673ffffffffffffffffffffffffffffffffffffffff16815260200190815260200160002060008373ffffffffffffffffffffffffffffffffffffffff1673ffffffffffffffffffffffffffffffffffffffff16815260200190815260200160002060009054906101000a900460ff16905092915050565b610b4161118c565b600073ffffffffffffffffffffffffffffffffffffffff168173ffffffffffffffffffffffffffffffffffffffff161415610bb1576040517f08c379a0000000000000000000000000000000000000000000000000000000008152600401610ba89061293d565b60405180910390fd5b610bba8161120a565b50565b60007f80ac58cd000000000000000000000000000000000000000000000000000000007bffffffffffffffffffffffffffffffffffffffffffffffffffffffff1916827bffffffffffffffffffffffffffffffffffffffffffffffffffffffff19161480610c8857507f5b5e139f000000000000000000000000000000000000000000000000000000007bffffffffffffffffffffffffffffffffffffffffffffffffffffffff1916827bffffffffffffffffffffffffffffffffffffffffffffffffffffffff1916145b80610c985750610c9782611605565b5b9050919050565b610ca88161166f565b610ce7576040517f08c379a0000000000000000000000000000000000000000000000000000000008152600401610cde90612a9d565b60405180910390fd5b50565b600033905090565b816004600083815260200190815260200160002060006101000a81548173ffffffffffffffffffffffffffffffffffffffff021916908373ffffffffffffffffffffffffffffffffffffffff160217905550808273ffffffffffffffffffffffffffffffffffffffff16610d65836106d2565b73ffffffffffffffffffffffffffffffffffffffff167f8c5be1e5ebec7d5bd14f71427d1e84f3dd0314c0f7b2291e5b200ac8c7c3b92560405160405180910390a45050565b600080610db7836106d2565b90508073ffffffffffffffffffffffffffffffffffffffff168473ffffffffffffffffffffffffffffffffffffffff161480610df95750610df88185610aa5565b5b80610e3757508373ffffffffffffffffffffffffffffffffffffffff16610e1f84610472565b73ffffffffffffffffffffffffffffffffffffffff16145b91505092915050565b8273ffffffffffffffffffffffffffffffffffffffff16610e60826106d2565b73ffffffffffffffffffffffffffffffffffffffff1614610eb6576040517f08c379a0000000000000000000000000000000000000000000000000000000008152600401610ead9061295d565b60405180910390fd5b600073ffffffffffffffffffffffffffffffffffffffff168273ffffffffffffffffffffffffffffffffffffffff161415610f26576040517f08c379a0000000000000000000000000000000000000000000000000000000008152600401610f1d9061299d565b60405180910390fd5b610f3383838360016116b0565b8273ffffffffffffffffffffffffffffffffffffffff16610f53826106d2565b73ffffffffffffffffffffffffffffffffffffffff1614610fa9576040517f08c379a0000000000000000000000000000000000000000000000000000000008152600401610fa09061295d565b60405180910390fd5b6004600082815260200190815260200160002060006101000a81549073ffffffffffffffffffffffffffffffffffffffff02191690556001600360008573ffffffffffffffffffffffffffffffffffffffff1673ffffffffffffffffffffffffffffffffffffffff168152602001908152602001600020600082825403925050819055506001600360008473ffffffffffffffffffffffffffffffffffffffff1673ffffffffffffffffffffffffffffffffffffffff16815260200190815260200160002060008282540192505081905550816002600083815260200190815260200160002060006101000a81548173ffffffffffffffffffffffffffffffffffffffff021916908373ffffffffffffffffffffffffffffffffffffffff160217905550808273ffffffffffffffffffffffffffffffffffffffff168473ffffffffffffffffffffffffffffffffffffffff167fddf252ad1be2c89b69c2b068fc378daa952ba7f163c4a11628f55a4df523b3ef60405160405180910390a46111358383836001611768565b505050565b6111438161176e565b61114c8161113a565b50565b60006002600083815260200190815260200160002060009054906101000a900473ffffffffffffffffffffffffffffffffffffffff169050919050565b611194610cea565b73ffffffffffffffffffffffffffffffffffffffff166111b2610825565b73ffffffffffffffffffffffffffffffffffffffff1614611208576040517f08c379a00000000000000000000000000000000000000000000000000000000081526004016111ff90612a7d565b60405180910390fd5b565b6000600760009054906101000a900473ffffffffffffffffffffffffffffffffffffffff16905081600760006101000a81548173ffffffffffffffffffffffffffffffffffffffff021916908373ffffffffffffffffffffffffffffffffffffffff1602179055508173ffffffffffffffffffffffffffffffffffffffff168173ffffffffffffffffffffffffffffffffffffffff167f8be0079c531659141344cd1fd0a4f28419497f9722a3daafe3b4186f6b6457e060405160405180910390a35050565b8173ffffffffffffffffffffffffffffffffffffffff168373ffffffffffffffffffffffffffffffffffffffff16141561133f576040517f08c379a0000000000000000000000000000000000000000000000000000000008152600401611336906129bd565b60405180910390fd5b80600560008573ffffffffffffffffffffffffffffffffffffffff1673ffffffffffffffffffffffffffffffffffffffff16815260200190815260200160002060008473ffffffffffffffffffffffffffffffffffffffff1673ffffffffffffffffffffffffffffffffffffffff16815260200190815260200160002060006101000a81548160ff0219169083151502179055508173ffffffffffffffffffffffffffffffffffffffff168373ffffffffffffffffffffffffffffffffffffffff167f17307eab39ab6107e8899845ad3d59bd9653f200f220920489ca2b5937696c318360405161143091906128c0565b60405180910390a3505050565b611448848484610e40565b611454848484846117c1565b611493576040517f08c379a000000000000000000000000000000000000000000000000000000000815260040161148a9061291d565b60405180910390fd5b50505050565b606060405180602001604052806000815250905090565b60606114bb82610c9f565b60006114c5611499565b905060008151116114e55760405180602001604052806000815250611510565b806114ef84611958565b604051602001611500929190612835565b6040516020818303038152906040525b915050919050565b600081600001549050919050565b6001816000016000828254019250508190555050565b611556828260405180602001604052806000815250611a7c565b5050565b6115638261166f565b6115a2576040517f08c379a000000000000000000000000000000000000000000000000000000000815260040161159990612a1d565b60405180910390fd5b806006600084815260200190815260200160002090805190602001906115c99291906120a3565b507ff8e1a15aba9398e019f0b49df1a4fde98ee17ae345cb5f6b5e2c27f5033e8ce7826040516115f99190612afd565b60405180910390a15050565b60007f01ffc9a7000000000000000000000000000000000000000000000000000000007bffffffffffffffffffffffffffffffffffffffffffffffffffffffff1916827bffffffffffffffffffffffffffffffffffffffffffffffffffffffff1916149050919050565b60008073ffffffffffffffffffffffffffffffffffffffff166116918361114f565b73ffffffffffffffffffffffffffffffffffffffff1614159050919050565b600073ffffffffffffffffffffffffffffffffffffffff168473ffffffffffffffffffffffffffffffffffffffff1614806117175750600073ffffffffffffffffffffffffffffffffffffffff168373ffffffffffffffffffffffffffffffffffffffff16145b611756576040517f08c379a000000000000000000000000000000000000000000000000000000000815260040161174d90612a3d565b60405180910390fd5b61176284848484611ad7565b50505050565b50505050565b61177781611add565b600060066000838152602001908152602001600020805461179790612c98565b9050146117be576006600082815260200190815260200160002060006117bd9190612129565b5b50565b60006117e28473ffffffffffffffffffffffffffffffffffffffff16611c2b565b1561194b578373ffffffffffffffffffffffffffffffffffffffff1663150b7a0261180b610cea565b8786866040518563ffffffff1660e01b815260040161182d9493929190612874565b602060405180830381600087803b15801561184757600080fd5b505af192505050801561187857506040513d601f19601f8201168201806040525081019061187591906124e3565b60015b6118fb573d80600081146118a8576040519150601f19603f3d011682016040523d82523d6000602084013e6118ad565b606091505b506000815114156118f3576040517f08c379a00000000000000000000000000000000000000000000000000000000081526004016118ea9061291d565b60405180910390fd5b805181602001fd5b63150b7a0260e01b7bffffffffffffffffffffffffffffffffffffffffffffffffffffffff1916817bffffffffffffffffffffffffffffffffffffffffffffffffffffffff191614915050611950565b600190505b949350505050565b60606000600161196784611c4e565b01905060008167ffffffffffffffff8111156119ac577f4e487b7100000000000000000000000000000000000000000000000000000000600052604160045260246000fd5b6040519080825280601f01601f1916602001820160405280156119de5781602001600182028036833780820191505090505b509050600082602001820190505b600115611a71578080600190039150507f3031323334353637383961626364656600000000000000000000000000000000600a86061a8153600a8581611a5b577f4e487b7100000000000000000000000000000000000000000000000000000000600052601260045260246000fd5b0494506000851415611a6c57611a71565b6119ec565b819350505050919050565b611a868383611e85565b611a9360008484846117c1565b611ad2576040517f08c379a0000000000000000000000000000000000000000000000000000000008152600401611ac99061291d565b60405180910390fd5b505050565b50505050565b6000611ae8826106d2565b9050611af88160008460016116b0565b611b01826106d2565b90506004600083815260200190815260200160002060006101000a81549073ffffffffffffffffffffffffffffffffffffffff02191690556001600360008373ffffffffffffffffffffffffffffffffffffffff1673ffffffffffffffffffffffffffffffffffffffff168152602001908152602001600020600082825403925050819055506002600083815260200190815260200160002060006101000a81549073ffffffffffffffffffffffffffffffffffffffff021916905581600073ffffffffffffffffffffffffffffffffffffffff168273ffffffffffffffffffffffffffffffffffffffff167fddf252ad1be2c89b69c2b068fc378daa952ba7f163c4a11628f55a4df523b3ef60405160405180910390a4611c27816000846001611768565b5050565b6000808273ffffffffffffffffffffffffffffffffffffffff163b119050919050565b600080600090507a184f03e93ff9f4daa797ed6e38ed64bf6a1f0100000000000000008310611cd2577a184f03e93ff9f4daa797ed6e38ed64bf6a1f0100000000000000008381611cc8577f4e487b7100000000000000000000000000000000000000000000000000000000600052601260045260246000fd5b0492506040810190505b6d04ee2d6d415b85acef81000000008310611d35576d04ee2d6d415b85acef81000000008381611d2b577f4e487b7100000000000000000000000000000000000000000000000000000000600052601260045260246000fd5b0492506020810190505b662386f26fc100008310611d8a57662386f26fc100008381611d80577f4e487b7100000000000000000000000000000000000000000000000000000000600052601260045260246000fd5b0492506010810190505b6305f5e1008310611dd9576305f5e1008381611dcf577f4e487b7100000000000000000000000000000000000000000000000000000000600052601260045260246000fd5b0492506008810190505b6127108310611e24576127108381611e1a577f4e487b7100000000000000000000000000000000000000000000000000000000600052601260045260246000fd5b0492506004810190505b60648310611e6d5760648381611e63577f4e487b7100000000000000000000000000000000000000000000000000000000600052601260045260246000fd5b0492506002810190505b600a8310611e7c576001810190505b80915050919050565b600073ffffffffffffffffffffffffffffffffffffffff168273ffffffffffffffffffffffffffffffffffffffff161415611ef5576040517f08c379a0000000000000000000000000000000000000000000000000000000008152600401611eec90612a5d565b60405180910390fd5b611efe8161166f565b15611f3e576040517f08c379a0000000000000000000000000000000000000000000000000000000008152600401611f359061297d565b60405180910390fd5b611f4c6000838360016116b0565b611f558161166f565b15611f95576040517f08c379a0000000000000000000000000000000000000000000000000000000008152600401611f8c9061297d565b60405180910390fd5b6001600360008473ffffffffffffffffffffffffffffffffffffffff1673ffffffffffffffffffffffffffffffffffffffff16815260200190815260200160002060008282540192505081905550816002600083815260200190815260200160002060006101000a81548173ffffffffffffffffffffffffffffffffffffffff021916908373ffffffffffffffffffffffffffffffffffffffff160217905550808273ffffffffffffffffffffffffffffffffffffffff16600073ffffffffffffffffffffffffffffffffffffffff167fddf252ad1be2c89b69c2b068fc378daa952ba7f163c4a11628f55a4df523b3ef60405160405180910390a461209f600083836001611768565b5050565b8280546120af90612c98565b90600052602060002090601f0160209004810192826120d15760008555612118565b82601f106120ea57805160ff1916838001178555612118565b82800160010185558215612118579182015b828111156121175782518255916020019190600101906120fc565b5b5090506121259190612169565b5090565b50805461213590612c98565b6000825580601f106121475750612166565b601f0160209004906000526020600020908101906121659190612169565b5b50565b5b8082111561218257600081600090555060010161216a565b5090565b600061219961219484612b3d565b612b18565b9050828152602081018484840111156121b157600080fd5b6121bc848285612c56565b509392505050565b60006121d76121d284612b6e565b612b18565b9050828152602081018484840111156121ef57600080fd5b6121fa848285612c56565b509392505050565b60008135905061221181613176565b92915050565b6000813590506122268161318d565b92915050565b60008135905061223b816131a4565b92915050565b600081519050612250816131a4565b92915050565b600082601f83011261226757600080fd5b8135612277848260208601612186565b91505092915050565b600082601f83011261229157600080fd5b81356122a18482602086016121c4565b91505092915050565b6000813590506122b9816131bb565b92915050565b6000602082840312156122d157600080fd5b60006122df84828501612202565b91505092915050565b600080604083850312156122fb57600080fd5b600061230985828601612202565b925050602061231a85828601612202565b9150509250929050565b60008060006060848603121561233957600080fd5b600061234786828701612202565b935050602061235886828701612202565b9250506040612369868287016122aa565b9150509250925092565b6000806000806080858703121561238957600080fd5b600061239787828801612202565b94505060206123a887828801612202565b93505060406123b9878288016122aa565b925050606085013567ffffffffffffffff8111156123d657600080fd5b6123e287828801612256565b91505092959194509250565b6000806040838503121561240157600080fd5b600061240f85828601612202565b925050602061242085828601612217565b9150509250929050565b6000806040838503121561243d57600080fd5b600061244b85828601612202565b925050602083013567ffffffffffffffff81111561246857600080fd5b61247485828601612280565b9150509250929050565b6000806040838503121561249157600080fd5b600061249f85828601612202565b92505060206124b0858286016122aa565b9150509250929050565b6000602082840312156124cc57600080fd5b60006124da8482850161222c565b91505092915050565b6000602082840312156124f557600080fd5b600061250384828501612241565b91505092915050565b60006020828403121561251e57600080fd5b600061252c848285016122aa565b91505092915050565b61253e81612be2565b82525050565b61254d81612bf4565b82525050565b600061255e82612b9f565b6125688185612bb5565b9350612578818560208601612c65565b61258181612d59565b840191505092915050565b600061259782612baa565b6125a18185612bc6565b93506125b1818560208601612c65565b6125ba81612d59565b840191505092915050565b60006125d082612baa565b6125da8185612bd7565b93506125ea818560208601612c65565b80840191505092915050565b6000612603602d83612bc6565b915061260e82612d6a565b604082019050919050565b6000612626603283612bc6565b915061263182612db9565b604082019050919050565b6000612649602683612bc6565b915061265482612e08565b604082019050919050565b600061266c602583612bc6565b915061267782612e57565b604082019050919050565b600061268f601c83612bc6565b915061269a82612ea6565b602082019050919050565b60006126b2602483612bc6565b91506126bd82612ecf565b604082019050919050565b60006126d5601983612bc6565b91506126e082612f1e565b602082019050919050565b60006126f8602883612bc6565b915061270382612f47565b604082019050919050565b600061271b602983612bc6565b915061272682612f96565b604082019050919050565b600061273e602e83612bc6565b915061274982612fe5565b604082019050919050565b6000612761601983612bc6565b915061276c82613034565b602082019050919050565b6000612784602083612bc6565b915061278f8261305d565b602082019050919050565b60006127a7602083612bc6565b91506127b282613086565b602082019050919050565b60006127ca601883612bc6565b91506127d5826130af565b602082019050919050565b60006127ed602183612bc6565b91506127f8826130d8565b604082019050919050565b6000612810603d83612bc6565b915061281b82613127565b604082019050919050565b61282f81612c4c565b82525050565b600061284182856125c5565b915061284d82846125c5565b91508190509392505050565b600060208201905061286e6000830184612535565b92915050565b60006080820190506128896000830187612535565b6128966020830186612535565b6128a36040830185612826565b81810360608301526128b58184612553565b905095945050505050565b60006020820190506128d56000830184612544565b92915050565b600060208201905081810360008301526128f5818461258c565b905092915050565b60006020820190508181036000830152612916816125f6565b9050919050565b6000602082019050818103600083015261293681612619565b9050919050565b600060208201905081810360008301526129568161263c565b9050919050565b600060208201905081810360008301526129768161265f565b9050919050565b6000602082019050818103600083015261299681612682565b9050919050565b600060208201905081810360008301526129b6816126a5565b9050919050565b600060208201905081810360008301526129d6816126c8565b9050919050565b600060208201905081810360008301526129f6816126eb565b9050919050565b60006020820190508181036000830152612a168161270e565b9050919050565b60006020820190508181036000830152612a3681612731565b9050919050565b60006020820190508181036000830152612a5681612754565b9050919050565b60006020820190508181036000830152612a7681612777565b9050919050565b60006020820190508181036000830152612a968161279a565b9050919050565b60006020820190508181036000830152612ab6816127bd565b9050919050565b60006020820190508181036000830152612ad6816127e0565b9050919050565b60006020820190508181036000830152612af681612803565b9050919050565b6000602082019050612b126000830184612826565b92915050565b6000612b22612b33565b9050612b2e8282612cca565b919050565b6000604051905090565b600067ffffffffffffffff821115612b5857612b57612d2a565b5b612b6182612d59565b9050602081019050919050565b600067ffffffffffffffff821115612b8957612b88612d2a565b5b612b9282612d59565b9050602081019050919050565b600081519050919050565b600081519050919050565b600082825260208201905092915050565b600082825260208201905092915050565b600081905092915050565b6000612bed82612c2c565b9050919050565b60008115159050919050565b60007fffffffff0000000000000000000000000000000000000000000000000000000082169050919050565b600073ffffffffffffffffffffffffffffffffffffffff82169050919050565b6000819050919050565b82818337600083830152505050565b60005b83811015612c83578082015181840152602081019050612c68565b83811115612c92576000848401525b50505050565b60006002820490506001821680612cb057607f821691505b60208210811415612cc457612cc3612cfb565b5b50919050565b612cd382612d59565b810181811067ffffffffffffffff82111715612cf257612cf1612d2a565b5b80604052505050565b7f4e487b7100000000000000000000000000000000000000000000000000000000600052602260045260246000fd5b7f4e487b7100000000000000000000000000000000000000000000000000000000600052604160045260246000fd5b6000601f19601f8301169050919050565b7f4552433732313a2063616c6c6572206973206e6f7420746f6b656e206f776e6560008201527f72206f7220617070726f76656400000000000000000000000000000000000000602082015250565b7f4552433732313a207472616e7366657220746f206e6f6e20455243373231526560008201527f63656976657220696d706c656d656e7465720000000000000000000000000000602082015250565b7f4f776e61626c653a206e6577206f776e657220697320746865207a65726f206160008201527f6464726573730000000000000000000000000000000000000000000000000000602082015250565b7f4552433732313a207472616e736665722066726f6d20696e636f72726563742060008201527f6f776e6572000000000000000000000000000000000000000000000000000000602082015250565b7f4552433732313a20746f6b656e20616c7265616479206d696e74656400000000600082015250565b7f4552433732313a207472616e7366657220746f20746865207a65726f2061646460008201527f7265737300000000000000000000000000000000000000000000000000000000602082015250565b7f4552433732313a20617070726f766520746f2063616c6c657200000000000000600082015250565b7f4f6e6c7920746865206f776e6572206f662074686520746f6b656e2063616e2060008201527f6275726e2069742e000000000000000000000000000000000000000000000000602082015250565b7f4552433732313a2061646472657373207a65726f206973206e6f74206120766160008201527f6c6964206f776e65720000000000000000000000000000000000000000000000602082015250565b7f45524337323155524953746f726167653a2055524920736574206f66206e6f6e60008201527f6578697374656e7420746f6b656e000000000000000000000000000000000000602082015250565b7f4e6f6e2070756f20657373657265207472617366657269746f00000000000000600082015250565b7f4552433732313a206d696e7420746f20746865207a65726f2061646472657373600082015250565b7f4f776e61626c653a2063616c6c6572206973206e6f7420746865206f776e6572600082015250565b7f4552433732313a20696e76616c696420746f6b656e2049440000000000000000600082015250565b7f4552433732313a20617070726f76616c20746f2063757272656e74206f776e6560008201527f7200000000000000000000000000000000000000000000000000000000000000602082015250565b7f4552433732313a20617070726f76652063616c6c6572206973206e6f7420746f60008201527f6b656e206f776e6572206f7220617070726f76656420666f7220616c6c000000602082015250565b61317f81612be2565b811461318a57600080fd5b50565b61319681612bf4565b81146131a157600080fd5b50565b6131ad81612c00565b81146131b857600080fd5b50565b6131c481612c4c565b81146131cf57600080fd5b5056fea2646970667358221220ffa290f0a92ca86a61e2a415bc00c9b42db0a3c3ad468791f33a4958b8c01da664736f6c63430008040033",
  "linkReferences": {},
  "deployedLinkReferences": {}
}