{
  "_format": "hh-sol-artifact-1",
  "contractName": "NFT_Badge_Service",
  "sourceName": "contracts/NFT_Badge_Service.sol",
  "abi": [
    {
      "inputs": [],
      "stateMutability": "nonpayable",
      "type": "constructor"
    },
    {
      "anonymous": false,
      "inputs": [
        {
          "indexed": true,
          "internalType": "address",
          "name": "owner",
          "type": "address"
        },
        {
          "indexed": true,
          "internalType": "address",
          "name": "approved",
          "type": "address"
        },
        {
          "indexed": true,
          "internalType": "uint256",
          "name": "tokenId",
          "type": "uint256"
        }
      ],
      "name": "Approval",
      "type": "event"
    },
    {
      "anonymous": false,
      "inputs": [
        {
          "indexed": true,
          "internalType": "address",
          "name": "owner",
          "type": "address"
        },
        {
          "indexed": true,
          "internalType": "address",
          "name": "operator",
          "type": "address"
        },
        {
          "indexed": false,
          "internalType": "bool",
          "name": "approved",
          "type": "bool"
        }
      ],
      "name": "ApprovalForAll",
      "type": "event"
    },
    {
      "anonymous": false,
      "inputs": [
        {
          "indexed": false,
          "internalType": "uint256",
          "name": "_fromTokenId",
          "type": "uint256"
        },
        {
          "indexed": false,
          "internalType": "uint256",
          "name": "_toTokenId",
          "type": "uint256"
        }
      ],
      "name": "BatchMetadataUpdate",
      "type": "event"
    },
    {
      "anonymous": false,
      "inputs": [
        {
          "indexed": false,
          "internalType": "uint256",
          "name": "_tokenId",
          "type": "uint256"
        }
      ],
      "name": "MetadataUpdate",
      "type": "event"
    },
    {
      "anonymous": false,
      "inputs": [
        {
          "indexed": true,
          "internalType": "address",
          "name": "from",
          "type": "address"
        },
        {
          "indexed": true,
          "internalType": "address",
          "name": "to",
          "type": "address"
        },
        {
          "indexed": true,
          "internalType": "uint256",
          "name": "tokenId",
          "type": "uint256"
        }
      ],
      "name": "Transfer",
      "type": "event"
    },
    {
      "inputs": [
        {
          "internalType": "address",
          "name": "to",
          "type": "address"
        },
        {
          "internalType": "uint256",
          "name": "tokenId",
          "type": "uint256"
        }
      ],
      "name": "approve",
      "outputs": [],
      "stateMutability": "nonpayable",
      "type": "function"
    },
    {
      "inputs": [
        {
          "internalType": "address",
          "name": "owner",
          "type": "address"
        }
      ],
      "name": "balanceOf",
      "outputs": [
        {
          "internalType": "uint256",
          "name": "",
          "type": "uint256"
        }
      ],
      "stateMutability": "view",
      "type": "function"
    },
    {
      "inputs": [
        {
          "internalType": "uint256",
          "name": "tokenId",
          "type": "uint256"
        }
      ],
      "name": "burn",
      "outputs": [],
      "stateMutability": "nonpayable",
      "type": "function"
    },
    {
      "inputs": [
        {
          "internalType": "uint256",
          "name": "tokenId",
          "type": "uint256"
        }
      ],
      "name": "getApproved",
      "outputs": [
        {
          "internalType": "address",
          "name": "",
          "type": "address"
        }
      ],
      "stateMutability": "view",
      "type": "function"
    },
    {
      "inputs": [
        {
          "internalType": "address",
          "name": "owner",
          "type": "address"
        },
        {
          "internalType": "address",
          "name": "operator",
          "type": "address"
        }
      ],
      "name": "isApprovedForAll",
      "outputs": [
        {
          "internalType": "bool",
          "name": "",
          "type": "bool"
        }
      ],
      "stateMutability": "view",
      "type": "function"
    },
    {
      "inputs": [],
      "name": "name",
      "outputs": [
        {
          "internalType": "string",
          "name": "",
          "type": "string"
        }
      ],
      "stateMutability": "view",
      "type": "function"
    },
    {
      "inputs": [
        {
          "internalType": "uint256",
          "name": "tokenId",
          "type": "uint256"
        }
      ],
      "name": "ownerOf",
      "outputs": [
        {
          "internalType": "address",
          "name": "",
          "type": "address"
        }
      ],
      "stateMutability": "view",
      "type": "function"
    },
    {
      "inputs": [
        {
          "internalType": "address",
          "name": "to",
          "type": "address"
        },
        {
          "internalType": "string",
          "name": "uri",
          "type": "string"
        }
      ],
      "name": "safeMint",
      "outputs": [],
      "stateMutability": "nonpayable",
      "type": "function"
    },
    {
      "inputs": [
        {
          "internalType": "address",
          "name": "from",
          "type": "address"
        },
        {
          "internalType": "address",
          "name": "to",
          "type": "address"
        },
        {
          "internalType": "uint256",
          "name": "tokenId",
          "type": "uint256"
        }
      ],
      "name": "safeTransferFrom",
      "outputs": [],
      "stateMutability": "nonpayable",
      "type": "function"
    },
    {
      "inputs": [
        {
          "internalType": "address",
          "name": "from",
          "type": "address"
        },
        {
          "internalType": "address",
          "name": "to",
          "type": "address"
        },
        {
          "internalType": "uint256",
          "name": "tokenId",
          "type": "uint256"
        },
        {
          "internalType": "bytes",
          "name": "data",
          "type": "bytes"
        }
      ],
      "name": "safeTransferFrom",
      "outputs": [],
      "stateMutability": "nonpayable",
      "type": "function"
    },
    {
      "inputs": [
        {
          "internalType": "address",
          "name": "operator",
          "type": "address"
        },
        {
          "internalType": "bool",
          "name": "approved",
          "type": "bool"
        }
      ],
      "name": "setApprovalForAll",
      "outputs": [],
      "stateMutability": "nonpayable",
      "type": "function"
    },
    {
      "inputs": [
        {
          "internalType": "bytes4",
          "name": "interfaceId",
          "type": "bytes4"
        }
      ],
      "name": "supportsInterface",
      "outputs": [
        {
          "internalType": "bool",
          "name": "",
          "type": "bool"
        }
      ],
      "stateMutability": "view",
      "type": "function"
    },
    {
      "inputs": [],
      "name": "symbol",
      "outputs": [
        {
          "internalType": "string",
          "name": "",
          "type": "string"
        }
      ],
      "stateMutability": "view",
      "type": "function"
    },
    {
      "inputs": [
        {
          "internalType": "uint256",
          "name": "tokenId",
          "type": "uint256"
        }
      ],
      "name": "tokenURI",
      "outputs": [
        {
          "internalType": "string",
          "name": "",
          "type": "string"
        }
      ],
      "stateMutability": "view",
      "type": "function"
    },
    {
      "inputs": [
        {
          "internalType": "address",
          "name": "from",
          "type": "address"
        },
        {
          "internalType": "address",
          "name": "to",
          "type": "address"
        },
        {
          "internalType": "uint256",
          "name": "tokenId",
          "type": "uint256"
        }
      ],
      "name": "transferFrom",
      "outputs": [],
      "stateMutability": "nonpayable",
      "type": "function"
    }
  ],
  "bytecode": "0x60806040523480156200001157600080fd5b506040518060400160405280601181526020017f436c6f75645365727669636542616467650000000000000000000000000000008152506040518060400160405280600281526020017f4353000000000000000000000000000000000000000000000000000000000000815250816000908051906020019062000096929190620000b8565b508060019080519060200190620000af929190620000b8565b505050620001cd565b828054620000c69062000168565b90600052602060002090601f016020900481019282620000ea576000855562000136565b82601f106200010557805160ff191683800117855562000136565b8280016001018555821562000136579182015b828111156200013557825182559160200191906001019062000118565b5b50905062000145919062000149565b5090565b5b80821115620001645760008160009055506001016200014a565b5090565b600060028204905060018216806200018157607f821691505b602082108114156200019857620001976200019e565b5b50919050565b7f4e487b7100000000000000000000000000000000000000000000000000000000600052602260045260246000fd5b612e9780620001dd6000396000f3fe608060405234801561001057600080fd5b50600436106100f55760003560e01c80636352211e11610097578063b88d4fde11610066578063b88d4fde14610282578063c87b56dd1461029e578063d204c45e146102ce578063e985e9c5146102ea576100f5565b80636352211e146101e857806370a082311461021857806395d89b4114610248578063a22cb46514610266576100f5565b8063095ea7b3116100d3578063095ea7b31461017857806323b872dd1461019457806342842e0e146101b057806342966c68146101cc576100f5565b806301ffc9a7146100fa57806306fdde031461012a578063081812fc14610148575b600080fd5b610114600480360381019061010f9190612247565b61031a565b6040516101219190612607565b60405180910390f35b61013261037b565b60405161013f9190612622565b60405180910390f35b610162600480360381019061015d9190612299565b61040d565b60405161016f91906125a0565b60405180910390f35b610192600480360381019061018d919061220b565b610453565b005b6101ae60048036038101906101a991906120b1565b61056b565b005b6101ca60048036038101906101c591906120b1565b6105cb565b005b6101e660048036038101906101e19190612299565b6105eb565b005b61020260048036038101906101fd9190612299565b61066d565b60405161020f91906125a0565b60405180910390f35b610232600480360381019061022d919061204c565b6106f4565b60405161023f9190612804565b60405180910390f35b6102506107ac565b60405161025d9190612622565b60405180910390f35b610280600480360381019061027b919061217b565b61083e565b005b61029c60048036038101906102979190612100565b610854565b005b6102b860048036038101906102b39190612299565b6108b6565b6040516102c59190612622565b60405180910390f35b6102e860048036038101906102e391906121b7565b6109c9565b005b61030460048036038101906102ff9190612075565b6109fa565b6040516103119190612607565b60405180910390f35b6000634906490660e01b7bffffffffffffffffffffffffffffffffffffffffffffffffffffffff1916827bffffffffffffffffffffffffffffffffffffffffffffffffffffffff19161480610374575061037382610a8e565b5b9050919050565b60606000805461038a9061299f565b80601f01602080910402602001604051908101604052809291908181526020018280546103b69061299f565b80156104035780601f106103d857610100808354040283529160200191610403565b820191906000526020600020905b8154815290600101906020018083116103e657829003601f168201915b5050505050905090565b600061041882610b70565b6004600083815260200190815260200160002060009054906101000a900473ffffffffffffffffffffffffffffffffffffffff169050919050565b600061045e8261066d565b90508073ffffffffffffffffffffffffffffffffffffffff168373ffffffffffffffffffffffffffffffffffffffff1614156104cf576040517f08c379a00000000000000000000000000000000000000000000000000000000081526004016104c6906127c4565b60405180910390fd5b8073ffffffffffffffffffffffffffffffffffffffff166104ee610bbb565b73ffffffffffffffffffffffffffffffffffffffff16148061051d575061051c81610517610bbb565b6109fa565b5b61055c576040517f08c379a0000000000000000000000000000000000000000000000000000000008152600401610553906127e4565b60405180910390fd5b6105668383610bc3565b505050565b61057c610576610bbb565b82610c7c565b6105bb576040517f08c379a00000000000000000000000000000000000000000000000000000000081526004016105b290612644565b60405180910390fd5b6105c6838383610d11565b505050565b6105e683838360405180602001604052806000815250610854565b505050565b3373ffffffffffffffffffffffffffffffffffffffff1661060b8261066d565b73ffffffffffffffffffffffffffffffffffffffff1614610661576040517f08c379a000000000000000000000000000000000000000000000000000000000815260040161065890612704565b60405180910390fd5b61066a8161100b565b50565b60008061067983611020565b9050600073ffffffffffffffffffffffffffffffffffffffff168173ffffffffffffffffffffffffffffffffffffffff1614156106eb576040517f08c379a00000000000000000000000000000000000000000000000000000000081526004016106e2906127a4565b60405180910390fd5b80915050919050565b60008073ffffffffffffffffffffffffffffffffffffffff168273ffffffffffffffffffffffffffffffffffffffff161415610765576040517f08c379a000000000000000000000000000000000000000000000000000000000815260040161075c90612724565b60405180910390fd5b600360008373ffffffffffffffffffffffffffffffffffffffff1673ffffffffffffffffffffffffffffffffffffffff168152602001908152602001600020549050919050565b6060600180546107bb9061299f565b80601f01602080910402602001604051908101604052809291908181526020018280546107e79061299f565b80156108345780601f1061080957610100808354040283529160200191610834565b820191906000526020600020905b81548152906001019060200180831161081757829003601f168201915b5050505050905090565b610850610849610bbb565b838361105d565b5050565b61086561085f610bbb565b83610c7c565b6108a4576040517f08c379a000000000000000000000000000000000000000000000000000000000815260040161089b90612644565b60405180910390fd5b6108b0848484846111ca565b50505050565b60606108c182610b70565b60006006600084815260200190815260200160002080546108e19061299f565b80601f016020809104026020016040519081016040528092919081815260200182805461090d9061299f565b801561095a5780601f1061092f5761010080835404028352916020019161095a565b820191906000526020600020905b81548152906001019060200180831161093d57829003601f168201915b50505050509050600061096b611226565b90506000815114156109815781925050506109c4565b6000825111156109b657808260405160200161099e92919061257c565b604051602081830303815290604052925050506109c4565b6109bf8461123d565b925050505b919050565b60006109d560076112a5565b90506109e160076112b3565b6109eb83826112c9565b6109f581836112e7565b505050565b6000600560008473ffffffffffffffffffffffffffffffffffffffff1673ffffffffffffffffffffffffffffffffffffffff16815260200190815260200160002060008373ffffffffffffffffffffffffffffffffffffffff1673ffffffffffffffffffffffffffffffffffffffff16815260200190815260200160002060009054906101000a900460ff16905092915050565b60007f80ac58cd000000000000000000000000000000000000000000000000000000007bffffffffffffffffffffffffffffffffffffffffffffffffffffffff1916827bffffffffffffffffffffffffffffffffffffffffffffffffffffffff19161480610b5957507f5b5e139f000000000000000000000000000000000000000000000000000000007bffffffffffffffffffffffffffffffffffffffffffffffffffffffff1916827bffffffffffffffffffffffffffffffffffffffffffffffffffffffff1916145b80610b695750610b6882611392565b5b9050919050565b610b79816113fc565b610bb8576040517f08c379a0000000000000000000000000000000000000000000000000000000008152600401610baf906127a4565b60405180910390fd5b50565b600033905090565b816004600083815260200190815260200160002060006101000a81548173ffffffffffffffffffffffffffffffffffffffff021916908373ffffffffffffffffffffffffffffffffffffffff160217905550808273ffffffffffffffffffffffffffffffffffffffff16610c368361066d565b73ffffffffffffffffffffffffffffffffffffffff167f8c5be1e5ebec7d5bd14f71427d1e84f3dd0314c0f7b2291e5b200ac8c7c3b92560405160405180910390a45050565b600080610c888361066d565b90508073ffffffffffffffffffffffffffffffffffffffff168473ffffffffffffffffffffffffffffffffffffffff161480610cca5750610cc981856109fa565b5b80610d0857508373ffffffffffffffffffffffffffffffffffffffff16610cf08461040d565b73ffffffffffffffffffffffffffffffffffffffff16145b91505092915050565b8273ffffffffffffffffffffffffffffffffffffffff16610d318261066d565b73ffffffffffffffffffffffffffffffffffffffff1614610d87576040517f08c379a0000000000000000000000000000000000000000000000000000000008152600401610d7e90612684565b60405180910390fd5b600073ffffffffffffffffffffffffffffffffffffffff168273ffffffffffffffffffffffffffffffffffffffff161415610df7576040517f08c379a0000000000000000000000000000000000000000000000000000000008152600401610dee906126c4565b60405180910390fd5b610e04838383600161143d565b8273ffffffffffffffffffffffffffffffffffffffff16610e248261066d565b73ffffffffffffffffffffffffffffffffffffffff1614610e7a576040517f08c379a0000000000000000000000000000000000000000000000000000000008152600401610e7190612684565b60405180910390fd5b6004600082815260200190815260200160002060006101000a81549073ffffffffffffffffffffffffffffffffffffffff02191690556001600360008573ffffffffffffffffffffffffffffffffffffffff1673ffffffffffffffffffffffffffffffffffffffff168152602001908152602001600020600082825403925050819055506001600360008473ffffffffffffffffffffffffffffffffffffffff1673ffffffffffffffffffffffffffffffffffffffff16815260200190815260200160002060008282540192505081905550816002600083815260200190815260200160002060006101000a81548173ffffffffffffffffffffffffffffffffffffffff021916908373ffffffffffffffffffffffffffffffffffffffff160217905550808273ffffffffffffffffffffffffffffffffffffffff168473ffffffffffffffffffffffffffffffffffffffff167fddf252ad1be2c89b69c2b068fc378daa952ba7f163c4a11628f55a4df523b3ef60405160405180910390a461100683838360016114f5565b505050565b611014816114fb565b61101d8161100b565b50565b60006002600083815260200190815260200160002060009054906101000a900473ffffffffffffffffffffffffffffffffffffffff169050919050565b8173ffffffffffffffffffffffffffffffffffffffff168373ffffffffffffffffffffffffffffffffffffffff1614156110cc576040517f08c379a00000000000000000000000000000000000000000000000000000000081526004016110c3906126e4565b60405180910390fd5b80600560008573ffffffffffffffffffffffffffffffffffffffff1673ffffffffffffffffffffffffffffffffffffffff16815260200190815260200160002060008473ffffffffffffffffffffffffffffffffffffffff1673ffffffffffffffffffffffffffffffffffffffff16815260200190815260200160002060006101000a81548160ff0219169083151502179055508173ffffffffffffffffffffffffffffffffffffffff168373ffffffffffffffffffffffffffffffffffffffff167f17307eab39ab6107e8899845ad3d59bd9653f200f220920489ca2b5937696c31836040516111bd9190612607565b60405180910390a3505050565b6111d5848484610d11565b6111e18484848461154e565b611220576040517f08c379a000000000000000000000000000000000000000000000000000000000815260040161121790612664565b60405180910390fd5b50505050565b606060405180602001604052806000815250905090565b606061124882610b70565b6000611252611226565b90506000815111611272576040518060200160405280600081525061129d565b8061127c846116e5565b60405160200161128d92919061257c565b6040516020818303038152906040525b915050919050565b600081600001549050919050565b6001816000016000828254019250508190555050565b6112e3828260405180602001604052806000815250611809565b5050565b6112f0826113fc565b61132f576040517f08c379a000000000000000000000000000000000000000000000000000000000815260040161132690612744565b60405180910390fd5b80600660008481526020019081526020016000209080519060200190611356929190611e30565b507ff8e1a15aba9398e019f0b49df1a4fde98ee17ae345cb5f6b5e2c27f5033e8ce7826040516113869190612804565b60405180910390a15050565b60007f01ffc9a7000000000000000000000000000000000000000000000000000000007bffffffffffffffffffffffffffffffffffffffffffffffffffffffff1916827bffffffffffffffffffffffffffffffffffffffffffffffffffffffff1916149050919050565b60008073ffffffffffffffffffffffffffffffffffffffff1661141e83611020565b73ffffffffffffffffffffffffffffffffffffffff1614159050919050565b600073ffffffffffffffffffffffffffffffffffffffff168473ffffffffffffffffffffffffffffffffffffffff1614806114a45750600073ffffffffffffffffffffffffffffffffffffffff168373ffffffffffffffffffffffffffffffffffffffff16145b6114e3576040517f08c379a00000000000000000000000000000000000000000000000000000000081526004016114da90612764565b60405180910390fd5b6114ef84848484611864565b50505050565b50505050565b6115048161186a565b60006006600083815260200190815260200160002080546115249061299f565b90501461154b5760066000828152602001908152602001600020600061154a9190611eb6565b5b50565b600061156f8473ffffffffffffffffffffffffffffffffffffffff166119b8565b156116d8578373ffffffffffffffffffffffffffffffffffffffff1663150b7a02611598610bbb565b8786866040518563ffffffff1660e01b81526004016115ba94939291906125bb565b602060405180830381600087803b1580156115d457600080fd5b505af192505050801561160557506040513d601f19601f820116820180604052508101906116029190612270565b60015b611688573d8060008114611635576040519150601f19603f3d011682016040523d82523d6000602084013e61163a565b606091505b50600081511415611680576040517f08c379a000000000000000000000000000000000000000000000000000000000815260040161167790612664565b60405180910390fd5b805181602001fd5b63150b7a0260e01b7bffffffffffffffffffffffffffffffffffffffffffffffffffffffff1916817bffffffffffffffffffffffffffffffffffffffffffffffffffffffff1916149150506116dd565b600190505b949350505050565b6060600060016116f4846119db565b01905060008167ffffffffffffffff811115611739577f4e487b7100000000000000000000000000000000000000000000000000000000600052604160045260246000fd5b6040519080825280601f01601f19166020018201604052801561176b5781602001600182028036833780820191505090505b509050600082602001820190505b6001156117fe578080600190039150507f3031323334353637383961626364656600000000000000000000000000000000600a86061a8153600a85816117e8577f4e487b7100000000000000000000000000000000000000000000000000000000600052601260045260246000fd5b04945060008514156117f9576117fe565b611779565b819350505050919050565b6118138383611c12565b611820600084848461154e565b61185f576040517f08c379a000000000000000000000000000000000000000000000000000000000815260040161185690612664565b60405180910390fd5b505050565b50505050565b60006118758261066d565b905061188581600084600161143d565b61188e8261066d565b90506004600083815260200190815260200160002060006101000a81549073ffffffffffffffffffffffffffffffffffffffff02191690556001600360008373ffffffffffffffffffffffffffffffffffffffff1673ffffffffffffffffffffffffffffffffffffffff168152602001908152602001600020600082825403925050819055506002600083815260200190815260200160002060006101000a81549073ffffffffffffffffffffffffffffffffffffffff021916905581600073ffffffffffffffffffffffffffffffffffffffff168273ffffffffffffffffffffffffffffffffffffffff167fddf252ad1be2c89b69c2b068fc378daa952ba7f163c4a11628f55a4df523b3ef60405160405180910390a46119b48160008460016114f5565b5050565b6000808273ffffffffffffffffffffffffffffffffffffffff163b119050919050565b600080600090507a184f03e93ff9f4daa797ed6e38ed64bf6a1f0100000000000000008310611a5f577a184f03e93ff9f4daa797ed6e38ed64bf6a1f0100000000000000008381611a55577f4e487b7100000000000000000000000000000000000000000000000000000000600052601260045260246000fd5b0492506040810190505b6d04ee2d6d415b85acef81000000008310611ac2576d04ee2d6d415b85acef81000000008381611ab8577f4e487b7100000000000000000000000000000000000000000000000000000000600052601260045260246000fd5b0492506020810190505b662386f26fc100008310611b1757662386f26fc100008381611b0d577f4e487b7100000000000000000000000000000000000000000000000000000000600052601260045260246000fd5b0492506010810190505b6305f5e1008310611b66576305f5e1008381611b5c577f4e487b7100000000000000000000000000000000000000000000000000000000600052601260045260246000fd5b0492506008810190505b6127108310611bb1576127108381611ba7577f4e487b7100000000000000000000000000000000000000000000000000000000600052601260045260246000fd5b0492506004810190505b60648310611bfa5760648381611bf0577f4e487b7100000000000000000000000000000000000000000000000000000000600052601260045260246000fd5b0492506002810190505b600a8310611c09576001810190505b80915050919050565b600073ffffffffffffffffffffffffffffffffffffffff168273ffffffffffffffffffffffffffffffffffffffff161415611c82576040517f08c379a0000000000000000000000000000000000000000000000000000000008152600401611c7990612784565b60405180910390fd5b611c8b816113fc565b15611ccb576040517f08c379a0000000000000000000000000000000000000000000000000000000008152600401611cc2906126a4565b60405180910390fd5b611cd960008383600161143d565b611ce2816113fc565b15611d22576040517f08c379a0000000000000000000000000000000000000000000000000000000008152600401611d19906126a4565b60405180910390fd5b6001600360008473ffffffffffffffffffffffffffffffffffffffff1673ffffffffffffffffffffffffffffffffffffffff16815260200190815260200160002060008282540192505081905550816002600083815260200190815260200160002060006101000a81548173ffffffffffffffffffffffffffffffffffffffff021916908373ffffffffffffffffffffffffffffffffffffffff160217905550808273ffffffffffffffffffffffffffffffffffffffff16600073ffffffffffffffffffffffffffffffffffffffff167fddf252ad1be2c89b69c2b068fc378daa952ba7f163c4a11628f55a4df523b3ef60405160405180910390a4611e2c6000838360016114f5565b5050565b828054611e3c9061299f565b90600052602060002090601f016020900481019282611e5e5760008555611ea5565b82601f10611e7757805160ff1916838001178555611ea5565b82800160010185558215611ea5579182015b82811115611ea4578251825591602001919060010190611e89565b5b509050611eb29190611ef6565b5090565b508054611ec29061299f565b6000825580601f10611ed45750611ef3565b601f016020900490600052602060002090810190611ef29190611ef6565b5b50565b5b80821115611f0f576000816000905550600101611ef7565b5090565b6000611f26611f2184612844565b61281f565b905082815260208101848484011115611f3e57600080fd5b611f4984828561295d565b509392505050565b6000611f64611f5f84612875565b61281f565b905082815260208101848484011115611f7c57600080fd5b611f8784828561295d565b509392505050565b600081359050611f9e81612e05565b92915050565b600081359050611fb381612e1c565b92915050565b600081359050611fc881612e33565b92915050565b600081519050611fdd81612e33565b92915050565b600082601f830112611ff457600080fd5b8135612004848260208601611f13565b91505092915050565b600082601f83011261201e57600080fd5b813561202e848260208601611f51565b91505092915050565b60008135905061204681612e4a565b92915050565b60006020828403121561205e57600080fd5b600061206c84828501611f8f565b91505092915050565b6000806040838503121561208857600080fd5b600061209685828601611f8f565b92505060206120a785828601611f8f565b9150509250929050565b6000806000606084860312156120c657600080fd5b60006120d486828701611f8f565b93505060206120e586828701611f8f565b92505060406120f686828701612037565b9150509250925092565b6000806000806080858703121561211657600080fd5b600061212487828801611f8f565b945050602061213587828801611f8f565b935050604061214687828801612037565b925050606085013567ffffffffffffffff81111561216357600080fd5b61216f87828801611fe3565b91505092959194509250565b6000806040838503121561218e57600080fd5b600061219c85828601611f8f565b92505060206121ad85828601611fa4565b9150509250929050565b600080604083850312156121ca57600080fd5b60006121d885828601611f8f565b925050602083013567ffffffffffffffff8111156121f557600080fd5b6122018582860161200d565b9150509250929050565b6000806040838503121561221e57600080fd5b600061222c85828601611f8f565b925050602061223d85828601612037565b9150509250929050565b60006020828403121561225957600080fd5b600061226784828501611fb9565b91505092915050565b60006020828403121561228257600080fd5b600061229084828501611fce565b91505092915050565b6000602082840312156122ab57600080fd5b60006122b984828501612037565b91505092915050565b6122cb816128e9565b82525050565b6122da816128fb565b82525050565b60006122eb826128a6565b6122f581856128bc565b935061230581856020860161296c565b61230e81612a60565b840191505092915050565b6000612324826128b1565b61232e81856128cd565b935061233e81856020860161296c565b61234781612a60565b840191505092915050565b600061235d826128b1565b61236781856128de565b935061237781856020860161296c565b80840191505092915050565b6000612390602d836128cd565b915061239b82612a71565b604082019050919050565b60006123b36032836128cd565b91506123be82612ac0565b604082019050919050565b60006123d66025836128cd565b91506123e182612b0f565b604082019050919050565b60006123f9601c836128cd565b915061240482612b5e565b602082019050919050565b600061241c6024836128cd565b915061242782612b87565b604082019050919050565b600061243f6019836128cd565b915061244a82612bd6565b602082019050919050565b60006124626028836128cd565b915061246d82612bff565b604082019050919050565b60006124856029836128cd565b915061249082612c4e565b604082019050919050565b60006124a8602e836128cd565b91506124b382612c9d565b604082019050919050565b60006124cb6019836128cd565b91506124d682612cec565b602082019050919050565b60006124ee6020836128cd565b91506124f982612d15565b602082019050919050565b60006125116018836128cd565b915061251c82612d3e565b602082019050919050565b60006125346021836128cd565b915061253f82612d67565b604082019050919050565b6000612557603d836128cd565b915061256282612db6565b604082019050919050565b61257681612953565b82525050565b60006125888285612352565b91506125948284612352565b91508190509392505050565b60006020820190506125b560008301846122c2565b92915050565b60006080820190506125d060008301876122c2565b6125dd60208301866122c2565b6125ea604083018561256d565b81810360608301526125fc81846122e0565b905095945050505050565b600060208201905061261c60008301846122d1565b92915050565b6000602082019050818103600083015261263c8184612319565b905092915050565b6000602082019050818103600083015261265d81612383565b9050919050565b6000602082019050818103600083015261267d816123a6565b9050919050565b6000602082019050818103600083015261269d816123c9565b9050919050565b600060208201905081810360008301526126bd816123ec565b9050919050565b600060208201905081810360008301526126dd8161240f565b9050919050565b600060208201905081810360008301526126fd81612432565b9050919050565b6000602082019050818103600083015261271d81612455565b9050919050565b6000602082019050818103600083015261273d81612478565b9050919050565b6000602082019050818103600083015261275d8161249b565b9050919050565b6000602082019050818103600083015261277d816124be565b9050919050565b6000602082019050818103600083015261279d816124e1565b9050919050565b600060208201905081810360008301526127bd81612504565b9050919050565b600060208201905081810360008301526127dd81612527565b9050919050565b600060208201905081810360008301526127fd8161254a565b9050919050565b6000602082019050612819600083018461256d565b92915050565b600061282961283a565b905061283582826129d1565b919050565b6000604051905090565b600067ffffffffffffffff82111561285f5761285e612a31565b5b61286882612a60565b9050602081019050919050565b600067ffffffffffffffff8211156128905761288f612a31565b5b61289982612a60565b9050602081019050919050565b600081519050919050565b600081519050919050565b600082825260208201905092915050565b600082825260208201905092915050565b600081905092915050565b60006128f482612933565b9050919050565b60008115159050919050565b60007fffffffff0000000000000000000000000000000000000000000000000000000082169050919050565b600073ffffffffffffffffffffffffffffffffffffffff82169050919050565b6000819050919050565b82818337600083830152505050565b60005b8381101561298a57808201518184015260208101905061296f565b83811115612999576000848401525b50505050565b600060028204905060018216806129b757607f821691505b602082108114156129cb576129ca612a02565b5b50919050565b6129da82612a60565b810181811067ffffffffffffffff821117156129f9576129f8612a31565b5b80604052505050565b7f4e487b7100000000000000000000000000000000000000000000000000000000600052602260045260246000fd5b7f4e487b7100000000000000000000000000000000000000000000000000000000600052604160045260246000fd5b6000601f19601f8301169050919050565b7f4552433732313a2063616c6c6572206973206e6f7420746f6b656e206f776e6560008201527f72206f7220617070726f76656400000000000000000000000000000000000000602082015250565b7f4552433732313a207472616e7366657220746f206e6f6e20455243373231526560008201527f63656976657220696d706c656d656e7465720000000000000000000000000000602082015250565b7f4552433732313a207472616e736665722066726f6d20696e636f72726563742060008201527f6f776e6572000000000000000000000000000000000000000000000000000000602082015250565b7f4552433732313a20746f6b656e20616c7265616479206d696e74656400000000600082015250565b7f4552433732313a207472616e7366657220746f20746865207a65726f2061646460008201527f7265737300000000000000000000000000000000000000000000000000000000602082015250565b7f4552433732313a20617070726f766520746f2063616c6c657200000000000000600082015250565b7f4f6e6c7920746865206f776e6572206f662074686520746f6b656e2063616e2060008201527f6275726e2069742e000000000000000000000000000000000000000000000000602082015250565b7f4552433732313a2061646472657373207a65726f206973206e6f74206120766160008201527f6c6964206f776e65720000000000000000000000000000000000000000000000602082015250565b7f45524337323155524953746f726167653a2055524920736574206f66206e6f6e60008201527f6578697374656e7420746f6b656e000000000000000000000000000000000000602082015250565b7f4e6f6e2070756f20657373657265207472617366657269746f00000000000000600082015250565b7f4552433732313a206d696e7420746f20746865207a65726f2061646472657373600082015250565b7f4552433732313a20696e76616c696420746f6b656e2049440000000000000000600082015250565b7f4552433732313a20617070726f76616c20746f2063757272656e74206f776e6560008201527f7200000000000000000000000000000000000000000000000000000000000000602082015250565b7f4552433732313a20617070726f76652063616c6c6572206973206e6f7420746f60008201527f6b656e206f776e6572206f7220617070726f76656420666f7220616c6c000000602082015250565b612e0e816128e9565b8114612e1957600080fd5b50565b612e25816128fb565b8114612e3057600080fd5b50565b612e3c81612907565b8114612e4757600080fd5b50565b612e5381612953565b8114612e5e57600080fd5b5056fea2646970667358221220c8308097429e55e6e93776bb10804425d35272e9b75996be21604b7f6636a17c64736f6c63430008040033",
  "linkReferences": {},
  "deployedLinkReferences": {}
}